{
	"TodoList.sol": {
		"TodoList": {
			"abi": [
				{
					"anonymous": false,
					"inputs": [
						{
							"indexed": false,
							"internalType": "address",
							"name": "user",
							"type": "address"
						},
						{
							"indexed": false,
							"internalType": "uint256",
							"name": "id",
							"type": "uint256"
						},
						{
							"indexed": false,
							"internalType": "bool",
							"name": "completed",
							"type": "bool"
						}
					],
					"name": "TaskCompleted",
					"type": "event"
				},
				{
					"anonymous": false,
					"inputs": [
						{
							"indexed": false,
							"internalType": "address",
							"name": "user",
							"type": "address"
						},
						{
							"indexed": false,
							"internalType": "uint256",
							"name": "id",
							"type": "uint256"
						},
						{
							"indexed": false,
							"internalType": "string",
							"name": "content",
							"type": "string"
						},
						{
							"indexed": false,
							"internalType": "bool",
							"name": "completed",
							"type": "bool"
						}
					],
					"name": "TaskCreated",
					"type": "event"
				},
				{
					"inputs": [
						{
							"internalType": "string",
							"name": "_content",
							"type": "string"
						}
					],
					"name": "createTask",
					"outputs": [],
					"stateMutability": "nonpayable",
					"type": "function"
				},
				{
					"inputs": [],
					"name": "taskCount",
					"outputs": [
						{
							"internalType": "uint256",
							"name": "",
							"type": "uint256"
						}
					],
					"stateMutability": "view",
					"type": "function"
				},
				{
					"inputs": [
						{
							"internalType": "address",
							"name": "",
							"type": "address"
						},
						{
							"internalType": "uint256",
							"name": "",
							"type": "uint256"
						}
					],
					"name": "tasks",
					"outputs": [
						{
							"internalType": "uint256",
							"name": "id",
							"type": "uint256"
						},
						{
							"internalType": "string",
							"name": "content",
							"type": "string"
						},
						{
							"internalType": "bool",
							"name": "completed",
							"type": "bool"
						}
					],
					"stateMutability": "view",
					"type": "function"
				},
				{
					"inputs": [
						{
							"internalType": "address",
							"name": "",
							"type": "address"
						}
					],
					"name": "userTaskCount",
					"outputs": [
						{
							"internalType": "uint256",
							"name": "",
							"type": "uint256"
						}
					],
					"stateMutability": "view",
					"type": "function"
				}
			],
			"devdoc": {
				"kind": "dev",
				"methods": {},
				"version": 1
			},
			"evm": {
				"assembly": "    /* \"TodoList.sol\":60:872  contract TodoList {... */\n  mstore(0x40, 0x80)\n    /* \"TodoList.sol\":109:110  0 */\n  0x00\n    /* \"TodoList.sol\":85:110  uint public taskCount = 0 */\n  dup1\n  sstore\n    /* \"TodoList.sol\":60:872  contract TodoList {... */\n  callvalue\n  dup1\n  iszero\n  tag_1\n  jumpi\n  0x00\n  dup1\n  revert\ntag_1:\n  pop\n  dataSize(sub_0)\n  dup1\n  dataOffset(sub_0)\n  0x00\n  codecopy\n  0x00\n  return\nstop\n\nsub_0: assembly {\n        /* \"TodoList.sol\":60:872  contract TodoList {... */\n      mstore(0x40, 0x80)\n      callvalue\n      dup1\n      iszero\n      tag_1\n      jumpi\n      0x00\n      dup1\n      revert\n    tag_1:\n      pop\n      jumpi(tag_2, lt(calldatasize, 0x04))\n      shr(0xe0, calldataload(0x00))\n      dup1\n      0x111002aa\n      eq\n      tag_3\n      jumpi\n      dup1\n      0x58f9e741\n      eq\n      tag_4\n      jumpi\n      dup1\n      0x7149d2e4\n      eq\n      tag_5\n      jumpi\n      dup1\n      0xb6cb58a5\n      eq\n      tag_6\n      jumpi\n    tag_2:\n      0x00\n      dup1\n      revert\n        /* \"TodoList.sol\":578:869  function createTask(string memory _content) public {... */\n    tag_3:\n      tag_7\n      0x04\n      dup1\n      calldatasize\n      sub\n      dup2\n      add\n      swap1\n      tag_8\n      swap2\n      swap1\n      tag_9\n      jump\t// in\n    tag_8:\n      tag_10\n      jump\t// in\n    tag_7:\n      stop\n        /* \"TodoList.sol\":325:370  mapping(address => uint) public userTaskCount */\n    tag_4:\n      tag_11\n      0x04\n      dup1\n      calldatasize\n      sub\n      dup2\n      add\n      swap1\n      tag_12\n      swap2\n      swap1\n      tag_13\n      jump\t// in\n    tag_12:\n      tag_14\n      jump\t// in\n    tag_11:\n      mload(0x40)\n      tag_15\n      swap2\n      swap1\n      tag_16\n      jump\t// in\n    tag_15:\n      mload(0x40)\n      dup1\n      swap2\n      sub\n      swap1\n      return\n        /* \"TodoList.sol\":264:318  mapping(address => mapping(uint => Task)) public tasks */\n    tag_5:\n      tag_17\n      0x04\n      dup1\n      calldatasize\n      sub\n      dup2\n      add\n      swap1\n      tag_18\n      swap2\n      swap1\n      tag_19\n      jump\t// in\n    tag_18:\n      tag_20\n      jump\t// in\n    tag_17:\n      mload(0x40)\n      tag_21\n      swap4\n      swap3\n      swap2\n      swap1\n      tag_22\n      jump\t// in\n    tag_21:\n      mload(0x40)\n      dup1\n      swap2\n      sub\n      swap1\n      return\n        /* \"TodoList.sol\":85:110  uint public taskCount = 0 */\n    tag_6:\n      tag_23\n      tag_24\n      jump\t// in\n    tag_23:\n      mload(0x40)\n      tag_25\n      swap2\n      swap1\n      tag_16\n      jump\t// in\n    tag_25:\n      mload(0x40)\n      dup1\n      swap2\n      sub\n      swap1\n      return\n        /* \"TodoList.sol\":578:869  function createTask(string memory _content) public {... */\n    tag_10:\n        /* \"TodoList.sol\":640:653  userTaskCount */\n      0x02\n        /* \"TodoList.sol\":640:665  userTaskCount[msg.sender] */\n      0x00\n        /* \"TodoList.sol\":654:664  msg.sender */\n      caller\n        /* \"TodoList.sol\":640:665  userTaskCount[msg.sender] */\n      0xffffffffffffffffffffffffffffffffffffffff\n      and\n      0xffffffffffffffffffffffffffffffffffffffff\n      and\n      dup2\n      mstore\n      0x20\n      add\n      swap1\n      dup2\n      mstore\n      0x20\n      add\n      0x00\n      keccak256\n      0x00\n        /* \"TodoList.sol\":640:667  userTaskCount[msg.sender]++ */\n      dup2\n      sload\n      dup1\n      swap3\n      swap2\n      swap1\n      tag_27\n      swap1\n      tag_28\n      jump\t// in\n    tag_27:\n      swap2\n      swap1\n      pop\n      sstore\n      pop\n        /* \"TodoList.sol\":678:692  uint newTaskId */\n      0x00\n        /* \"TodoList.sol\":695:708  userTaskCount */\n      0x02\n        /* \"TodoList.sol\":695:720  userTaskCount[msg.sender] */\n      0x00\n        /* \"TodoList.sol\":709:719  msg.sender */\n      caller\n        /* \"TodoList.sol\":695:720  userTaskCount[msg.sender] */\n      0xffffffffffffffffffffffffffffffffffffffff\n      and\n      0xffffffffffffffffffffffffffffffffffffffff\n      and\n      dup2\n      mstore\n      0x20\n      add\n      swap1\n      dup2\n      mstore\n      0x20\n      add\n      0x00\n      keccak256\n      sload\n        /* \"TodoList.sol\":678:720  uint newTaskId = userTaskCount[msg.sender] */\n      swap1\n      pop\n        /* \"TodoList.sol\":762:794  Task(newTaskId, _content, false) */\n      mload(0x40)\n      dup1\n      0x60\n      add\n      0x40\n      mstore\n      dup1\n        /* \"TodoList.sol\":767:776  newTaskId */\n      dup3\n        /* \"TodoList.sol\":762:794  Task(newTaskId, _content, false) */\n      dup2\n      mstore\n      0x20\n      add\n        /* \"TodoList.sol\":778:786  _content */\n      dup4\n        /* \"TodoList.sol\":762:794  Task(newTaskId, _content, false) */\n      dup2\n      mstore\n      0x20\n      add\n        /* \"TodoList.sol\":788:793  false */\n      0x00\n        /* \"TodoList.sol\":762:794  Task(newTaskId, _content, false) */\n      iszero\n      iszero\n      dup2\n      mstore\n      pop\n        /* \"TodoList.sol\":731:736  tasks */\n      0x01\n        /* \"TodoList.sol\":731:748  tasks[msg.sender] */\n      0x00\n        /* \"TodoList.sol\":737:747  msg.sender */\n      caller\n        /* \"TodoList.sol\":731:748  tasks[msg.sender] */\n      0xffffffffffffffffffffffffffffffffffffffff\n      and\n      0xffffffffffffffffffffffffffffffffffffffff\n      and\n      dup2\n      mstore\n      0x20\n      add\n      swap1\n      dup2\n      mstore\n      0x20\n      add\n      0x00\n      keccak256\n        /* \"TodoList.sol\":731:759  tasks[msg.sender][newTaskId] */\n      0x00\n        /* \"TodoList.sol\":749:758  newTaskId */\n      dup4\n        /* \"TodoList.sol\":731:759  tasks[msg.sender][newTaskId] */\n      dup2\n      mstore\n      0x20\n      add\n      swap1\n      dup2\n      mstore\n      0x20\n      add\n      0x00\n      keccak256\n        /* \"TodoList.sol\":731:794  tasks[msg.sender][newTaskId] = Task(newTaskId, _content, false) */\n      0x00\n      dup3\n      add\n      mload\n      dup2\n      0x00\n      add\n      sstore\n      0x20\n      dup3\n      add\n      mload\n      dup2\n      0x01\n      add\n      swap1\n      dup2\n      tag_29\n      swap2\n      swap1\n      tag_30\n      jump\t// in\n    tag_29:\n      pop\n      0x40\n      dup3\n      add\n      mload\n      dup2\n      0x02\n      add\n      exp(0x0100, 0x00)\n      dup2\n      sload\n      dup2\n      0xff\n      mul\n      not\n      and\n      swap1\n      dup4\n      iszero\n      iszero\n      mul\n      or\n      swap1\n      sstore\n      pop\n      swap1\n      pop\n      pop\n        /* \"TodoList.sol\":810:861  TaskCreated(msg.sender, newTaskId, _content, false) */\n      0x75c843b034b367a7ce9e041b36cf7856dba0d7e8eb42159baf7dce38313e19ef\n        /* \"TodoList.sol\":822:832  msg.sender */\n      caller\n        /* \"TodoList.sol\":834:843  newTaskId */\n      dup3\n        /* \"TodoList.sol\":845:853  _content */\n      dup5\n        /* \"TodoList.sol\":855:860  false */\n      0x00\n        /* \"TodoList.sol\":810:861  TaskCreated(msg.sender, newTaskId, _content, false) */\n      mload(0x40)\n      tag_31\n      swap5\n      swap4\n      swap3\n      swap2\n      swap1\n      tag_32\n      jump\t// in\n    tag_31:\n      mload(0x40)\n      dup1\n      swap2\n      sub\n      swap1\n      log1\n        /* \"TodoList.sol\":629:869  {... */\n      pop\n        /* \"TodoList.sol\":578:869  function createTask(string memory _content) public {... */\n      pop\n      jump\t// out\n        /* \"TodoList.sol\":325:370  mapping(address => uint) public userTaskCount */\n    tag_14:\n      mstore(0x20, 0x02)\n      dup1\n      0x00\n      mstore\n      keccak256(0x00, 0x40)\n      0x00\n      swap2\n      pop\n      swap1\n      pop\n      sload\n      dup2\n      jump\t// out\n        /* \"TodoList.sol\":264:318  mapping(address => mapping(uint => Task)) public tasks */\n    tag_20:\n      mstore(0x20, 0x01)\n      dup2\n      0x00\n      mstore\n      mstore(0x20, keccak256(0x00, 0x40))\n      dup1\n      0x00\n      mstore\n      keccak256(0x00, 0x40)\n      0x00\n      swap2\n      pop\n      swap2\n      pop\n      pop\n      dup1\n      0x00\n      add\n      sload\n      swap1\n      dup1\n      0x01\n      add\n      dup1\n      sload\n      tag_33\n      swap1\n      tag_34\n      jump\t// in\n    tag_33:\n      dup1\n      0x1f\n      add\n      0x20\n      dup1\n      swap2\n      div\n      mul\n      0x20\n      add\n      mload(0x40)\n      swap1\n      dup2\n      add\n      0x40\n      mstore\n      dup1\n      swap3\n      swap2\n      swap1\n      dup2\n      dup2\n      mstore\n      0x20\n      add\n      dup3\n      dup1\n      sload\n      tag_35\n      swap1\n      tag_34\n      jump\t// in\n    tag_35:\n      dup1\n      iszero\n      tag_36\n      jumpi\n      dup1\n      0x1f\n      lt\n      tag_37\n      jumpi\n      0x0100\n      dup1\n      dup4\n      sload\n      div\n      mul\n      dup4\n      mstore\n      swap2\n      0x20\n      add\n      swap2\n      jump(tag_36)\n    tag_37:\n      dup3\n      add\n      swap2\n      swap1\n      0x00\n      mstore\n      keccak256(0x00, 0x20)\n      swap1\n    tag_38:\n      dup2\n      sload\n      dup2\n      mstore\n      swap1\n      0x01\n      add\n      swap1\n      0x20\n      add\n      dup1\n      dup4\n      gt\n      tag_38\n      jumpi\n      dup3\n      swap1\n      sub\n      0x1f\n      and\n      dup3\n      add\n      swap2\n    tag_36:\n      pop\n      pop\n      pop\n      pop\n      pop\n      swap1\n      dup1\n      0x02\n      add\n      0x00\n      swap1\n      sload\n      swap1\n      0x0100\n      exp\n      swap1\n      div\n      0xff\n      and\n      swap1\n      pop\n      dup4\n      jump\t// out\n        /* \"TodoList.sol\":85:110  uint public taskCount = 0 */\n    tag_24:\n      sload(0x00)\n      dup2\n      jump\t// out\n        /* \"#utility.yul\":7:82   */\n    tag_39:\n        /* \"#utility.yul\":40:46   */\n      0x00\n        /* \"#utility.yul\":73:75   */\n      0x40\n        /* \"#utility.yul\":67:76   */\n      mload\n        /* \"#utility.yul\":57:76   */\n      swap1\n      pop\n        /* \"#utility.yul\":7:82   */\n      swap1\n      jump\t// out\n        /* \"#utility.yul\":88:205   */\n    tag_40:\n        /* \"#utility.yul\":197:198   */\n      0x00\n        /* \"#utility.yul\":194:195   */\n      dup1\n        /* \"#utility.yul\":187:199   */\n      revert\n        /* \"#utility.yul\":211:328   */\n    tag_41:\n        /* \"#utility.yul\":320:321   */\n      0x00\n        /* \"#utility.yul\":317:318   */\n      dup1\n        /* \"#utility.yul\":310:322   */\n      revert\n        /* \"#utility.yul\":334:451   */\n    tag_42:\n        /* \"#utility.yul\":443:444   */\n      0x00\n        /* \"#utility.yul\":440:441   */\n      dup1\n        /* \"#utility.yul\":433:445   */\n      revert\n        /* \"#utility.yul\":457:574   */\n    tag_43:\n        /* \"#utility.yul\":566:567   */\n      0x00\n        /* \"#utility.yul\":563:564   */\n      dup1\n        /* \"#utility.yul\":556:568   */\n      revert\n        /* \"#utility.yul\":580:682   */\n    tag_44:\n        /* \"#utility.yul\":621:627   */\n      0x00\n        /* \"#utility.yul\":672:674   */\n      0x1f\n        /* \"#utility.yul\":668:675   */\n      not\n        /* \"#utility.yul\":663:665   */\n      0x1f\n        /* \"#utility.yul\":656:661   */\n      dup4\n        /* \"#utility.yul\":652:666   */\n      add\n        /* \"#utility.yul\":648:676   */\n      and\n        /* \"#utility.yul\":638:676   */\n      swap1\n      pop\n        /* \"#utility.yul\":580:682   */\n      swap2\n      swap1\n      pop\n      jump\t// out\n        /* \"#utility.yul\":688:868   */\n    tag_45:\n        /* \"#utility.yul\":736:813   */\n      0x4e487b7100000000000000000000000000000000000000000000000000000000\n        /* \"#utility.yul\":733:734   */\n      0x00\n        /* \"#utility.yul\":726:814   */\n      mstore\n        /* \"#utility.yul\":833:837   */\n      0x41\n        /* \"#utility.yul\":830:831   */\n      0x04\n        /* \"#utility.yul\":823:838   */\n      mstore\n        /* \"#utility.yul\":857:861   */\n      0x24\n        /* \"#utility.yul\":854:855   */\n      0x00\n        /* \"#utility.yul\":847:862   */\n      revert\n        /* \"#utility.yul\":874:1155   */\n    tag_46:\n        /* \"#utility.yul\":957:984   */\n      tag_93\n        /* \"#utility.yul\":979:983   */\n      dup3\n        /* \"#utility.yul\":957:984   */\n      tag_44\n      jump\t// in\n    tag_93:\n        /* \"#utility.yul\":949:955   */\n      dup2\n        /* \"#utility.yul\":945:985   */\n      add\n        /* \"#utility.yul\":1087:1093   */\n      dup2\n        /* \"#utility.yul\":1075:1085   */\n      dup2\n        /* \"#utility.yul\":1072:1094   */\n      lt\n        /* \"#utility.yul\":1051:1069   */\n      0xffffffffffffffff\n        /* \"#utility.yul\":1039:1049   */\n      dup3\n        /* \"#utility.yul\":1036:1070   */\n      gt\n        /* \"#utility.yul\":1033:1095   */\n      or\n        /* \"#utility.yul\":1030:1118   */\n      iszero\n      tag_94\n      jumpi\n        /* \"#utility.yul\":1098:1116   */\n      tag_95\n      tag_45\n      jump\t// in\n    tag_95:\n        /* \"#utility.yul\":1030:1118   */\n    tag_94:\n        /* \"#utility.yul\":1138:1148   */\n      dup1\n        /* \"#utility.yul\":1134:1136   */\n      0x40\n        /* \"#utility.yul\":1127:1149   */\n      mstore\n        /* \"#utility.yul\":917:1155   */\n      pop\n        /* \"#utility.yul\":874:1155   */\n      pop\n      pop\n      jump\t// out\n        /* \"#utility.yul\":1161:1290   */\n    tag_47:\n        /* \"#utility.yul\":1195:1201   */\n      0x00\n        /* \"#utility.yul\":1222:1242   */\n      tag_97\n      tag_39\n      jump\t// in\n    tag_97:\n        /* \"#utility.yul\":1212:1242   */\n      swap1\n      pop\n        /* \"#utility.yul\":1251:1284   */\n      tag_98\n        /* \"#utility.yul\":1279:1283   */\n      dup3\n        /* \"#utility.yul\":1271:1277   */\n      dup3\n        /* \"#utility.yul\":1251:1284   */\n      tag_46\n      jump\t// in\n    tag_98:\n        /* \"#utility.yul\":1161:1290   */\n      swap2\n      swap1\n      pop\n      jump\t// out\n        /* \"#utility.yul\":1296:1604   */\n    tag_48:\n        /* \"#utility.yul\":1358:1362   */\n      0x00\n        /* \"#utility.yul\":1448:1466   */\n      0xffffffffffffffff\n        /* \"#utility.yul\":1440:1446   */\n      dup3\n        /* \"#utility.yul\":1437:1467   */\n      gt\n        /* \"#utility.yul\":1434:1490   */\n      iszero\n      tag_100\n      jumpi\n        /* \"#utility.yul\":1470:1488   */\n      tag_101\n      tag_45\n      jump\t// in\n    tag_101:\n        /* \"#utility.yul\":1434:1490   */\n    tag_100:\n        /* \"#utility.yul\":1508:1537   */\n      tag_102\n        /* \"#utility.yul\":1530:1536   */\n      dup3\n        /* \"#utility.yul\":1508:1537   */\n      tag_44\n      jump\t// in\n    tag_102:\n        /* \"#utility.yul\":1500:1537   */\n      swap1\n      pop\n        /* \"#utility.yul\":1592:1596   */\n      0x20\n        /* \"#utility.yul\":1586:1590   */\n      dup2\n        /* \"#utility.yul\":1582:1597   */\n      add\n        /* \"#utility.yul\":1574:1597   */\n      swap1\n      pop\n        /* \"#utility.yul\":1296:1604   */\n      swap2\n      swap1\n      pop\n      jump\t// out\n        /* \"#utility.yul\":1610:1758   */\n    tag_49:\n        /* \"#utility.yul\":1708:1714   */\n      dup3\n        /* \"#utility.yul\":1703:1706   */\n      dup2\n        /* \"#utility.yul\":1698:1701   */\n      dup4\n        /* \"#utility.yul\":1685:1715   */\n      calldatacopy\n        /* \"#utility.yul\":1749:1750   */\n      0x00\n        /* \"#utility.yul\":1740:1746   */\n      dup4\n        /* \"#utility.yul\":1735:1738   */\n      dup4\n        /* \"#utility.yul\":1731:1747   */\n      add\n        /* \"#utility.yul\":1724:1751   */\n      mstore\n        /* \"#utility.yul\":1610:1758   */\n      pop\n      pop\n      pop\n      jump\t// out\n        /* \"#utility.yul\":1764:2189   */\n    tag_50:\n        /* \"#utility.yul\":1842:1847   */\n      0x00\n        /* \"#utility.yul\":1867:1933   */\n      tag_105\n        /* \"#utility.yul\":1883:1932   */\n      tag_106\n        /* \"#utility.yul\":1925:1931   */\n      dup5\n        /* \"#utility.yul\":1883:1932   */\n      tag_48\n      jump\t// in\n    tag_106:\n        /* \"#utility.yul\":1867:1933   */\n      tag_47\n      jump\t// in\n    tag_105:\n        /* \"#utility.yul\":1858:1933   */\n      swap1\n      pop\n        /* \"#utility.yul\":1956:1962   */\n      dup3\n        /* \"#utility.yul\":1949:1954   */\n      dup2\n        /* \"#utility.yul\":1942:1963   */\n      mstore\n        /* \"#utility.yul\":1994:1998   */\n      0x20\n        /* \"#utility.yul\":1987:1992   */\n      dup2\n        /* \"#utility.yul\":1983:1999   */\n      add\n        /* \"#utility.yul\":2032:2035   */\n      dup5\n        /* \"#utility.yul\":2023:2029   */\n      dup5\n        /* \"#utility.yul\":2018:2021   */\n      dup5\n        /* \"#utility.yul\":2014:2030   */\n      add\n        /* \"#utility.yul\":2011:2036   */\n      gt\n        /* \"#utility.yul\":2008:2120   */\n      iszero\n      tag_107\n      jumpi\n        /* \"#utility.yul\":2039:2118   */\n      tag_108\n      tag_43\n      jump\t// in\n    tag_108:\n        /* \"#utility.yul\":2008:2120   */\n    tag_107:\n        /* \"#utility.yul\":2129:2183   */\n      tag_109\n        /* \"#utility.yul\":2176:2182   */\n      dup5\n        /* \"#utility.yul\":2171:2174   */\n      dup3\n        /* \"#utility.yul\":2166:2169   */\n      dup6\n        /* \"#utility.yul\":2129:2183   */\n      tag_49\n      jump\t// in\n    tag_109:\n        /* \"#utility.yul\":1848:2189   */\n      pop\n        /* \"#utility.yul\":1764:2189   */\n      swap4\n      swap3\n      pop\n      pop\n      pop\n      jump\t// out\n        /* \"#utility.yul\":2209:2549   */\n    tag_51:\n        /* \"#utility.yul\":2265:2270   */\n      0x00\n        /* \"#utility.yul\":2314:2317   */\n      dup3\n        /* \"#utility.yul\":2307:2311   */\n      0x1f\n        /* \"#utility.yul\":2299:2305   */\n      dup4\n        /* \"#utility.yul\":2295:2312   */\n      add\n        /* \"#utility.yul\":2291:2318   */\n      slt\n        /* \"#utility.yul\":2281:2403   */\n      tag_111\n      jumpi\n        /* \"#utility.yul\":2322:2401   */\n      tag_112\n      tag_42\n      jump\t// in\n    tag_112:\n        /* \"#utility.yul\":2281:2403   */\n    tag_111:\n        /* \"#utility.yul\":2439:2445   */\n      dup2\n        /* \"#utility.yul\":2426:2446   */\n      calldataload\n        /* \"#utility.yul\":2464:2543   */\n      tag_113\n        /* \"#utility.yul\":2539:2542   */\n      dup5\n        /* \"#utility.yul\":2531:2537   */\n      dup3\n        /* \"#utility.yul\":2524:2528   */\n      0x20\n        /* \"#utility.yul\":2516:2522   */\n      dup7\n        /* \"#utility.yul\":2512:2529   */\n      add\n        /* \"#utility.yul\":2464:2543   */\n      tag_50\n      jump\t// in\n    tag_113:\n        /* \"#utility.yul\":2455:2543   */\n      swap2\n      pop\n        /* \"#utility.yul\":2271:2549   */\n      pop\n        /* \"#utility.yul\":2209:2549   */\n      swap3\n      swap2\n      pop\n      pop\n      jump\t// out\n        /* \"#utility.yul\":2555:3064   */\n    tag_9:\n        /* \"#utility.yul\":2624:2630   */\n      0x00\n        /* \"#utility.yul\":2673:2675   */\n      0x20\n        /* \"#utility.yul\":2661:2670   */\n      dup3\n        /* \"#utility.yul\":2652:2659   */\n      dup5\n        /* \"#utility.yul\":2648:2671   */\n      sub\n        /* \"#utility.yul\":2644:2676   */\n      slt\n        /* \"#utility.yul\":2641:2760   */\n      iszero\n      tag_115\n      jumpi\n        /* \"#utility.yul\":2679:2758   */\n      tag_116\n      tag_40\n      jump\t// in\n    tag_116:\n        /* \"#utility.yul\":2641:2760   */\n    tag_115:\n        /* \"#utility.yul\":2827:2828   */\n      0x00\n        /* \"#utility.yul\":2816:2825   */\n      dup3\n        /* \"#utility.yul\":2812:2829   */\n      add\n        /* \"#utility.yul\":2799:2830   */\n      calldataload\n        /* \"#utility.yul\":2857:2875   */\n      0xffffffffffffffff\n        /* \"#utility.yul\":2849:2855   */\n      dup2\n        /* \"#utility.yul\":2846:2876   */\n      gt\n        /* \"#utility.yul\":2843:2960   */\n      iszero\n      tag_117\n      jumpi\n        /* \"#utility.yul\":2879:2958   */\n      tag_118\n      tag_41\n      jump\t// in\n    tag_118:\n        /* \"#utility.yul\":2843:2960   */\n    tag_117:\n        /* \"#utility.yul\":2984:3047   */\n      tag_119\n        /* \"#utility.yul\":3039:3046   */\n      dup5\n        /* \"#utility.yul\":3030:3036   */\n      dup3\n        /* \"#utility.yul\":3019:3028   */\n      dup6\n        /* \"#utility.yul\":3015:3037   */\n      add\n        /* \"#utility.yul\":2984:3047   */\n      tag_51\n      jump\t// in\n    tag_119:\n        /* \"#utility.yul\":2974:3047   */\n      swap2\n      pop\n        /* \"#utility.yul\":2770:3057   */\n      pop\n        /* \"#utility.yul\":2555:3064   */\n      swap3\n      swap2\n      pop\n      pop\n      jump\t// out\n        /* \"#utility.yul\":3070:3196   */\n    tag_52:\n        /* \"#utility.yul\":3107:3114   */\n      0x00\n        /* \"#utility.yul\":3147:3189   */\n      0xffffffffffffffffffffffffffffffffffffffff\n        /* \"#utility.yul\":3140:3145   */\n      dup3\n        /* \"#utility.yul\":3136:3190   */\n      and\n        /* \"#utility.yul\":3125:3190   */\n      swap1\n      pop\n        /* \"#utility.yul\":3070:3196   */\n      swap2\n      swap1\n      pop\n      jump\t// out\n        /* \"#utility.yul\":3202:3298   */\n    tag_53:\n        /* \"#utility.yul\":3239:3246   */\n      0x00\n        /* \"#utility.yul\":3268:3292   */\n      tag_122\n        /* \"#utility.yul\":3286:3291   */\n      dup3\n        /* \"#utility.yul\":3268:3292   */\n      tag_52\n      jump\t// in\n    tag_122:\n        /* \"#utility.yul\":3257:3292   */\n      swap1\n      pop\n        /* \"#utility.yul\":3202:3298   */\n      swap2\n      swap1\n      pop\n      jump\t// out\n        /* \"#utility.yul\":3304:3426   */\n    tag_54:\n        /* \"#utility.yul\":3377:3401   */\n      tag_124\n        /* \"#utility.yul\":3395:3400   */\n      dup2\n        /* \"#utility.yul\":3377:3401   */\n      tag_53\n      jump\t// in\n    tag_124:\n        /* \"#utility.yul\":3370:3375   */\n      dup2\n        /* \"#utility.yul\":3367:3402   */\n      eq\n        /* \"#utility.yul\":3357:3420   */\n      tag_125\n      jumpi\n        /* \"#utility.yul\":3416:3417   */\n      0x00\n        /* \"#utility.yul\":3413:3414   */\n      dup1\n        /* \"#utility.yul\":3406:3418   */\n      revert\n        /* \"#utility.yul\":3357:3420   */\n    tag_125:\n        /* \"#utility.yul\":3304:3426   */\n      pop\n      jump\t// out\n        /* \"#utility.yul\":3432:3571   */\n    tag_55:\n        /* \"#utility.yul\":3478:3483   */\n      0x00\n        /* \"#utility.yul\":3516:3522   */\n      dup2\n        /* \"#utility.yul\":3503:3523   */\n      calldataload\n        /* \"#utility.yul\":3494:3523   */\n      swap1\n      pop\n        /* \"#utility.yul\":3532:3565   */\n      tag_127\n        /* \"#utility.yul\":3559:3564   */\n      dup2\n        /* \"#utility.yul\":3532:3565   */\n      tag_54\n      jump\t// in\n    tag_127:\n        /* \"#utility.yul\":3432:3571   */\n      swap3\n      swap2\n      pop\n      pop\n      jump\t// out\n        /* \"#utility.yul\":3577:3906   */\n    tag_13:\n        /* \"#utility.yul\":3636:3642   */\n      0x00\n        /* \"#utility.yul\":3685:3687   */\n      0x20\n        /* \"#utility.yul\":3673:3682   */\n      dup3\n        /* \"#utility.yul\":3664:3671   */\n      dup5\n        /* \"#utility.yul\":3660:3683   */\n      sub\n        /* \"#utility.yul\":3656:3688   */\n      slt\n        /* \"#utility.yul\":3653:3772   */\n      iszero\n      tag_129\n      jumpi\n        /* \"#utility.yul\":3691:3770   */\n      tag_130\n      tag_40\n      jump\t// in\n    tag_130:\n        /* \"#utility.yul\":3653:3772   */\n    tag_129:\n        /* \"#utility.yul\":3811:3812   */\n      0x00\n        /* \"#utility.yul\":3836:3889   */\n      tag_131\n        /* \"#utility.yul\":3881:3888   */\n      dup5\n        /* \"#utility.yul\":3872:3878   */\n      dup3\n        /* \"#utility.yul\":3861:3870   */\n      dup6\n        /* \"#utility.yul\":3857:3879   */\n      add\n        /* \"#utility.yul\":3836:3889   */\n      tag_55\n      jump\t// in\n    tag_131:\n        /* \"#utility.yul\":3826:3889   */\n      swap2\n      pop\n        /* \"#utility.yul\":3782:3899   */\n      pop\n        /* \"#utility.yul\":3577:3906   */\n      swap3\n      swap2\n      pop\n      pop\n      jump\t// out\n        /* \"#utility.yul\":3912:3989   */\n    tag_56:\n        /* \"#utility.yul\":3949:3956   */\n      0x00\n        /* \"#utility.yul\":3978:3983   */\n      dup2\n        /* \"#utility.yul\":3967:3983   */\n      swap1\n      pop\n        /* \"#utility.yul\":3912:3989   */\n      swap2\n      swap1\n      pop\n      jump\t// out\n        /* \"#utility.yul\":3995:4113   */\n    tag_57:\n        /* \"#utility.yul\":4082:4106   */\n      tag_134\n        /* \"#utility.yul\":4100:4105   */\n      dup2\n        /* \"#utility.yul\":4082:4106   */\n      tag_56\n      jump\t// in\n    tag_134:\n        /* \"#utility.yul\":4077:4080   */\n      dup3\n        /* \"#utility.yul\":4070:4107   */\n      mstore\n        /* \"#utility.yul\":3995:4113   */\n      pop\n      pop\n      jump\t// out\n        /* \"#utility.yul\":4119:4341   */\n    tag_16:\n        /* \"#utility.yul\":4212:4216   */\n      0x00\n        /* \"#utility.yul\":4250:4252   */\n      0x20\n        /* \"#utility.yul\":4239:4248   */\n      dup3\n        /* \"#utility.yul\":4235:4253   */\n      add\n        /* \"#utility.yul\":4227:4253   */\n      swap1\n      pop\n        /* \"#utility.yul\":4263:4334   */\n      tag_136\n        /* \"#utility.yul\":4331:4332   */\n      0x00\n        /* \"#utility.yul\":4320:4329   */\n      dup4\n        /* \"#utility.yul\":4316:4333   */\n      add\n        /* \"#utility.yul\":4307:4313   */\n      dup5\n        /* \"#utility.yul\":4263:4334   */\n      tag_57\n      jump\t// in\n    tag_136:\n        /* \"#utility.yul\":4119:4341   */\n      swap3\n      swap2\n      pop\n      pop\n      jump\t// out\n        /* \"#utility.yul\":4347:4469   */\n    tag_58:\n        /* \"#utility.yul\":4420:4444   */\n      tag_138\n        /* \"#utility.yul\":4438:4443   */\n      dup2\n        /* \"#utility.yul\":4420:4444   */\n      tag_56\n      jump\t// in\n    tag_138:\n        /* \"#utility.yul\":4413:4418   */\n      dup2\n        /* \"#utility.yul\":4410:4445   */\n      eq\n        /* \"#utility.yul\":4400:4463   */\n      tag_139\n      jumpi\n        /* \"#utility.yul\":4459:4460   */\n      0x00\n        /* \"#utility.yul\":4456:4457   */\n      dup1\n        /* \"#utility.yul\":4449:4461   */\n      revert\n        /* \"#utility.yul\":4400:4463   */\n    tag_139:\n        /* \"#utility.yul\":4347:4469   */\n      pop\n      jump\t// out\n        /* \"#utility.yul\":4475:4614   */\n    tag_59:\n        /* \"#utility.yul\":4521:4526   */\n      0x00\n        /* \"#utility.yul\":4559:4565   */\n      dup2\n        /* \"#utility.yul\":4546:4566   */\n      calldataload\n        /* \"#utility.yul\":4537:4566   */\n      swap1\n      pop\n        /* \"#utility.yul\":4575:4608   */\n      tag_141\n        /* \"#utility.yul\":4602:4607   */\n      dup2\n        /* \"#utility.yul\":4575:4608   */\n      tag_58\n      jump\t// in\n    tag_141:\n        /* \"#utility.yul\":4475:4614   */\n      swap3\n      swap2\n      pop\n      pop\n      jump\t// out\n        /* \"#utility.yul\":4620:5094   */\n    tag_19:\n        /* \"#utility.yul\":4688:4694   */\n      0x00\n        /* \"#utility.yul\":4696:4702   */\n      dup1\n        /* \"#utility.yul\":4745:4747   */\n      0x40\n        /* \"#utility.yul\":4733:4742   */\n      dup4\n        /* \"#utility.yul\":4724:4731   */\n      dup6\n        /* \"#utility.yul\":4720:4743   */\n      sub\n        /* \"#utility.yul\":4716:4748   */\n      slt\n        /* \"#utility.yul\":4713:4832   */\n      iszero\n      tag_143\n      jumpi\n        /* \"#utility.yul\":4751:4830   */\n      tag_144\n      tag_40\n      jump\t// in\n    tag_144:\n        /* \"#utility.yul\":4713:4832   */\n    tag_143:\n        /* \"#utility.yul\":4871:4872   */\n      0x00\n        /* \"#utility.yul\":4896:4949   */\n      tag_145\n        /* \"#utility.yul\":4941:4948   */\n      dup6\n        /* \"#utility.yul\":4932:4938   */\n      dup3\n        /* \"#utility.yul\":4921:4930   */\n      dup7\n        /* \"#utility.yul\":4917:4939   */\n      add\n        /* \"#utility.yul\":4896:4949   */\n      tag_55\n      jump\t// in\n    tag_145:\n        /* \"#utility.yul\":4886:4949   */\n      swap3\n      pop\n        /* \"#utility.yul\":4842:4959   */\n      pop\n        /* \"#utility.yul\":4998:5000   */\n      0x20\n        /* \"#utility.yul\":5024:5077   */\n      tag_146\n        /* \"#utility.yul\":5069:5076   */\n      dup6\n        /* \"#utility.yul\":5060:5066   */\n      dup3\n        /* \"#utility.yul\":5049:5058   */\n      dup7\n        /* \"#utility.yul\":5045:5067   */\n      add\n        /* \"#utility.yul\":5024:5077   */\n      tag_59\n      jump\t// in\n    tag_146:\n        /* \"#utility.yul\":5014:5077   */\n      swap2\n      pop\n        /* \"#utility.yul\":4969:5087   */\n      pop\n        /* \"#utility.yul\":4620:5094   */\n      swap3\n      pop\n      swap3\n      swap1\n      pop\n      jump\t// out\n        /* \"#utility.yul\":5100:5199   */\n    tag_60:\n        /* \"#utility.yul\":5152:5158   */\n      0x00\n        /* \"#utility.yul\":5186:5191   */\n      dup2\n        /* \"#utility.yul\":5180:5192   */\n      mload\n        /* \"#utility.yul\":5170:5192   */\n      swap1\n      pop\n        /* \"#utility.yul\":5100:5199   */\n      swap2\n      swap1\n      pop\n      jump\t// out\n        /* \"#utility.yul\":5205:5374   */\n    tag_61:\n        /* \"#utility.yul\":5289:5300   */\n      0x00\n        /* \"#utility.yul\":5323:5329   */\n      dup3\n        /* \"#utility.yul\":5318:5321   */\n      dup3\n        /* \"#utility.yul\":5311:5330   */\n      mstore\n        /* \"#utility.yul\":5363:5367   */\n      0x20\n        /* \"#utility.yul\":5358:5361   */\n      dup3\n        /* \"#utility.yul\":5354:5368   */\n      add\n        /* \"#utility.yul\":5339:5368   */\n      swap1\n      pop\n        /* \"#utility.yul\":5205:5374   */\n      swap3\n      swap2\n      pop\n      pop\n      jump\t// out\n        /* \"#utility.yul\":5380:5519   */\n    tag_62:\n        /* \"#utility.yul\":5469:5475   */\n      dup3\n        /* \"#utility.yul\":5464:5467   */\n      dup2\n        /* \"#utility.yul\":5459:5462   */\n      dup4\n        /* \"#utility.yul\":5453:5476   */\n      mcopy\n        /* \"#utility.yul\":5510:5511   */\n      0x00\n        /* \"#utility.yul\":5501:5507   */\n      dup4\n        /* \"#utility.yul\":5496:5499   */\n      dup4\n        /* \"#utility.yul\":5492:5508   */\n      add\n        /* \"#utility.yul\":5485:5512   */\n      mstore\n        /* \"#utility.yul\":5380:5519   */\n      pop\n      pop\n      pop\n      jump\t// out\n        /* \"#utility.yul\":5525:5902   */\n    tag_63:\n        /* \"#utility.yul\":5613:5616   */\n      0x00\n        /* \"#utility.yul\":5641:5680   */\n      tag_151\n        /* \"#utility.yul\":5674:5679   */\n      dup3\n        /* \"#utility.yul\":5641:5680   */\n      tag_60\n      jump\t// in\n    tag_151:\n        /* \"#utility.yul\":5696:5767   */\n      tag_152\n        /* \"#utility.yul\":5760:5766   */\n      dup2\n        /* \"#utility.yul\":5755:5758   */\n      dup6\n        /* \"#utility.yul\":5696:5767   */\n      tag_61\n      jump\t// in\n    tag_152:\n        /* \"#utility.yul\":5689:5767   */\n      swap4\n      pop\n        /* \"#utility.yul\":5776:5841   */\n      tag_153\n        /* \"#utility.yul\":5834:5840   */\n      dup2\n        /* \"#utility.yul\":5829:5832   */\n      dup6\n        /* \"#utility.yul\":5822:5826   */\n      0x20\n        /* \"#utility.yul\":5815:5820   */\n      dup7\n        /* \"#utility.yul\":5811:5827   */\n      add\n        /* \"#utility.yul\":5776:5841   */\n      tag_62\n      jump\t// in\n    tag_153:\n        /* \"#utility.yul\":5866:5895   */\n      tag_154\n        /* \"#utility.yul\":5888:5894   */\n      dup2\n        /* \"#utility.yul\":5866:5895   */\n      tag_44\n      jump\t// in\n    tag_154:\n        /* \"#utility.yul\":5861:5864   */\n      dup5\n        /* \"#utility.yul\":5857:5896   */\n      add\n        /* \"#utility.yul\":5850:5896   */\n      swap2\n      pop\n        /* \"#utility.yul\":5617:5902   */\n      pop\n        /* \"#utility.yul\":5525:5902   */\n      swap3\n      swap2\n      pop\n      pop\n      jump\t// out\n        /* \"#utility.yul\":5908:5998   */\n    tag_64:\n        /* \"#utility.yul\":5942:5949   */\n      0x00\n        /* \"#utility.yul\":5985:5990   */\n      dup2\n        /* \"#utility.yul\":5978:5991   */\n      iszero\n        /* \"#utility.yul\":5971:5992   */\n      iszero\n        /* \"#utility.yul\":5960:5992   */\n      swap1\n      pop\n        /* \"#utility.yul\":5908:5998   */\n      swap2\n      swap1\n      pop\n      jump\t// out\n        /* \"#utility.yul\":6004:6113   */\n    tag_65:\n        /* \"#utility.yul\":6085:6106   */\n      tag_157\n        /* \"#utility.yul\":6100:6105   */\n      dup2\n        /* \"#utility.yul\":6085:6106   */\n      tag_64\n      jump\t// in\n    tag_157:\n        /* \"#utility.yul\":6080:6083   */\n      dup3\n        /* \"#utility.yul\":6073:6107   */\n      mstore\n        /* \"#utility.yul\":6004:6113   */\n      pop\n      pop\n      jump\t// out\n        /* \"#utility.yul\":6119:6640   */\n    tag_22:\n        /* \"#utility.yul\":6282:6286   */\n      0x00\n        /* \"#utility.yul\":6320:6322   */\n      0x60\n        /* \"#utility.yul\":6309:6318   */\n      dup3\n        /* \"#utility.yul\":6305:6323   */\n      add\n        /* \"#utility.yul\":6297:6323   */\n      swap1\n      pop\n        /* \"#utility.yul\":6333:6404   */\n      tag_159\n        /* \"#utility.yul\":6401:6402   */\n      0x00\n        /* \"#utility.yul\":6390:6399   */\n      dup4\n        /* \"#utility.yul\":6386:6403   */\n      add\n        /* \"#utility.yul\":6377:6383   */\n      dup7\n        /* \"#utility.yul\":6333:6404   */\n      tag_57\n      jump\t// in\n    tag_159:\n        /* \"#utility.yul\":6451:6460   */\n      dup2\n        /* \"#utility.yul\":6445:6449   */\n      dup2\n        /* \"#utility.yul\":6441:6461   */\n      sub\n        /* \"#utility.yul\":6436:6438   */\n      0x20\n        /* \"#utility.yul\":6425:6434   */\n      dup4\n        /* \"#utility.yul\":6421:6439   */\n      add\n        /* \"#utility.yul\":6414:6462   */\n      mstore\n        /* \"#utility.yul\":6479:6557   */\n      tag_160\n        /* \"#utility.yul\":6552:6556   */\n      dup2\n        /* \"#utility.yul\":6543:6549   */\n      dup6\n        /* \"#utility.yul\":6479:6557   */\n      tag_63\n      jump\t// in\n    tag_160:\n        /* \"#utility.yul\":6471:6557   */\n      swap1\n      pop\n        /* \"#utility.yul\":6567:6633   */\n      tag_161\n        /* \"#utility.yul\":6629:6631   */\n      0x40\n        /* \"#utility.yul\":6618:6627   */\n      dup4\n        /* \"#utility.yul\":6614:6632   */\n      add\n        /* \"#utility.yul\":6605:6611   */\n      dup5\n        /* \"#utility.yul\":6567:6633   */\n      tag_65\n      jump\t// in\n    tag_161:\n        /* \"#utility.yul\":6119:6640   */\n      swap5\n      swap4\n      pop\n      pop\n      pop\n      pop\n      jump\t// out\n        /* \"#utility.yul\":6646:6826   */\n    tag_66:\n        /* \"#utility.yul\":6694:6771   */\n      0x4e487b7100000000000000000000000000000000000000000000000000000000\n        /* \"#utility.yul\":6691:6692   */\n      0x00\n        /* \"#utility.yul\":6684:6772   */\n      mstore\n        /* \"#utility.yul\":6791:6795   */\n      0x11\n        /* \"#utility.yul\":6788:6789   */\n      0x04\n        /* \"#utility.yul\":6781:6796   */\n      mstore\n        /* \"#utility.yul\":6815:6819   */\n      0x24\n        /* \"#utility.yul\":6812:6813   */\n      0x00\n        /* \"#utility.yul\":6805:6820   */\n      revert\n        /* \"#utility.yul\":6832:7065   */\n    tag_28:\n        /* \"#utility.yul\":6871:6874   */\n      0x00\n        /* \"#utility.yul\":6894:6918   */\n      tag_164\n        /* \"#utility.yul\":6912:6917   */\n      dup3\n        /* \"#utility.yul\":6894:6918   */\n      tag_56\n      jump\t// in\n    tag_164:\n        /* \"#utility.yul\":6885:6918   */\n      swap2\n      pop\n        /* \"#utility.yul\":6940:7006   */\n      0xffffffffffffffffffffffffffffffffffffffffffffffffffffffffffffffff\n        /* \"#utility.yul\":6933:6938   */\n      dup3\n        /* \"#utility.yul\":6930:7007   */\n      sub\n        /* \"#utility.yul\":6927:7030   */\n      tag_165\n      jumpi\n        /* \"#utility.yul\":7010:7028   */\n      tag_166\n      tag_66\n      jump\t// in\n    tag_166:\n        /* \"#utility.yul\":6927:7030   */\n    tag_165:\n        /* \"#utility.yul\":7057:7058   */\n      0x01\n        /* \"#utility.yul\":7050:7055   */\n      dup3\n        /* \"#utility.yul\":7046:7059   */\n      add\n        /* \"#utility.yul\":7039:7059   */\n      swap1\n      pop\n        /* \"#utility.yul\":6832:7065   */\n      swap2\n      swap1\n      pop\n      jump\t// out\n        /* \"#utility.yul\":7071:7251   */\n    tag_67:\n        /* \"#utility.yul\":7119:7196   */\n      0x4e487b7100000000000000000000000000000000000000000000000000000000\n        /* \"#utility.yul\":7116:7117   */\n      0x00\n        /* \"#utility.yul\":7109:7197   */\n      mstore\n        /* \"#utility.yul\":7216:7220   */\n      0x22\n        /* \"#utility.yul\":7213:7214   */\n      0x04\n        /* \"#utility.yul\":7206:7221   */\n      mstore\n        /* \"#utility.yul\":7240:7244   */\n      0x24\n        /* \"#utility.yul\":7237:7238   */\n      0x00\n        /* \"#utility.yul\":7230:7245   */\n      revert\n        /* \"#utility.yul\":7257:7577   */\n    tag_34:\n        /* \"#utility.yul\":7301:7307   */\n      0x00\n        /* \"#utility.yul\":7338:7339   */\n      0x02\n        /* \"#utility.yul\":7332:7336   */\n      dup3\n        /* \"#utility.yul\":7328:7340   */\n      div\n        /* \"#utility.yul\":7318:7340   */\n      swap1\n      pop\n        /* \"#utility.yul\":7385:7386   */\n      0x01\n        /* \"#utility.yul\":7379:7383   */\n      dup3\n        /* \"#utility.yul\":7375:7387   */\n      and\n        /* \"#utility.yul\":7406:7424   */\n      dup1\n        /* \"#utility.yul\":7396:7477   */\n      tag_169\n      jumpi\n        /* \"#utility.yul\":7462:7466   */\n      0x7f\n        /* \"#utility.yul\":7454:7460   */\n      dup3\n        /* \"#utility.yul\":7450:7467   */\n      and\n        /* \"#utility.yul\":7440:7467   */\n      swap2\n      pop\n        /* \"#utility.yul\":7396:7477   */\n    tag_169:\n        /* \"#utility.yul\":7524:7526   */\n      0x20\n        /* \"#utility.yul\":7516:7522   */\n      dup3\n        /* \"#utility.yul\":7513:7527   */\n      lt\n        /* \"#utility.yul\":7493:7511   */\n      dup2\n        /* \"#utility.yul\":7490:7528   */\n      sub\n        /* \"#utility.yul\":7487:7571   */\n      tag_170\n      jumpi\n        /* \"#utility.yul\":7543:7561   */\n      tag_171\n      tag_67\n      jump\t// in\n    tag_171:\n        /* \"#utility.yul\":7487:7571   */\n    tag_170:\n        /* \"#utility.yul\":7308:7577   */\n      pop\n        /* \"#utility.yul\":7257:7577   */\n      swap2\n      swap1\n      pop\n      jump\t// out\n        /* \"#utility.yul\":7583:7724   */\n    tag_68:\n        /* \"#utility.yul\":7632:7636   */\n      0x00\n        /* \"#utility.yul\":7655:7658   */\n      dup2\n        /* \"#utility.yul\":7647:7658   */\n      swap1\n      pop\n        /* \"#utility.yul\":7678:7681   */\n      dup2\n        /* \"#utility.yul\":7675:7676   */\n      0x00\n        /* \"#utility.yul\":7668:7682   */\n      mstore\n        /* \"#utility.yul\":7712:7716   */\n      0x20\n        /* \"#utility.yul\":7709:7710   */\n      0x00\n        /* \"#utility.yul\":7699:7717   */\n      keccak256\n        /* \"#utility.yul\":7691:7717   */\n      swap1\n      pop\n        /* \"#utility.yul\":7583:7724   */\n      swap2\n      swap1\n      pop\n      jump\t// out\n        /* \"#utility.yul\":7730:7823   */\n    tag_69:\n        /* \"#utility.yul\":7767:7773   */\n      0x00\n        /* \"#utility.yul\":7814:7816   */\n      0x20\n        /* \"#utility.yul\":7809:7811   */\n      0x1f\n        /* \"#utility.yul\":7802:7807   */\n      dup4\n        /* \"#utility.yul\":7798:7812   */\n      add\n        /* \"#utility.yul\":7794:7817   */\n      div\n        /* \"#utility.yul\":7784:7817   */\n      swap1\n      pop\n        /* \"#utility.yul\":7730:7823   */\n      swap2\n      swap1\n      pop\n      jump\t// out\n        /* \"#utility.yul\":7829:7936   */\n    tag_70:\n        /* \"#utility.yul\":7873:7881   */\n      0x00\n        /* \"#utility.yul\":7923:7928   */\n      dup3\n        /* \"#utility.yul\":7917:7921   */\n      dup3\n        /* \"#utility.yul\":7913:7929   */\n      shl\n        /* \"#utility.yul\":7892:7929   */\n      swap1\n      pop\n        /* \"#utility.yul\":7829:7936   */\n      swap3\n      swap2\n      pop\n      pop\n      jump\t// out\n        /* \"#utility.yul\":7942:8335   */\n    tag_71:\n        /* \"#utility.yul\":8011:8017   */\n      0x00\n        /* \"#utility.yul\":8061:8062   */\n      0x08\n        /* \"#utility.yul\":8049:8059   */\n      dup4\n        /* \"#utility.yul\":8045:8063   */\n      mul\n        /* \"#utility.yul\":8084:8181   */\n      tag_176\n        /* \"#utility.yul\":8114:8180   */\n      0xffffffffffffffffffffffffffffffffffffffffffffffffffffffffffffffff\n        /* \"#utility.yul\":8103:8112   */\n      dup3\n        /* \"#utility.yul\":8084:8181   */\n      tag_70\n      jump\t// in\n    tag_176:\n        /* \"#utility.yul\":8202:8241   */\n      tag_177\n        /* \"#utility.yul\":8232:8240   */\n      dup7\n        /* \"#utility.yul\":8221:8230   */\n      dup4\n        /* \"#utility.yul\":8202:8241   */\n      tag_70\n      jump\t// in\n    tag_177:\n        /* \"#utility.yul\":8190:8241   */\n      swap6\n      pop\n        /* \"#utility.yul\":8274:8278   */\n      dup1\n        /* \"#utility.yul\":8270:8279   */\n      not\n        /* \"#utility.yul\":8263:8268   */\n      dup5\n        /* \"#utility.yul\":8259:8280   */\n      and\n        /* \"#utility.yul\":8250:8280   */\n      swap4\n      pop\n        /* \"#utility.yul\":8323:8327   */\n      dup1\n        /* \"#utility.yul\":8313:8321   */\n      dup7\n        /* \"#utility.yul\":8309:8328   */\n      and\n        /* \"#utility.yul\":8302:8307   */\n      dup5\n        /* \"#utility.yul\":8299:8329   */\n      or\n        /* \"#utility.yul\":8289:8329   */\n      swap3\n      pop\n        /* \"#utility.yul\":8018:8335   */\n      pop\n      pop\n        /* \"#utility.yul\":7942:8335   */\n      swap4\n      swap3\n      pop\n      pop\n      pop\n      jump\t// out\n        /* \"#utility.yul\":8341:8401   */\n    tag_72:\n        /* \"#utility.yul\":8369:8372   */\n      0x00\n        /* \"#utility.yul\":8390:8395   */\n      dup2\n        /* \"#utility.yul\":8383:8395   */\n      swap1\n      pop\n        /* \"#utility.yul\":8341:8401   */\n      swap2\n      swap1\n      pop\n      jump\t// out\n        /* \"#utility.yul\":8407:8549   */\n    tag_73:\n        /* \"#utility.yul\":8457:8466   */\n      0x00\n        /* \"#utility.yul\":8490:8543   */\n      tag_180\n        /* \"#utility.yul\":8508:8542   */\n      tag_181\n        /* \"#utility.yul\":8517:8541   */\n      tag_182\n        /* \"#utility.yul\":8535:8540   */\n      dup5\n        /* \"#utility.yul\":8517:8541   */\n      tag_56\n      jump\t// in\n    tag_182:\n        /* \"#utility.yul\":8508:8542   */\n      tag_72\n      jump\t// in\n    tag_181:\n        /* \"#utility.yul\":8490:8543   */\n      tag_56\n      jump\t// in\n    tag_180:\n        /* \"#utility.yul\":8477:8543   */\n      swap1\n      pop\n        /* \"#utility.yul\":8407:8549   */\n      swap2\n      swap1\n      pop\n      jump\t// out\n        /* \"#utility.yul\":8555:8630   */\n    tag_74:\n        /* \"#utility.yul\":8598:8601   */\n      0x00\n        /* \"#utility.yul\":8619:8624   */\n      dup2\n        /* \"#utility.yul\":8612:8624   */\n      swap1\n      pop\n        /* \"#utility.yul\":8555:8630   */\n      swap2\n      swap1\n      pop\n      jump\t// out\n        /* \"#utility.yul\":8636:8905   */\n    tag_75:\n        /* \"#utility.yul\":8746:8785   */\n      tag_185\n        /* \"#utility.yul\":8777:8784   */\n      dup4\n        /* \"#utility.yul\":8746:8785   */\n      tag_73\n      jump\t// in\n    tag_185:\n        /* \"#utility.yul\":8807:8898   */\n      tag_186\n        /* \"#utility.yul\":8856:8897   */\n      tag_187\n        /* \"#utility.yul\":8880:8896   */\n      dup3\n        /* \"#utility.yul\":8856:8897   */\n      tag_74\n      jump\t// in\n    tag_187:\n        /* \"#utility.yul\":8848:8854   */\n      dup5\n        /* \"#utility.yul\":8841:8845   */\n      dup5\n        /* \"#utility.yul\":8835:8846   */\n      sload\n        /* \"#utility.yul\":8807:8898   */\n      tag_71\n      jump\t// in\n    tag_186:\n        /* \"#utility.yul\":8801:8805   */\n      dup3\n        /* \"#utility.yul\":8794:8899   */\n      sstore\n        /* \"#utility.yul\":8712:8905   */\n      pop\n        /* \"#utility.yul\":8636:8905   */\n      pop\n      pop\n      pop\n      jump\t// out\n        /* \"#utility.yul\":8911:8984   */\n    tag_76:\n        /* \"#utility.yul\":8956:8959   */\n      0x00\n        /* \"#utility.yul\":8911:8984   */\n      swap1\n      jump\t// out\n        /* \"#utility.yul\":8990:9179   */\n    tag_77:\n        /* \"#utility.yul\":9067:9099   */\n      tag_190\n      tag_76\n      jump\t// in\n    tag_190:\n        /* \"#utility.yul\":9108:9173   */\n      tag_191\n        /* \"#utility.yul\":9166:9172   */\n      dup2\n        /* \"#utility.yul\":9158:9164   */\n      dup5\n        /* \"#utility.yul\":9152:9156   */\n      dup5\n        /* \"#utility.yul\":9108:9173   */\n      tag_75\n      jump\t// in\n    tag_191:\n        /* \"#utility.yul\":9043:9179   */\n      pop\n        /* \"#utility.yul\":8990:9179   */\n      pop\n      pop\n      jump\t// out\n        /* \"#utility.yul\":9185:9371   */\n    tag_78:\n        /* \"#utility.yul\":9245:9365   */\n    tag_193:\n        /* \"#utility.yul\":9262:9265   */\n      dup2\n        /* \"#utility.yul\":9255:9260   */\n      dup2\n        /* \"#utility.yul\":9252:9266   */\n      lt\n        /* \"#utility.yul\":9245:9365   */\n      iszero\n      tag_195\n      jumpi\n        /* \"#utility.yul\":9316:9355   */\n      tag_196\n        /* \"#utility.yul\":9353:9354   */\n      0x00\n        /* \"#utility.yul\":9346:9351   */\n      dup3\n        /* \"#utility.yul\":9316:9355   */\n      tag_77\n      jump\t// in\n    tag_196:\n        /* \"#utility.yul\":9289:9290   */\n      0x01\n        /* \"#utility.yul\":9282:9287   */\n      dup2\n        /* \"#utility.yul\":9278:9291   */\n      add\n        /* \"#utility.yul\":9269:9291   */\n      swap1\n      pop\n        /* \"#utility.yul\":9245:9365   */\n      jump(tag_193)\n    tag_195:\n        /* \"#utility.yul\":9185:9371   */\n      pop\n      pop\n      jump\t// out\n        /* \"#utility.yul\":9377:9920   */\n    tag_79:\n        /* \"#utility.yul\":9478:9480   */\n      0x1f\n        /* \"#utility.yul\":9473:9476   */\n      dup3\n        /* \"#utility.yul\":9470:9481   */\n      gt\n        /* \"#utility.yul\":9467:9913   */\n      iszero\n      tag_198\n      jumpi\n        /* \"#utility.yul\":9512:9550   */\n      tag_199\n        /* \"#utility.yul\":9544:9549   */\n      dup2\n        /* \"#utility.yul\":9512:9550   */\n      tag_68\n      jump\t// in\n    tag_199:\n        /* \"#utility.yul\":9596:9625   */\n      tag_200\n        /* \"#utility.yul\":9614:9624   */\n      dup5\n        /* \"#utility.yul\":9596:9625   */\n      tag_69\n      jump\t// in\n    tag_200:\n        /* \"#utility.yul\":9586:9594   */\n      dup2\n        /* \"#utility.yul\":9582:9626   */\n      add\n        /* \"#utility.yul\":9779:9781   */\n      0x20\n        /* \"#utility.yul\":9767:9777   */\n      dup6\n        /* \"#utility.yul\":9764:9782   */\n      lt\n        /* \"#utility.yul\":9761:9810   */\n      iszero\n      tag_201\n      jumpi\n        /* \"#utility.yul\":9800:9808   */\n      dup2\n        /* \"#utility.yul\":9785:9808   */\n      swap1\n      pop\n        /* \"#utility.yul\":9761:9810   */\n    tag_201:\n        /* \"#utility.yul\":9823:9903   */\n      tag_202\n        /* \"#utility.yul\":9879:9901   */\n      tag_203\n        /* \"#utility.yul\":9897:9900   */\n      dup6\n        /* \"#utility.yul\":9879:9901   */\n      tag_69\n      jump\t// in\n    tag_203:\n        /* \"#utility.yul\":9869:9877   */\n      dup4\n        /* \"#utility.yul\":9865:9902   */\n      add\n        /* \"#utility.yul\":9852:9863   */\n      dup3\n        /* \"#utility.yul\":9823:9903   */\n      tag_78\n      jump\t// in\n    tag_202:\n        /* \"#utility.yul\":9482:9913   */\n      pop\n      pop\n        /* \"#utility.yul\":9467:9913   */\n    tag_198:\n        /* \"#utility.yul\":9377:9920   */\n      pop\n      pop\n      pop\n      jump\t// out\n        /* \"#utility.yul\":9926:10043   */\n    tag_80:\n        /* \"#utility.yul\":9980:9988   */\n      0x00\n        /* \"#utility.yul\":10030:10035   */\n      dup3\n        /* \"#utility.yul\":10024:10028   */\n      dup3\n        /* \"#utility.yul\":10020:10036   */\n      shr\n        /* \"#utility.yul\":9999:10036   */\n      swap1\n      pop\n        /* \"#utility.yul\":9926:10043   */\n      swap3\n      swap2\n      pop\n      pop\n      jump\t// out\n        /* \"#utility.yul\":10049:10218   */\n    tag_81:\n        /* \"#utility.yul\":10093:10099   */\n      0x00\n        /* \"#utility.yul\":10126:10177   */\n      tag_206\n        /* \"#utility.yul\":10174:10175   */\n      0x00\n        /* \"#utility.yul\":10170:10176   */\n      not\n        /* \"#utility.yul\":10162:10167   */\n      dup5\n        /* \"#utility.yul\":10159:10160   */\n      0x08\n        /* \"#utility.yul\":10155:10168   */\n      mul\n        /* \"#utility.yul\":10126:10177   */\n      tag_80\n      jump\t// in\n    tag_206:\n        /* \"#utility.yul\":10122:10178   */\n      not\n        /* \"#utility.yul\":10207:10211   */\n      dup1\n        /* \"#utility.yul\":10201:10205   */\n      dup4\n        /* \"#utility.yul\":10197:10212   */\n      and\n        /* \"#utility.yul\":10187:10212   */\n      swap2\n      pop\n        /* \"#utility.yul\":10100:10218   */\n      pop\n        /* \"#utility.yul\":10049:10218   */\n      swap3\n      swap2\n      pop\n      pop\n      jump\t// out\n        /* \"#utility.yul\":10223:10518   */\n    tag_82:\n        /* \"#utility.yul\":10299:10303   */\n      0x00\n        /* \"#utility.yul\":10445:10474   */\n      tag_208\n        /* \"#utility.yul\":10470:10473   */\n      dup4\n        /* \"#utility.yul\":10464:10468   */\n      dup4\n        /* \"#utility.yul\":10445:10474   */\n      tag_81\n      jump\t// in\n    tag_208:\n        /* \"#utility.yul\":10437:10474   */\n      swap2\n      pop\n        /* \"#utility.yul\":10507:10510   */\n      dup3\n        /* \"#utility.yul\":10504:10505   */\n      0x02\n        /* \"#utility.yul\":10500:10511   */\n      mul\n        /* \"#utility.yul\":10494:10498   */\n      dup3\n        /* \"#utility.yul\":10491:10512   */\n      or\n        /* \"#utility.yul\":10483:10512   */\n      swap1\n      pop\n        /* \"#utility.yul\":10223:10518   */\n      swap3\n      swap2\n      pop\n      pop\n      jump\t// out\n        /* \"#utility.yul\":10523:11918   */\n    tag_30:\n        /* \"#utility.yul\":10640:10677   */\n      tag_210\n        /* \"#utility.yul\":10673:10676   */\n      dup3\n        /* \"#utility.yul\":10640:10677   */\n      tag_60\n      jump\t// in\n    tag_210:\n        /* \"#utility.yul\":10742:10760   */\n      0xffffffffffffffff\n        /* \"#utility.yul\":10734:10740   */\n      dup2\n        /* \"#utility.yul\":10731:10761   */\n      gt\n        /* \"#utility.yul\":10728:10784   */\n      iszero\n      tag_211\n      jumpi\n        /* \"#utility.yul\":10764:10782   */\n      tag_212\n      tag_45\n      jump\t// in\n    tag_212:\n        /* \"#utility.yul\":10728:10784   */\n    tag_211:\n        /* \"#utility.yul\":10808:10846   */\n      tag_213\n        /* \"#utility.yul\":10840:10844   */\n      dup3\n        /* \"#utility.yul\":10834:10845   */\n      sload\n        /* \"#utility.yul\":10808:10846   */\n      tag_34\n      jump\t// in\n    tag_213:\n        /* \"#utility.yul\":10893:10960   */\n      tag_214\n        /* \"#utility.yul\":10953:10959   */\n      dup3\n        /* \"#utility.yul\":10945:10951   */\n      dup3\n        /* \"#utility.yul\":10939:10943   */\n      dup6\n        /* \"#utility.yul\":10893:10960   */\n      tag_79\n      jump\t// in\n    tag_214:\n        /* \"#utility.yul\":10987:10988   */\n      0x00\n        /* \"#utility.yul\":11011:11015   */\n      0x20\n        /* \"#utility.yul\":10998:11015   */\n      swap1\n      pop\n        /* \"#utility.yul\":11043:11045   */\n      0x1f\n        /* \"#utility.yul\":11035:11041   */\n      dup4\n        /* \"#utility.yul\":11032:11046   */\n      gt\n        /* \"#utility.yul\":11060:11061   */\n      0x01\n        /* \"#utility.yul\":11055:11673   */\n      dup2\n      eq\n      tag_216\n      jumpi\n        /* \"#utility.yul\":11717:11718   */\n      0x00\n        /* \"#utility.yul\":11734:11740   */\n      dup5\n        /* \"#utility.yul\":11731:11808   */\n      iszero\n      tag_217\n      jumpi\n        /* \"#utility.yul\":11783:11792   */\n      dup3\n        /* \"#utility.yul\":11778:11781   */\n      dup8\n        /* \"#utility.yul\":11774:11793   */\n      add\n        /* \"#utility.yul\":11768:11794   */\n      mload\n        /* \"#utility.yul\":11759:11794   */\n      swap1\n      pop\n        /* \"#utility.yul\":11731:11808   */\n    tag_217:\n        /* \"#utility.yul\":11834:11901   */\n      tag_218\n        /* \"#utility.yul\":11894:11900   */\n      dup6\n        /* \"#utility.yul\":11887:11892   */\n      dup3\n        /* \"#utility.yul\":11834:11901   */\n      tag_82\n      jump\t// in\n    tag_218:\n        /* \"#utility.yul\":11828:11832   */\n      dup7\n        /* \"#utility.yul\":11821:11902   */\n      sstore\n        /* \"#utility.yul\":11690:11912   */\n      pop\n        /* \"#utility.yul\":11025:11912   */\n      jump(tag_215)\n        /* \"#utility.yul\":11055:11673   */\n    tag_216:\n        /* \"#utility.yul\":11107:11111   */\n      0x1f\n        /* \"#utility.yul\":11103:11112   */\n      not\n        /* \"#utility.yul\":11095:11101   */\n      dup5\n        /* \"#utility.yul\":11091:11113   */\n      and\n        /* \"#utility.yul\":11141:11178   */\n      tag_219\n        /* \"#utility.yul\":11173:11177   */\n      dup7\n        /* \"#utility.yul\":11141:11178   */\n      tag_68\n      jump\t// in\n    tag_219:\n        /* \"#utility.yul\":11200:11201   */\n      0x00\n        /* \"#utility.yul\":11214:11422   */\n    tag_220:\n        /* \"#utility.yul\":11228:11235   */\n      dup3\n        /* \"#utility.yul\":11225:11226   */\n      dup2\n        /* \"#utility.yul\":11222:11236   */\n      lt\n        /* \"#utility.yul\":11214:11422   */\n      iszero\n      tag_222\n      jumpi\n        /* \"#utility.yul\":11307:11316   */\n      dup5\n        /* \"#utility.yul\":11302:11305   */\n      dup10\n        /* \"#utility.yul\":11298:11317   */\n      add\n        /* \"#utility.yul\":11292:11318   */\n      mload\n        /* \"#utility.yul\":11284:11290   */\n      dup3\n        /* \"#utility.yul\":11277:11319   */\n      sstore\n        /* \"#utility.yul\":11358:11359   */\n      0x01\n        /* \"#utility.yul\":11350:11356   */\n      dup3\n        /* \"#utility.yul\":11346:11360   */\n      add\n        /* \"#utility.yul\":11336:11360   */\n      swap2\n      pop\n        /* \"#utility.yul\":11405:11407   */\n      0x20\n        /* \"#utility.yul\":11394:11403   */\n      dup6\n        /* \"#utility.yul\":11390:11408   */\n      add\n        /* \"#utility.yul\":11377:11408   */\n      swap5\n      pop\n        /* \"#utility.yul\":11251:11255   */\n      0x20\n        /* \"#utility.yul\":11248:11249   */\n      dup2\n        /* \"#utility.yul\":11244:11256   */\n      add\n        /* \"#utility.yul\":11239:11256   */\n      swap1\n      pop\n        /* \"#utility.yul\":11214:11422   */\n      jump(tag_220)\n    tag_222:\n        /* \"#utility.yul\":11450:11456   */\n      dup7\n        /* \"#utility.yul\":11441:11448   */\n      dup4\n        /* \"#utility.yul\":11438:11457   */\n      lt\n        /* \"#utility.yul\":11435:11614   */\n      iszero\n      tag_223\n      jumpi\n        /* \"#utility.yul\":11508:11517   */\n      dup5\n        /* \"#utility.yul\":11503:11506   */\n      dup10\n        /* \"#utility.yul\":11499:11518   */\n      add\n        /* \"#utility.yul\":11493:11519   */\n      mload\n        /* \"#utility.yul\":11551:11599   */\n      tag_224\n        /* \"#utility.yul\":11593:11597   */\n      0x1f\n        /* \"#utility.yul\":11585:11591   */\n      dup10\n        /* \"#utility.yul\":11581:11598   */\n      and\n        /* \"#utility.yul\":11570:11579   */\n      dup3\n        /* \"#utility.yul\":11551:11599   */\n      tag_81\n      jump\t// in\n    tag_224:\n        /* \"#utility.yul\":11543:11549   */\n      dup4\n        /* \"#utility.yul\":11536:11600   */\n      sstore\n        /* \"#utility.yul\":11458:11614   */\n      pop\n        /* \"#utility.yul\":11435:11614   */\n    tag_223:\n        /* \"#utility.yul\":11660:11661   */\n      0x01\n        /* \"#utility.yul\":11656:11657   */\n      0x02\n        /* \"#utility.yul\":11648:11654   */\n      dup9\n        /* \"#utility.yul\":11644:11658   */\n      mul\n        /* \"#utility.yul\":11640:11662   */\n      add\n        /* \"#utility.yul\":11634:11638   */\n      dup9\n        /* \"#utility.yul\":11627:11663   */\n      sstore\n        /* \"#utility.yul\":11062:11673   */\n      pop\n      pop\n      pop\n        /* \"#utility.yul\":11025:11912   */\n    tag_215:\n      pop\n        /* \"#utility.yul\":10615:11918   */\n      pop\n      pop\n      pop\n        /* \"#utility.yul\":10523:11918   */\n      pop\n      pop\n      jump\t// out\n        /* \"#utility.yul\":11924:12042   */\n    tag_83:\n        /* \"#utility.yul\":12011:12035   */\n      tag_226\n        /* \"#utility.yul\":12029:12034   */\n      dup2\n        /* \"#utility.yul\":12011:12035   */\n      tag_53\n      jump\t// in\n    tag_226:\n        /* \"#utility.yul\":12006:12009   */\n      dup3\n        /* \"#utility.yul\":11999:12036   */\n      mstore\n        /* \"#utility.yul\":11924:12042   */\n      pop\n      pop\n      jump\t// out\n        /* \"#utility.yul\":12048:12680   */\n    tag_32:\n        /* \"#utility.yul\":12239:12243   */\n      0x00\n        /* \"#utility.yul\":12277:12280   */\n      0x80\n        /* \"#utility.yul\":12266:12275   */\n      dup3\n        /* \"#utility.yul\":12262:12281   */\n      add\n        /* \"#utility.yul\":12254:12281   */\n      swap1\n      pop\n        /* \"#utility.yul\":12291:12362   */\n      tag_228\n        /* \"#utility.yul\":12359:12360   */\n      0x00\n        /* \"#utility.yul\":12348:12357   */\n      dup4\n        /* \"#utility.yul\":12344:12361   */\n      add\n        /* \"#utility.yul\":12335:12341   */\n      dup8\n        /* \"#utility.yul\":12291:12362   */\n      tag_83\n      jump\t// in\n    tag_228:\n        /* \"#utility.yul\":12372:12444   */\n      tag_229\n        /* \"#utility.yul\":12440:12442   */\n      0x20\n        /* \"#utility.yul\":12429:12438   */\n      dup4\n        /* \"#utility.yul\":12425:12443   */\n      add\n        /* \"#utility.yul\":12416:12422   */\n      dup7\n        /* \"#utility.yul\":12372:12444   */\n      tag_57\n      jump\t// in\n    tag_229:\n        /* \"#utility.yul\":12491:12500   */\n      dup2\n        /* \"#utility.yul\":12485:12489   */\n      dup2\n        /* \"#utility.yul\":12481:12501   */\n      sub\n        /* \"#utility.yul\":12476:12478   */\n      0x40\n        /* \"#utility.yul\":12465:12474   */\n      dup4\n        /* \"#utility.yul\":12461:12479   */\n      add\n        /* \"#utility.yul\":12454:12502   */\n      mstore\n        /* \"#utility.yul\":12519:12597   */\n      tag_230\n        /* \"#utility.yul\":12592:12596   */\n      dup2\n        /* \"#utility.yul\":12583:12589   */\n      dup6\n        /* \"#utility.yul\":12519:12597   */\n      tag_63\n      jump\t// in\n    tag_230:\n        /* \"#utility.yul\":12511:12597   */\n      swap1\n      pop\n        /* \"#utility.yul\":12607:12673   */\n      tag_231\n        /* \"#utility.yul\":12669:12671   */\n      0x60\n        /* \"#utility.yul\":12658:12667   */\n      dup4\n        /* \"#utility.yul\":12654:12672   */\n      add\n        /* \"#utility.yul\":12645:12651   */\n      dup5\n        /* \"#utility.yul\":12607:12673   */\n      tag_65\n      jump\t// in\n    tag_231:\n        /* \"#utility.yul\":12048:12680   */\n      swap6\n      swap5\n      pop\n      pop\n      pop\n      pop\n      pop\n      jump\t// out\n\n    auxdata: 0xa2646970667358221220cf5ae3054b48aeaec2a3d107e240105f3de63137b072aa5d2817efd08e75e09064736f6c634300081a0033\n}\n",
				"bytecode": {
					"linkReferences": {},
					"object": "60806040525f80553480156011575f80fd5b50610a788061001f5f395ff3fe608060405234801561000f575f80fd5b506004361061004a575f3560e01c8063111002aa1461004e57806358f9e7411461006a5780637149d2e41461009a578063b6cb58a5146100cc575b5f80fd5b61006860048036038101906100639190610491565b6100ea565b005b610084600480360381019061007f9190610532565b610267565b6040516100919190610575565b60405180910390f35b6100b460048036038101906100af91906105b8565b61027c565b6040516100c393929190610670565b60405180910390f35b6100d461033f565b6040516100e19190610575565b60405180910390f35b60025f3373ffffffffffffffffffffffffffffffffffffffff1673ffffffffffffffffffffffffffffffffffffffff1681526020019081526020015f205f815480929190610137906106d9565b91905055505f60025f3373ffffffffffffffffffffffffffffffffffffffff1673ffffffffffffffffffffffffffffffffffffffff1681526020019081526020015f2054905060405180606001604052808281526020018381526020015f151581525060015f3373ffffffffffffffffffffffffffffffffffffffff1673ffffffffffffffffffffffffffffffffffffffff1681526020019081526020015f205f8381526020019081526020015f205f820151815f01556020820151816001019081610203919061091a565b506040820151816002015f6101000a81548160ff0219169083151502179055509050507f75c843b034b367a7ce9e041b36cf7856dba0d7e8eb42159baf7dce38313e19ef3382845f60405161025b94939291906109f8565b60405180910390a15050565b6002602052805f5260405f205f915090505481565b6001602052815f5260405f20602052805f5260405f205f9150915050805f0154908060010180546102ac9061074d565b80601f01602080910402602001604051908101604052809291908181526020018280546102d89061074d565b80156103235780601f106102fa57610100808354040283529160200191610323565b820191905f5260205f20905b81548152906001019060200180831161030657829003601f168201915b505050505090806002015f9054906101000a900460ff16905083565b5f5481565b5f604051905090565b5f80fd5b5f80fd5b5f80fd5b5f80fd5b5f601f19601f8301169050919050565b7f4e487b71000000000000000000000000000000000000000000000000000000005f52604160045260245ffd5b6103a38261035d565b810181811067ffffffffffffffff821117156103c2576103c161036d565b5b80604052505050565b5f6103d4610344565b90506103e0828261039a565b919050565b5f67ffffffffffffffff8211156103ff576103fe61036d565b5b6104088261035d565b9050602081019050919050565b828183375f83830152505050565b5f610435610430846103e5565b6103cb565b90508281526020810184848401111561045157610450610359565b5b61045c848285610415565b509392505050565b5f82601f83011261047857610477610355565b5b8135610488848260208601610423565b91505092915050565b5f602082840312156104a6576104a561034d565b5b5f82013567ffffffffffffffff8111156104c3576104c2610351565b5b6104cf84828501610464565b91505092915050565b5f73ffffffffffffffffffffffffffffffffffffffff82169050919050565b5f610501826104d8565b9050919050565b610511816104f7565b811461051b575f80fd5b50565b5f8135905061052c81610508565b92915050565b5f602082840312156105475761054661034d565b5b5f6105548482850161051e565b91505092915050565b5f819050919050565b61056f8161055d565b82525050565b5f6020820190506105885f830184610566565b92915050565b6105978161055d565b81146105a1575f80fd5b50565b5f813590506105b28161058e565b92915050565b5f80604083850312156105ce576105cd61034d565b5b5f6105db8582860161051e565b92505060206105ec858286016105a4565b9150509250929050565b5f81519050919050565b5f82825260208201905092915050565b8281835e5f83830152505050565b5f610628826105f6565b6106328185610600565b9350610642818560208601610610565b61064b8161035d565b840191505092915050565b5f8115159050919050565b61066a81610656565b82525050565b5f6060820190506106835f830186610566565b8181036020830152610695818561061e565b90506106a46040830184610661565b949350505050565b7f4e487b71000000000000000000000000000000000000000000000000000000005f52601160045260245ffd5b5f6106e38261055d565b91507fffffffffffffffffffffffffffffffffffffffffffffffffffffffffffffffff8203610715576107146106ac565b5b600182019050919050565b7f4e487b71000000000000000000000000000000000000000000000000000000005f52602260045260245ffd5b5f600282049050600182168061076457607f821691505b60208210810361077757610776610720565b5b50919050565b5f819050815f5260205f209050919050565b5f6020601f8301049050919050565b5f82821b905092915050565b5f600883026107d97fffffffffffffffffffffffffffffffffffffffffffffffffffffffffffffffff8261079e565b6107e3868361079e565b95508019841693508086168417925050509392505050565b5f819050919050565b5f61081e6108196108148461055d565b6107fb565b61055d565b9050919050565b5f819050919050565b61083783610804565b61084b61084382610825565b8484546107aa565b825550505050565b5f90565b61085f610853565b61086a81848461082e565b505050565b5b8181101561088d576108825f82610857565b600181019050610870565b5050565b601f8211156108d2576108a38161077d565b6108ac8461078f565b810160208510156108bb578190505b6108cf6108c78561078f565b83018261086f565b50505b505050565b5f82821c905092915050565b5f6108f25f19846008026108d7565b1980831691505092915050565b5f61090a83836108e3565b9150826002028217905092915050565b610923826105f6565b67ffffffffffffffff81111561093c5761093b61036d565b5b610946825461074d565b610951828285610891565b5f60209050601f831160018114610982575f8415610970578287015190505b61097a85826108ff565b8655506109e1565b601f1984166109908661077d565b5f5b828110156109b757848901518255600182019150602085019450602081019050610992565b868310156109d457848901516109d0601f8916826108e3565b8355505b6001600288020188555050505b505050505050565b6109f2816104f7565b82525050565b5f608082019050610a0b5f8301876109e9565b610a186020830186610566565b8181036040830152610a2a818561061e565b9050610a396060830184610661565b9594505050505056fea2646970667358221220cf5ae3054b48aeaec2a3d107e240105f3de63137b072aa5d2817efd08e75e09064736f6c634300081a0033",
					"opcodes": "PUSH1 0x80 PUSH1 0x40 MSTORE PUSH0 DUP1 SSTORE CALLVALUE DUP1 ISZERO PUSH1 0x11 JUMPI PUSH0 DUP1 REVERT JUMPDEST POP PUSH2 0xA78 DUP1 PUSH2 0x1F PUSH0 CODECOPY PUSH0 RETURN INVALID PUSH1 0x80 PUSH1 0x40 MSTORE CALLVALUE DUP1 ISZERO PUSH2 0xF JUMPI PUSH0 DUP1 REVERT JUMPDEST POP PUSH1 0x4 CALLDATASIZE LT PUSH2 0x4A JUMPI PUSH0 CALLDATALOAD PUSH1 0xE0 SHR DUP1 PUSH4 0x111002AA EQ PUSH2 0x4E JUMPI DUP1 PUSH4 0x58F9E741 EQ PUSH2 0x6A JUMPI DUP1 PUSH4 0x7149D2E4 EQ PUSH2 0x9A JUMPI DUP1 PUSH4 0xB6CB58A5 EQ PUSH2 0xCC JUMPI JUMPDEST PUSH0 DUP1 REVERT JUMPDEST PUSH2 0x68 PUSH1 0x4 DUP1 CALLDATASIZE SUB DUP2 ADD SWAP1 PUSH2 0x63 SWAP2 SWAP1 PUSH2 0x491 JUMP JUMPDEST PUSH2 0xEA JUMP JUMPDEST STOP JUMPDEST PUSH2 0x84 PUSH1 0x4 DUP1 CALLDATASIZE SUB DUP2 ADD SWAP1 PUSH2 0x7F SWAP2 SWAP1 PUSH2 0x532 JUMP JUMPDEST PUSH2 0x267 JUMP JUMPDEST PUSH1 0x40 MLOAD PUSH2 0x91 SWAP2 SWAP1 PUSH2 0x575 JUMP JUMPDEST PUSH1 0x40 MLOAD DUP1 SWAP2 SUB SWAP1 RETURN JUMPDEST PUSH2 0xB4 PUSH1 0x4 DUP1 CALLDATASIZE SUB DUP2 ADD SWAP1 PUSH2 0xAF SWAP2 SWAP1 PUSH2 0x5B8 JUMP JUMPDEST PUSH2 0x27C JUMP JUMPDEST PUSH1 0x40 MLOAD PUSH2 0xC3 SWAP4 SWAP3 SWAP2 SWAP1 PUSH2 0x670 JUMP JUMPDEST PUSH1 0x40 MLOAD DUP1 SWAP2 SUB SWAP1 RETURN JUMPDEST PUSH2 0xD4 PUSH2 0x33F JUMP JUMPDEST PUSH1 0x40 MLOAD PUSH2 0xE1 SWAP2 SWAP1 PUSH2 0x575 JUMP JUMPDEST PUSH1 0x40 MLOAD DUP1 SWAP2 SUB SWAP1 RETURN JUMPDEST PUSH1 0x2 PUSH0 CALLER PUSH20 0xFFFFFFFFFFFFFFFFFFFFFFFFFFFFFFFFFFFFFFFF AND PUSH20 0xFFFFFFFFFFFFFFFFFFFFFFFFFFFFFFFFFFFFFFFF AND DUP2 MSTORE PUSH1 0x20 ADD SWAP1 DUP2 MSTORE PUSH1 0x20 ADD PUSH0 KECCAK256 PUSH0 DUP2 SLOAD DUP1 SWAP3 SWAP2 SWAP1 PUSH2 0x137 SWAP1 PUSH2 0x6D9 JUMP JUMPDEST SWAP2 SWAP1 POP SSTORE POP PUSH0 PUSH1 0x2 PUSH0 CALLER PUSH20 0xFFFFFFFFFFFFFFFFFFFFFFFFFFFFFFFFFFFFFFFF AND PUSH20 0xFFFFFFFFFFFFFFFFFFFFFFFFFFFFFFFFFFFFFFFF AND DUP2 MSTORE PUSH1 0x20 ADD SWAP1 DUP2 MSTORE PUSH1 0x20 ADD PUSH0 KECCAK256 SLOAD SWAP1 POP PUSH1 0x40 MLOAD DUP1 PUSH1 0x60 ADD PUSH1 0x40 MSTORE DUP1 DUP3 DUP2 MSTORE PUSH1 0x20 ADD DUP4 DUP2 MSTORE PUSH1 0x20 ADD PUSH0 ISZERO ISZERO DUP2 MSTORE POP PUSH1 0x1 PUSH0 CALLER PUSH20 0xFFFFFFFFFFFFFFFFFFFFFFFFFFFFFFFFFFFFFFFF AND PUSH20 0xFFFFFFFFFFFFFFFFFFFFFFFFFFFFFFFFFFFFFFFF AND DUP2 MSTORE PUSH1 0x20 ADD SWAP1 DUP2 MSTORE PUSH1 0x20 ADD PUSH0 KECCAK256 PUSH0 DUP4 DUP2 MSTORE PUSH1 0x20 ADD SWAP1 DUP2 MSTORE PUSH1 0x20 ADD PUSH0 KECCAK256 PUSH0 DUP3 ADD MLOAD DUP2 PUSH0 ADD SSTORE PUSH1 0x20 DUP3 ADD MLOAD DUP2 PUSH1 0x1 ADD SWAP1 DUP2 PUSH2 0x203 SWAP2 SWAP1 PUSH2 0x91A JUMP JUMPDEST POP PUSH1 0x40 DUP3 ADD MLOAD DUP2 PUSH1 0x2 ADD PUSH0 PUSH2 0x100 EXP DUP2 SLOAD DUP2 PUSH1 0xFF MUL NOT AND SWAP1 DUP4 ISZERO ISZERO MUL OR SWAP1 SSTORE POP SWAP1 POP POP PUSH32 0x75C843B034B367A7CE9E041B36CF7856DBA0D7E8EB42159BAF7DCE38313E19EF CALLER DUP3 DUP5 PUSH0 PUSH1 0x40 MLOAD PUSH2 0x25B SWAP5 SWAP4 SWAP3 SWAP2 SWAP1 PUSH2 0x9F8 JUMP JUMPDEST PUSH1 0x40 MLOAD DUP1 SWAP2 SUB SWAP1 LOG1 POP POP JUMP JUMPDEST PUSH1 0x2 PUSH1 0x20 MSTORE DUP1 PUSH0 MSTORE PUSH1 0x40 PUSH0 KECCAK256 PUSH0 SWAP2 POP SWAP1 POP SLOAD DUP2 JUMP JUMPDEST PUSH1 0x1 PUSH1 0x20 MSTORE DUP2 PUSH0 MSTORE PUSH1 0x40 PUSH0 KECCAK256 PUSH1 0x20 MSTORE DUP1 PUSH0 MSTORE PUSH1 0x40 PUSH0 KECCAK256 PUSH0 SWAP2 POP SWAP2 POP POP DUP1 PUSH0 ADD SLOAD SWAP1 DUP1 PUSH1 0x1 ADD DUP1 SLOAD PUSH2 0x2AC SWAP1 PUSH2 0x74D JUMP JUMPDEST DUP1 PUSH1 0x1F ADD PUSH1 0x20 DUP1 SWAP2 DIV MUL PUSH1 0x20 ADD PUSH1 0x40 MLOAD SWAP1 DUP2 ADD PUSH1 0x40 MSTORE DUP1 SWAP3 SWAP2 SWAP1 DUP2 DUP2 MSTORE PUSH1 0x20 ADD DUP3 DUP1 SLOAD PUSH2 0x2D8 SWAP1 PUSH2 0x74D JUMP JUMPDEST DUP1 ISZERO PUSH2 0x323 JUMPI DUP1 PUSH1 0x1F LT PUSH2 0x2FA JUMPI PUSH2 0x100 DUP1 DUP4 SLOAD DIV MUL DUP4 MSTORE SWAP2 PUSH1 0x20 ADD SWAP2 PUSH2 0x323 JUMP JUMPDEST DUP3 ADD SWAP2 SWAP1 PUSH0 MSTORE PUSH1 0x20 PUSH0 KECCAK256 SWAP1 JUMPDEST DUP2 SLOAD DUP2 MSTORE SWAP1 PUSH1 0x1 ADD SWAP1 PUSH1 0x20 ADD DUP1 DUP4 GT PUSH2 0x306 JUMPI DUP3 SWAP1 SUB PUSH1 0x1F AND DUP3 ADD SWAP2 JUMPDEST POP POP POP POP POP SWAP1 DUP1 PUSH1 0x2 ADD PUSH0 SWAP1 SLOAD SWAP1 PUSH2 0x100 EXP SWAP1 DIV PUSH1 0xFF AND SWAP1 POP DUP4 JUMP JUMPDEST PUSH0 SLOAD DUP2 JUMP JUMPDEST PUSH0 PUSH1 0x40 MLOAD SWAP1 POP SWAP1 JUMP JUMPDEST PUSH0 DUP1 REVERT JUMPDEST PUSH0 DUP1 REVERT JUMPDEST PUSH0 DUP1 REVERT JUMPDEST PUSH0 DUP1 REVERT JUMPDEST PUSH0 PUSH1 0x1F NOT PUSH1 0x1F DUP4 ADD AND SWAP1 POP SWAP2 SWAP1 POP JUMP JUMPDEST PUSH32 0x4E487B7100000000000000000000000000000000000000000000000000000000 PUSH0 MSTORE PUSH1 0x41 PUSH1 0x4 MSTORE PUSH1 0x24 PUSH0 REVERT JUMPDEST PUSH2 0x3A3 DUP3 PUSH2 0x35D JUMP JUMPDEST DUP2 ADD DUP2 DUP2 LT PUSH8 0xFFFFFFFFFFFFFFFF DUP3 GT OR ISZERO PUSH2 0x3C2 JUMPI PUSH2 0x3C1 PUSH2 0x36D JUMP JUMPDEST JUMPDEST DUP1 PUSH1 0x40 MSTORE POP POP POP JUMP JUMPDEST PUSH0 PUSH2 0x3D4 PUSH2 0x344 JUMP JUMPDEST SWAP1 POP PUSH2 0x3E0 DUP3 DUP3 PUSH2 0x39A JUMP JUMPDEST SWAP2 SWAP1 POP JUMP JUMPDEST PUSH0 PUSH8 0xFFFFFFFFFFFFFFFF DUP3 GT ISZERO PUSH2 0x3FF JUMPI PUSH2 0x3FE PUSH2 0x36D JUMP JUMPDEST JUMPDEST PUSH2 0x408 DUP3 PUSH2 0x35D JUMP JUMPDEST SWAP1 POP PUSH1 0x20 DUP2 ADD SWAP1 POP SWAP2 SWAP1 POP JUMP JUMPDEST DUP3 DUP2 DUP4 CALLDATACOPY PUSH0 DUP4 DUP4 ADD MSTORE POP POP POP JUMP JUMPDEST PUSH0 PUSH2 0x435 PUSH2 0x430 DUP5 PUSH2 0x3E5 JUMP JUMPDEST PUSH2 0x3CB JUMP JUMPDEST SWAP1 POP DUP3 DUP2 MSTORE PUSH1 0x20 DUP2 ADD DUP5 DUP5 DUP5 ADD GT ISZERO PUSH2 0x451 JUMPI PUSH2 0x450 PUSH2 0x359 JUMP JUMPDEST JUMPDEST PUSH2 0x45C DUP5 DUP3 DUP6 PUSH2 0x415 JUMP JUMPDEST POP SWAP4 SWAP3 POP POP POP JUMP JUMPDEST PUSH0 DUP3 PUSH1 0x1F DUP4 ADD SLT PUSH2 0x478 JUMPI PUSH2 0x477 PUSH2 0x355 JUMP JUMPDEST JUMPDEST DUP2 CALLDATALOAD PUSH2 0x488 DUP5 DUP3 PUSH1 0x20 DUP7 ADD PUSH2 0x423 JUMP JUMPDEST SWAP2 POP POP SWAP3 SWAP2 POP POP JUMP JUMPDEST PUSH0 PUSH1 0x20 DUP3 DUP5 SUB SLT ISZERO PUSH2 0x4A6 JUMPI PUSH2 0x4A5 PUSH2 0x34D JUMP JUMPDEST JUMPDEST PUSH0 DUP3 ADD CALLDATALOAD PUSH8 0xFFFFFFFFFFFFFFFF DUP2 GT ISZERO PUSH2 0x4C3 JUMPI PUSH2 0x4C2 PUSH2 0x351 JUMP JUMPDEST JUMPDEST PUSH2 0x4CF DUP5 DUP3 DUP6 ADD PUSH2 0x464 JUMP JUMPDEST SWAP2 POP POP SWAP3 SWAP2 POP POP JUMP JUMPDEST PUSH0 PUSH20 0xFFFFFFFFFFFFFFFFFFFFFFFFFFFFFFFFFFFFFFFF DUP3 AND SWAP1 POP SWAP2 SWAP1 POP JUMP JUMPDEST PUSH0 PUSH2 0x501 DUP3 PUSH2 0x4D8 JUMP JUMPDEST SWAP1 POP SWAP2 SWAP1 POP JUMP JUMPDEST PUSH2 0x511 DUP2 PUSH2 0x4F7 JUMP JUMPDEST DUP2 EQ PUSH2 0x51B JUMPI PUSH0 DUP1 REVERT JUMPDEST POP JUMP JUMPDEST PUSH0 DUP2 CALLDATALOAD SWAP1 POP PUSH2 0x52C DUP2 PUSH2 0x508 JUMP JUMPDEST SWAP3 SWAP2 POP POP JUMP JUMPDEST PUSH0 PUSH1 0x20 DUP3 DUP5 SUB SLT ISZERO PUSH2 0x547 JUMPI PUSH2 0x546 PUSH2 0x34D JUMP JUMPDEST JUMPDEST PUSH0 PUSH2 0x554 DUP5 DUP3 DUP6 ADD PUSH2 0x51E JUMP JUMPDEST SWAP2 POP POP SWAP3 SWAP2 POP POP JUMP JUMPDEST PUSH0 DUP2 SWAP1 POP SWAP2 SWAP1 POP JUMP JUMPDEST PUSH2 0x56F DUP2 PUSH2 0x55D JUMP JUMPDEST DUP3 MSTORE POP POP JUMP JUMPDEST PUSH0 PUSH1 0x20 DUP3 ADD SWAP1 POP PUSH2 0x588 PUSH0 DUP4 ADD DUP5 PUSH2 0x566 JUMP JUMPDEST SWAP3 SWAP2 POP POP JUMP JUMPDEST PUSH2 0x597 DUP2 PUSH2 0x55D JUMP JUMPDEST DUP2 EQ PUSH2 0x5A1 JUMPI PUSH0 DUP1 REVERT JUMPDEST POP JUMP JUMPDEST PUSH0 DUP2 CALLDATALOAD SWAP1 POP PUSH2 0x5B2 DUP2 PUSH2 0x58E JUMP JUMPDEST SWAP3 SWAP2 POP POP JUMP JUMPDEST PUSH0 DUP1 PUSH1 0x40 DUP4 DUP6 SUB SLT ISZERO PUSH2 0x5CE JUMPI PUSH2 0x5CD PUSH2 0x34D JUMP JUMPDEST JUMPDEST PUSH0 PUSH2 0x5DB DUP6 DUP3 DUP7 ADD PUSH2 0x51E JUMP JUMPDEST SWAP3 POP POP PUSH1 0x20 PUSH2 0x5EC DUP6 DUP3 DUP7 ADD PUSH2 0x5A4 JUMP JUMPDEST SWAP2 POP POP SWAP3 POP SWAP3 SWAP1 POP JUMP JUMPDEST PUSH0 DUP2 MLOAD SWAP1 POP SWAP2 SWAP1 POP JUMP JUMPDEST PUSH0 DUP3 DUP3 MSTORE PUSH1 0x20 DUP3 ADD SWAP1 POP SWAP3 SWAP2 POP POP JUMP JUMPDEST DUP3 DUP2 DUP4 MCOPY PUSH0 DUP4 DUP4 ADD MSTORE POP POP POP JUMP JUMPDEST PUSH0 PUSH2 0x628 DUP3 PUSH2 0x5F6 JUMP JUMPDEST PUSH2 0x632 DUP2 DUP6 PUSH2 0x600 JUMP JUMPDEST SWAP4 POP PUSH2 0x642 DUP2 DUP6 PUSH1 0x20 DUP7 ADD PUSH2 0x610 JUMP JUMPDEST PUSH2 0x64B DUP2 PUSH2 0x35D JUMP JUMPDEST DUP5 ADD SWAP2 POP POP SWAP3 SWAP2 POP POP JUMP JUMPDEST PUSH0 DUP2 ISZERO ISZERO SWAP1 POP SWAP2 SWAP1 POP JUMP JUMPDEST PUSH2 0x66A DUP2 PUSH2 0x656 JUMP JUMPDEST DUP3 MSTORE POP POP JUMP JUMPDEST PUSH0 PUSH1 0x60 DUP3 ADD SWAP1 POP PUSH2 0x683 PUSH0 DUP4 ADD DUP7 PUSH2 0x566 JUMP JUMPDEST DUP2 DUP2 SUB PUSH1 0x20 DUP4 ADD MSTORE PUSH2 0x695 DUP2 DUP6 PUSH2 0x61E JUMP JUMPDEST SWAP1 POP PUSH2 0x6A4 PUSH1 0x40 DUP4 ADD DUP5 PUSH2 0x661 JUMP JUMPDEST SWAP5 SWAP4 POP POP POP POP JUMP JUMPDEST PUSH32 0x4E487B7100000000000000000000000000000000000000000000000000000000 PUSH0 MSTORE PUSH1 0x11 PUSH1 0x4 MSTORE PUSH1 0x24 PUSH0 REVERT JUMPDEST PUSH0 PUSH2 0x6E3 DUP3 PUSH2 0x55D JUMP JUMPDEST SWAP2 POP PUSH32 0xFFFFFFFFFFFFFFFFFFFFFFFFFFFFFFFFFFFFFFFFFFFFFFFFFFFFFFFFFFFFFFFF DUP3 SUB PUSH2 0x715 JUMPI PUSH2 0x714 PUSH2 0x6AC JUMP JUMPDEST JUMPDEST PUSH1 0x1 DUP3 ADD SWAP1 POP SWAP2 SWAP1 POP JUMP JUMPDEST PUSH32 0x4E487B7100000000000000000000000000000000000000000000000000000000 PUSH0 MSTORE PUSH1 0x22 PUSH1 0x4 MSTORE PUSH1 0x24 PUSH0 REVERT JUMPDEST PUSH0 PUSH1 0x2 DUP3 DIV SWAP1 POP PUSH1 0x1 DUP3 AND DUP1 PUSH2 0x764 JUMPI PUSH1 0x7F DUP3 AND SWAP2 POP JUMPDEST PUSH1 0x20 DUP3 LT DUP2 SUB PUSH2 0x777 JUMPI PUSH2 0x776 PUSH2 0x720 JUMP JUMPDEST JUMPDEST POP SWAP2 SWAP1 POP JUMP JUMPDEST PUSH0 DUP2 SWAP1 POP DUP2 PUSH0 MSTORE PUSH1 0x20 PUSH0 KECCAK256 SWAP1 POP SWAP2 SWAP1 POP JUMP JUMPDEST PUSH0 PUSH1 0x20 PUSH1 0x1F DUP4 ADD DIV SWAP1 POP SWAP2 SWAP1 POP JUMP JUMPDEST PUSH0 DUP3 DUP3 SHL SWAP1 POP SWAP3 SWAP2 POP POP JUMP JUMPDEST PUSH0 PUSH1 0x8 DUP4 MUL PUSH2 0x7D9 PUSH32 0xFFFFFFFFFFFFFFFFFFFFFFFFFFFFFFFFFFFFFFFFFFFFFFFFFFFFFFFFFFFFFFFF DUP3 PUSH2 0x79E JUMP JUMPDEST PUSH2 0x7E3 DUP7 DUP4 PUSH2 0x79E JUMP JUMPDEST SWAP6 POP DUP1 NOT DUP5 AND SWAP4 POP DUP1 DUP7 AND DUP5 OR SWAP3 POP POP POP SWAP4 SWAP3 POP POP POP JUMP JUMPDEST PUSH0 DUP2 SWAP1 POP SWAP2 SWAP1 POP JUMP JUMPDEST PUSH0 PUSH2 0x81E PUSH2 0x819 PUSH2 0x814 DUP5 PUSH2 0x55D JUMP JUMPDEST PUSH2 0x7FB JUMP JUMPDEST PUSH2 0x55D JUMP JUMPDEST SWAP1 POP SWAP2 SWAP1 POP JUMP JUMPDEST PUSH0 DUP2 SWAP1 POP SWAP2 SWAP1 POP JUMP JUMPDEST PUSH2 0x837 DUP4 PUSH2 0x804 JUMP JUMPDEST PUSH2 0x84B PUSH2 0x843 DUP3 PUSH2 0x825 JUMP JUMPDEST DUP5 DUP5 SLOAD PUSH2 0x7AA JUMP JUMPDEST DUP3 SSTORE POP POP POP POP JUMP JUMPDEST PUSH0 SWAP1 JUMP JUMPDEST PUSH2 0x85F PUSH2 0x853 JUMP JUMPDEST PUSH2 0x86A DUP2 DUP5 DUP5 PUSH2 0x82E JUMP JUMPDEST POP POP POP JUMP JUMPDEST JUMPDEST DUP2 DUP2 LT ISZERO PUSH2 0x88D JUMPI PUSH2 0x882 PUSH0 DUP3 PUSH2 0x857 JUMP JUMPDEST PUSH1 0x1 DUP2 ADD SWAP1 POP PUSH2 0x870 JUMP JUMPDEST POP POP JUMP JUMPDEST PUSH1 0x1F DUP3 GT ISZERO PUSH2 0x8D2 JUMPI PUSH2 0x8A3 DUP2 PUSH2 0x77D JUMP JUMPDEST PUSH2 0x8AC DUP5 PUSH2 0x78F JUMP JUMPDEST DUP2 ADD PUSH1 0x20 DUP6 LT ISZERO PUSH2 0x8BB JUMPI DUP2 SWAP1 POP JUMPDEST PUSH2 0x8CF PUSH2 0x8C7 DUP6 PUSH2 0x78F JUMP JUMPDEST DUP4 ADD DUP3 PUSH2 0x86F JUMP JUMPDEST POP POP JUMPDEST POP POP POP JUMP JUMPDEST PUSH0 DUP3 DUP3 SHR SWAP1 POP SWAP3 SWAP2 POP POP JUMP JUMPDEST PUSH0 PUSH2 0x8F2 PUSH0 NOT DUP5 PUSH1 0x8 MUL PUSH2 0x8D7 JUMP JUMPDEST NOT DUP1 DUP4 AND SWAP2 POP POP SWAP3 SWAP2 POP POP JUMP JUMPDEST PUSH0 PUSH2 0x90A DUP4 DUP4 PUSH2 0x8E3 JUMP JUMPDEST SWAP2 POP DUP3 PUSH1 0x2 MUL DUP3 OR SWAP1 POP SWAP3 SWAP2 POP POP JUMP JUMPDEST PUSH2 0x923 DUP3 PUSH2 0x5F6 JUMP JUMPDEST PUSH8 0xFFFFFFFFFFFFFFFF DUP2 GT ISZERO PUSH2 0x93C JUMPI PUSH2 0x93B PUSH2 0x36D JUMP JUMPDEST JUMPDEST PUSH2 0x946 DUP3 SLOAD PUSH2 0x74D JUMP JUMPDEST PUSH2 0x951 DUP3 DUP3 DUP6 PUSH2 0x891 JUMP JUMPDEST PUSH0 PUSH1 0x20 SWAP1 POP PUSH1 0x1F DUP4 GT PUSH1 0x1 DUP2 EQ PUSH2 0x982 JUMPI PUSH0 DUP5 ISZERO PUSH2 0x970 JUMPI DUP3 DUP8 ADD MLOAD SWAP1 POP JUMPDEST PUSH2 0x97A DUP6 DUP3 PUSH2 0x8FF JUMP JUMPDEST DUP7 SSTORE POP PUSH2 0x9E1 JUMP JUMPDEST PUSH1 0x1F NOT DUP5 AND PUSH2 0x990 DUP7 PUSH2 0x77D JUMP JUMPDEST PUSH0 JUMPDEST DUP3 DUP2 LT ISZERO PUSH2 0x9B7 JUMPI DUP5 DUP10 ADD MLOAD DUP3 SSTORE PUSH1 0x1 DUP3 ADD SWAP2 POP PUSH1 0x20 DUP6 ADD SWAP5 POP PUSH1 0x20 DUP2 ADD SWAP1 POP PUSH2 0x992 JUMP JUMPDEST DUP7 DUP4 LT ISZERO PUSH2 0x9D4 JUMPI DUP5 DUP10 ADD MLOAD PUSH2 0x9D0 PUSH1 0x1F DUP10 AND DUP3 PUSH2 0x8E3 JUMP JUMPDEST DUP4 SSTORE POP JUMPDEST PUSH1 0x1 PUSH1 0x2 DUP9 MUL ADD DUP9 SSTORE POP POP POP JUMPDEST POP POP POP POP POP POP JUMP JUMPDEST PUSH2 0x9F2 DUP2 PUSH2 0x4F7 JUMP JUMPDEST DUP3 MSTORE POP POP JUMP JUMPDEST PUSH0 PUSH1 0x80 DUP3 ADD SWAP1 POP PUSH2 0xA0B PUSH0 DUP4 ADD DUP8 PUSH2 0x9E9 JUMP JUMPDEST PUSH2 0xA18 PUSH1 0x20 DUP4 ADD DUP7 PUSH2 0x566 JUMP JUMPDEST DUP2 DUP2 SUB PUSH1 0x40 DUP4 ADD MSTORE PUSH2 0xA2A DUP2 DUP6 PUSH2 0x61E JUMP JUMPDEST SWAP1 POP PUSH2 0xA39 PUSH1 0x60 DUP4 ADD DUP5 PUSH2 0x661 JUMP JUMPDEST SWAP6 SWAP5 POP POP POP POP POP JUMP INVALID LOG2 PUSH5 0x6970667358 0x22 SLT KECCAK256 0xCF GAS 0xE3 SDIV 0x4B BASEFEE 0xAE 0xAE 0xC2 LOG3 0xD1 SMOD 0xE2 BLOCKHASH LT PUSH0 RETURNDATASIZE 0xE6 BALANCE CALLDATACOPY 0xB0 PUSH19 0xAA5D2817EFD08E75E09064736F6C634300081A STOP CALLER "
				},
				"gasEstimates": {
					"creation": {
						"codeDepositCost": "536000",
						"executionCost": "5571",
						"totalCost": "541571"
					},
					"external": {
						"createTask(string)": "infinite",
						"taskCount()": "2468",
						"tasks(address,uint256)": "infinite",
						"userTaskCount(address)": "2802"
					}
				},
				"methodIdentifiers": {
					"createTask(string)": "111002aa",
					"taskCount()": "b6cb58a5",
					"tasks(address,uint256)": "7149d2e4",
					"userTaskCount(address)": "58f9e741"
				}
			},
			"storageLayout": {
				"storage": [
					{
						"astId": 4,
						"contract": "TodoList.sol:TodoList",
						"label": "taskCount",
						"offset": 0,
						"slot": "0",
						"type": "t_uint256"
					},
					{
						"astId": 18,
						"contract": "TodoList.sol:TodoList",
						"label": "tasks",
						"offset": 0,
						"slot": "1",
						"type": "t_mapping(t_address,t_mapping(t_uint256,t_struct(Task)11_storage))"
					},
					{
						"astId": 22,
						"contract": "TodoList.sol:TodoList",
						"label": "userTaskCount",
						"offset": 0,
						"slot": "2",
						"type": "t_mapping(t_address,t_uint256)"
					}
				],
				"types": {
					"t_address": {
						"encoding": "inplace",
						"label": "address",
						"numberOfBytes": "20"
					},
					"t_bool": {
						"encoding": "inplace",
						"label": "bool",
						"numberOfBytes": "1"
					},
					"t_mapping(t_address,t_mapping(t_uint256,t_struct(Task)11_storage))": {
						"encoding": "mapping",
						"key": "t_address",
						"label": "mapping(address => mapping(uint256 => struct TodoList.Task))",
						"numberOfBytes": "32",
						"value": "t_mapping(t_uint256,t_struct(Task)11_storage)"
					},
					"t_mapping(t_address,t_uint256)": {
						"encoding": "mapping",
						"key": "t_address",
						"label": "mapping(address => uint256)",
						"numberOfBytes": "32",
						"value": "t_uint256"
					},
					"t_mapping(t_uint256,t_struct(Task)11_storage)": {
						"encoding": "mapping",
						"key": "t_uint256",
						"label": "mapping(uint256 => struct TodoList.Task)",
						"numberOfBytes": "32",
						"value": "t_struct(Task)11_storage"
					},
					"t_string_storage": {
						"encoding": "bytes",
						"label": "string",
						"numberOfBytes": "32"
					},
					"t_struct(Task)11_storage": {
						"encoding": "inplace",
						"label": "struct TodoList.Task",
						"members": [
							{
								"astId": 6,
								"contract": "TodoList.sol:TodoList",
								"label": "id",
								"offset": 0,
								"slot": "0",
								"type": "t_uint256"
							},
							{
								"astId": 8,
								"contract": "TodoList.sol:TodoList",
								"label": "content",
								"offset": 0,
								"slot": "1",
								"type": "t_string_storage"
							},
							{
								"astId": 10,
								"contract": "TodoList.sol:TodoList",
								"label": "completed",
								"offset": 0,
								"slot": "2",
								"type": "t_bool"
							}
						],
						"numberOfBytes": "96"
					},
					"t_uint256": {
						"encoding": "inplace",
						"label": "uint256",
						"numberOfBytes": "32"
					}
				}
			},
			"userdoc": {
				"kind": "user",
				"methods": {},
				"version": 1
			}
		}
	}
}