{
	"TodoList.sol": {
		"TodoList": {
			"abi": [
				{
					"anonymous": false,
					"inputs": [
						{
							"indexed": false,
							"internalType": "address",
							"name": "user",
							"type": "address"
						},
						{
							"indexed": false,
							"internalType": "uint256",
							"name": "id",
							"type": "uint256"
						},
						{
							"indexed": false,
							"internalType": "bool",
							"name": "completed",
							"type": "bool"
						}
					],
					"name": "TaskCompleted",
					"type": "event"
				},
				{
					"anonymous": false,
					"inputs": [
						{
							"indexed": false,
							"internalType": "address",
							"name": "user",
							"type": "address"
						},
						{
							"indexed": false,
							"internalType": "uint256",
							"name": "id",
							"type": "uint256"
						},
						{
							"indexed": false,
							"internalType": "string",
							"name": "content",
							"type": "string"
						},
						{
							"indexed": false,
							"internalType": "bool",
							"name": "completed",
							"type": "bool"
						}
					],
					"name": "TaskCreated",
					"type": "event"
				},
				{
					"inputs": [
						{
							"internalType": "string",
							"name": "_content",
							"type": "string"
						}
					],
					"name": "createTask",
					"outputs": [],
					"stateMutability": "nonpayable",
					"type": "function"
				},
				{
					"inputs": [
						{
							"internalType": "address",
							"name": "_user",
							"type": "address"
						}
					],
					"name": "getAllTasksByUser",
					"outputs": [
						{
							"components": [
								{
									"internalType": "uint256",
									"name": "id",
									"type": "uint256"
								},
								{
									"internalType": "string",
									"name": "content",
									"type": "string"
								},
								{
									"internalType": "bool",
									"name": "completed",
									"type": "bool"
								}
							],
							"internalType": "struct TodoList.Task[]",
							"name": "",
							"type": "tuple[]"
						}
					],
					"stateMutability": "view",
					"type": "function"
				},
				{
					"inputs": [],
					"name": "taskCount",
					"outputs": [
						{
							"internalType": "uint256",
							"name": "",
							"type": "uint256"
						}
					],
					"stateMutability": "view",
					"type": "function"
				},
				{
					"inputs": [
						{
							"internalType": "address",
							"name": "",
							"type": "address"
						},
						{
							"internalType": "uint256",
							"name": "",
							"type": "uint256"
						}
					],
					"name": "tasks",
					"outputs": [
						{
							"internalType": "uint256",
							"name": "id",
							"type": "uint256"
						},
						{
							"internalType": "string",
							"name": "content",
							"type": "string"
						},
						{
							"internalType": "bool",
							"name": "completed",
							"type": "bool"
						}
					],
					"stateMutability": "view",
					"type": "function"
				},
				{
					"inputs": [
						{
							"internalType": "uint256",
							"name": "_id",
							"type": "uint256"
						}
					],
					"name": "toggleTaskCompleted",
					"outputs": [],
					"stateMutability": "nonpayable",
					"type": "function"
				},
				{
					"inputs": [
						{
							"internalType": "address",
							"name": "",
							"type": "address"
						}
					],
					"name": "userTaskCount",
					"outputs": [
						{
							"internalType": "uint256",
							"name": "",
							"type": "uint256"
						}
					],
					"stateMutability": "view",
					"type": "function"
				}
			],
			"devdoc": {
				"kind": "dev",
				"methods": {},
				"version": 1
			},
			"evm": {
				"assembly": "    /* \"TodoList.sol\":57:1656  contract TodoList {... */\n  mstore(0x40, 0x80)\n    /* \"TodoList.sol\":108:109  0 */\n  0x00\n    /* \"TodoList.sol\":81:109  uint256 public taskCount = 0 */\n  dup1\n  sstore\n    /* \"TodoList.sol\":57:1656  contract TodoList {... */\n  callvalue\n  dup1\n  iszero\n  tag_1\n  jumpi\n  0x00\n  dup1\n  revert\ntag_1:\n  pop\n  dataSize(sub_0)\n  dup1\n  dataOffset(sub_0)\n  0x00\n  codecopy\n  0x00\n  return\nstop\n\nsub_0: assembly {\n        /* \"TodoList.sol\":57:1656  contract TodoList {... */\n      mstore(0x40, 0x80)\n      callvalue\n      dup1\n      iszero\n      tag_1\n      jumpi\n      0x00\n      dup1\n      revert\n    tag_1:\n      pop\n      jumpi(tag_2, lt(calldatasize, 0x04))\n      shr(0xe0, calldataload(0x00))\n      dup1\n      0x111002aa\n      eq\n      tag_3\n      jumpi\n      dup1\n      0x1ed618c5\n      eq\n      tag_4\n      jumpi\n      dup1\n      0x58f9e741\n      eq\n      tag_5\n      jumpi\n      dup1\n      0x6140dd60\n      eq\n      tag_6\n      jumpi\n      dup1\n      0x7149d2e4\n      eq\n      tag_7\n      jumpi\n      dup1\n      0xb6cb58a5\n      eq\n      tag_8\n      jumpi\n    tag_2:\n      0x00\n      dup1\n      revert\n        /* \"TodoList.sol\":576:865  function createTask(string memory _content) public {... */\n    tag_3:\n      tag_9\n      0x04\n      dup1\n      calldatasize\n      sub\n      dup2\n      add\n      swap1\n      tag_10\n      swap2\n      swap1\n      tag_11\n      jump\t// in\n    tag_10:\n      tag_12\n      jump\t// in\n    tag_9:\n      stop\n        /* \"TodoList.sol\":1306:1654  function getAllTasksByUser(address _user) public view returns (Task[] memory) {... */\n    tag_4:\n      tag_13\n      0x04\n      dup1\n      calldatasize\n      sub\n      dup2\n      add\n      swap1\n      tag_14\n      swap2\n      swap1\n      tag_15\n      jump\t// in\n    tag_14:\n      tag_16\n      jump\t// in\n    tag_13:\n      mload(0x40)\n      tag_17\n      swap2\n      swap1\n      tag_18\n      jump\t// in\n    tag_17:\n      mload(0x40)\n      dup1\n      swap2\n      sub\n      swap1\n      return\n        /* \"TodoList.sol\":320:368  mapping(address => uint256) public userTaskCount */\n    tag_5:\n      tag_19\n      0x04\n      dup1\n      calldatasize\n      sub\n      dup2\n      add\n      swap1\n      tag_20\n      swap2\n      swap1\n      tag_15\n      jump\t// in\n    tag_20:\n      tag_21\n      jump\t// in\n    tag_19:\n      mload(0x40)\n      tag_22\n      swap2\n      swap1\n      tag_23\n      jump\t// in\n    tag_22:\n      mload(0x40)\n      dup1\n      swap2\n      sub\n      swap1\n      return\n        /* \"TodoList.sol\":930:1211  function toggleTaskCompleted(uint256 _id) public {... */\n    tag_6:\n      tag_24\n      0x04\n      dup1\n      calldatasize\n      sub\n      dup2\n      add\n      swap1\n      tag_25\n      swap2\n      swap1\n      tag_26\n      jump\t// in\n    tag_25:\n      tag_27\n      jump\t// in\n    tag_24:\n      stop\n        /* \"TodoList.sol\":257:314  mapping(address => mapping(uint256 => Task)) public tasks */\n    tag_7:\n      tag_28\n      0x04\n      dup1\n      calldatasize\n      sub\n      dup2\n      add\n      swap1\n      tag_29\n      swap2\n      swap1\n      tag_30\n      jump\t// in\n    tag_29:\n      tag_31\n      jump\t// in\n    tag_28:\n      mload(0x40)\n      tag_32\n      swap4\n      swap3\n      swap2\n      swap1\n      tag_33\n      jump\t// in\n    tag_32:\n      mload(0x40)\n      dup1\n      swap2\n      sub\n      swap1\n      return\n        /* \"TodoList.sol\":81:109  uint256 public taskCount = 0 */\n    tag_8:\n      tag_34\n      tag_35\n      jump\t// in\n    tag_34:\n      mload(0x40)\n      tag_36\n      swap2\n      swap1\n      tag_23\n      jump\t// in\n    tag_36:\n      mload(0x40)\n      dup1\n      swap2\n      sub\n      swap1\n      return\n        /* \"TodoList.sol\":576:865  function createTask(string memory _content) public {... */\n    tag_12:\n        /* \"TodoList.sol\":637:650  userTaskCount */\n      0x02\n        /* \"TodoList.sol\":637:662  userTaskCount[msg.sender] */\n      0x00\n        /* \"TodoList.sol\":651:661  msg.sender */\n      caller\n        /* \"TodoList.sol\":637:662  userTaskCount[msg.sender] */\n      0xffffffffffffffffffffffffffffffffffffffff\n      and\n      0xffffffffffffffffffffffffffffffffffffffff\n      and\n      dup2\n      mstore\n      0x20\n      add\n      swap1\n      dup2\n      mstore\n      0x20\n      add\n      0x00\n      keccak256\n      0x00\n        /* \"TodoList.sol\":637:664  userTaskCount[msg.sender]++ */\n      dup2\n      sload\n      dup1\n      swap3\n      swap2\n      swap1\n      tag_38\n      swap1\n      tag_39\n      jump\t// in\n    tag_38:\n      swap2\n      swap1\n      pop\n      sstore\n      pop\n        /* \"TodoList.sol\":674:691  uint256 newTaskId */\n      0x00\n        /* \"TodoList.sol\":694:707  userTaskCount */\n      0x02\n        /* \"TodoList.sol\":694:719  userTaskCount[msg.sender] */\n      0x00\n        /* \"TodoList.sol\":708:718  msg.sender */\n      caller\n        /* \"TodoList.sol\":694:719  userTaskCount[msg.sender] */\n      0xffffffffffffffffffffffffffffffffffffffff\n      and\n      0xffffffffffffffffffffffffffffffffffffffff\n      and\n      dup2\n      mstore\n      0x20\n      add\n      swap1\n      dup2\n      mstore\n      0x20\n      add\n      0x00\n      keccak256\n      sload\n        /* \"TodoList.sol\":674:719  uint256 newTaskId = userTaskCount[msg.sender] */\n      swap1\n      pop\n        /* \"TodoList.sol\":760:792  Task(newTaskId, _content, false) */\n      mload(0x40)\n      dup1\n      0x60\n      add\n      0x40\n      mstore\n      dup1\n        /* \"TodoList.sol\":765:774  newTaskId */\n      dup3\n        /* \"TodoList.sol\":760:792  Task(newTaskId, _content, false) */\n      dup2\n      mstore\n      0x20\n      add\n        /* \"TodoList.sol\":776:784  _content */\n      dup4\n        /* \"TodoList.sol\":760:792  Task(newTaskId, _content, false) */\n      dup2\n      mstore\n      0x20\n      add\n        /* \"TodoList.sol\":786:791  false */\n      0x00\n        /* \"TodoList.sol\":760:792  Task(newTaskId, _content, false) */\n      iszero\n      iszero\n      dup2\n      mstore\n      pop\n        /* \"TodoList.sol\":729:734  tasks */\n      0x01\n        /* \"TodoList.sol\":729:746  tasks[msg.sender] */\n      0x00\n        /* \"TodoList.sol\":735:745  msg.sender */\n      caller\n        /* \"TodoList.sol\":729:746  tasks[msg.sender] */\n      0xffffffffffffffffffffffffffffffffffffffff\n      and\n      0xffffffffffffffffffffffffffffffffffffffff\n      and\n      dup2\n      mstore\n      0x20\n      add\n      swap1\n      dup2\n      mstore\n      0x20\n      add\n      0x00\n      keccak256\n        /* \"TodoList.sol\":729:757  tasks[msg.sender][newTaskId] */\n      0x00\n        /* \"TodoList.sol\":747:756  newTaskId */\n      dup4\n        /* \"TodoList.sol\":729:757  tasks[msg.sender][newTaskId] */\n      dup2\n      mstore\n      0x20\n      add\n      swap1\n      dup2\n      mstore\n      0x20\n      add\n      0x00\n      keccak256\n        /* \"TodoList.sol\":729:792  tasks[msg.sender][newTaskId] = Task(newTaskId, _content, false) */\n      0x00\n      dup3\n      add\n      mload\n      dup2\n      0x00\n      add\n      sstore\n      0x20\n      dup3\n      add\n      mload\n      dup2\n      0x01\n      add\n      swap1\n      dup2\n      tag_40\n      swap2\n      swap1\n      tag_41\n      jump\t// in\n    tag_40:\n      pop\n      0x40\n      dup3\n      add\n      mload\n      dup2\n      0x02\n      add\n      exp(0x0100, 0x00)\n      dup2\n      sload\n      dup2\n      0xff\n      mul\n      not\n      and\n      swap1\n      dup4\n      iszero\n      iszero\n      mul\n      or\n      swap1\n      sstore\n      pop\n      swap1\n      pop\n      pop\n        /* \"TodoList.sol\":807:858  TaskCreated(msg.sender, newTaskId, _content, false) */\n      0x75c843b034b367a7ce9e041b36cf7856dba0d7e8eb42159baf7dce38313e19ef\n        /* \"TodoList.sol\":819:829  msg.sender */\n      caller\n        /* \"TodoList.sol\":831:840  newTaskId */\n      dup3\n        /* \"TodoList.sol\":842:850  _content */\n      dup5\n        /* \"TodoList.sol\":852:857  false */\n      0x00\n        /* \"TodoList.sol\":807:858  TaskCreated(msg.sender, newTaskId, _content, false) */\n      mload(0x40)\n      tag_42\n      swap5\n      swap4\n      swap3\n      swap2\n      swap1\n      tag_43\n      jump\t// in\n    tag_42:\n      mload(0x40)\n      dup1\n      swap2\n      sub\n      swap1\n      log1\n        /* \"TodoList.sol\":627:865  {... */\n      pop\n        /* \"TodoList.sol\":576:865  function createTask(string memory _content) public {... */\n      pop\n      jump\t// out\n        /* \"TodoList.sol\":1306:1654  function getAllTasksByUser(address _user) public view returns (Task[] memory) {... */\n    tag_16:\n        /* \"TodoList.sol\":1369:1382  Task[] memory */\n      0x60\n        /* \"TodoList.sol\":1394:1404  uint count */\n      0x00\n        /* \"TodoList.sol\":1407:1420  userTaskCount */\n      0x02\n        /* \"TodoList.sol\":1407:1427  userTaskCount[_user] */\n      0x00\n        /* \"TodoList.sol\":1421:1426  _user */\n      dup5\n        /* \"TodoList.sol\":1407:1427  userTaskCount[_user] */\n      0xffffffffffffffffffffffffffffffffffffffff\n      and\n      0xffffffffffffffffffffffffffffffffffffffff\n      and\n      dup2\n      mstore\n      0x20\n      add\n      swap1\n      dup2\n      mstore\n      0x20\n      add\n      0x00\n      keccak256\n      sload\n        /* \"TodoList.sol\":1394:1427  uint count = userTaskCount[_user] */\n      swap1\n      pop\n        /* \"TodoList.sol\":1437:1460  Task[] memory userTasks */\n      0x00\n        /* \"TodoList.sol\":1474:1479  count */\n      dup2\n        /* \"TodoList.sol\":1463:1480  new Task[](count) */\n      0xffffffffffffffff\n      dup2\n      gt\n      iszero\n      tag_45\n      jumpi\n      tag_46\n      tag_47\n      jump\t// in\n    tag_46:\n    tag_45:\n      mload(0x40)\n      swap1\n      dup1\n      dup3\n      mstore\n      dup1\n      0x20\n      mul\n      0x20\n      add\n      dup3\n      add\n      0x40\n      mstore\n      dup1\n      iszero\n      tag_48\n      jumpi\n      dup2\n      0x20\n      add\n    tag_49:\n      tag_50\n      tag_51\n      jump\t// in\n    tag_50:\n      dup2\n      mstore\n      0x20\n      add\n      swap1\n      0x01\n      swap1\n      sub\n      swap1\n      dup2\n      tag_49\n      jumpi\n      swap1\n      pop\n    tag_48:\n      pop\n        /* \"TodoList.sol\":1437:1480  Task[] memory userTasks = new Task[](count) */\n      swap1\n      pop\n        /* \"TodoList.sol\":1496:1502  uint i */\n      0x00\n        /* \"TodoList.sol\":1505:1506  1 */\n      0x01\n        /* \"TodoList.sol\":1496:1506  uint i = 1 */\n      swap1\n      pop\n        /* \"TodoList.sol\":1491:1621  for (uint i = 1; i <= count; i++) {... */\n    tag_52:\n        /* \"TodoList.sol\":1513:1518  count */\n      dup3\n        /* \"TodoList.sol\":1508:1509  i */\n      dup2\n        /* \"TodoList.sol\":1508:1518  i <= count */\n      gt\n        /* \"TodoList.sol\":1491:1621  for (uint i = 1; i <= count; i++) {... */\n      tag_53\n      jumpi\n        /* \"TodoList.sol\":1539:1555  Task memory task */\n      0x00\n        /* \"TodoList.sol\":1558:1563  tasks */\n      0x01\n        /* \"TodoList.sol\":1558:1570  tasks[_user] */\n      0x00\n        /* \"TodoList.sol\":1564:1569  _user */\n      dup8\n        /* \"TodoList.sol\":1558:1570  tasks[_user] */\n      0xffffffffffffffffffffffffffffffffffffffff\n      and\n      0xffffffffffffffffffffffffffffffffffffffff\n      and\n      dup2\n      mstore\n      0x20\n      add\n      swap1\n      dup2\n      mstore\n      0x20\n      add\n      0x00\n      keccak256\n        /* \"TodoList.sol\":1558:1573  tasks[_user][i] */\n      0x00\n        /* \"TodoList.sol\":1571:1572  i */\n      dup4\n        /* \"TodoList.sol\":1558:1573  tasks[_user][i] */\n      dup2\n      mstore\n      0x20\n      add\n      swap1\n      dup2\n      mstore\n      0x20\n      add\n      0x00\n      keccak256\n        /* \"TodoList.sol\":1539:1573  Task memory task = tasks[_user][i] */\n      mload(0x40)\n      dup1\n      0x60\n      add\n      0x40\n      mstore\n      swap1\n      dup2\n      0x00\n      dup3\n      add\n      sload\n      dup2\n      mstore\n      0x20\n      add\n      0x01\n      dup3\n      add\n      dup1\n      sload\n      tag_55\n      swap1\n      tag_56\n      jump\t// in\n    tag_55:\n      dup1\n      0x1f\n      add\n      0x20\n      dup1\n      swap2\n      div\n      mul\n      0x20\n      add\n      mload(0x40)\n      swap1\n      dup2\n      add\n      0x40\n      mstore\n      dup1\n      swap3\n      swap2\n      swap1\n      dup2\n      dup2\n      mstore\n      0x20\n      add\n      dup3\n      dup1\n      sload\n      tag_57\n      swap1\n      tag_56\n      jump\t// in\n    tag_57:\n      dup1\n      iszero\n      tag_58\n      jumpi\n      dup1\n      0x1f\n      lt\n      tag_59\n      jumpi\n      0x0100\n      dup1\n      dup4\n      sload\n      div\n      mul\n      dup4\n      mstore\n      swap2\n      0x20\n      add\n      swap2\n      jump(tag_58)\n    tag_59:\n      dup3\n      add\n      swap2\n      swap1\n      0x00\n      mstore\n      keccak256(0x00, 0x20)\n      swap1\n    tag_60:\n      dup2\n      sload\n      dup2\n      mstore\n      swap1\n      0x01\n      add\n      swap1\n      0x20\n      add\n      dup1\n      dup4\n      gt\n      tag_60\n      jumpi\n      dup3\n      swap1\n      sub\n      0x1f\n      and\n      dup3\n      add\n      swap2\n    tag_58:\n      pop\n      pop\n      pop\n      pop\n      pop\n      dup2\n      mstore\n      0x20\n      add\n      0x02\n      dup3\n      add\n      0x00\n      swap1\n      sload\n      swap1\n      0x0100\n      exp\n      swap1\n      div\n      0xff\n      and\n      iszero\n      iszero\n      iszero\n      iszero\n      dup2\n      mstore\n      pop\n      pop\n      swap1\n      pop\n        /* \"TodoList.sol\":1606:1610  task */\n      dup1\n        /* \"TodoList.sol\":1587:1596  userTasks */\n      dup4\n        /* \"TodoList.sol\":1601:1602  1 */\n      0x01\n        /* \"TodoList.sol\":1597:1598  i */\n      dup5\n        /* \"TodoList.sol\":1597:1602  i - 1 */\n      tag_61\n      swap2\n      swap1\n      tag_62\n      jump\t// in\n    tag_61:\n        /* \"TodoList.sol\":1587:1603  userTasks[i - 1] */\n      dup2\n      mload\n      dup2\n      lt\n      tag_63\n      jumpi\n      tag_64\n      tag_65\n      jump\t// in\n    tag_64:\n    tag_63:\n      0x20\n      mul\n      0x20\n      add\n      add\n        /* \"TodoList.sol\":1587:1610  userTasks[i - 1] = task */\n      dup2\n      swap1\n      mstore\n      pop\n        /* \"TodoList.sol\":1525:1621  {... */\n      pop\n        /* \"TodoList.sol\":1520:1523  i++ */\n      dup1\n      dup1\n      tag_66\n      swap1\n      tag_39\n      jump\t// in\n    tag_66:\n      swap2\n      pop\n      pop\n        /* \"TodoList.sol\":1491:1621  for (uint i = 1; i <= count; i++) {... */\n      jump(tag_52)\n    tag_53:\n      pop\n        /* \"TodoList.sol\":1638:1647  userTasks */\n      dup1\n        /* \"TodoList.sol\":1631:1647  return userTasks */\n      swap3\n      pop\n      pop\n      pop\n        /* \"TodoList.sol\":1306:1654  function getAllTasksByUser(address _user) public view returns (Task[] memory) {... */\n      swap2\n      swap1\n      pop\n      jump\t// out\n        /* \"TodoList.sol\":320:368  mapping(address => uint256) public userTaskCount */\n    tag_21:\n      mstore(0x20, 0x02)\n      dup1\n      0x00\n      mstore\n      keccak256(0x00, 0x40)\n      0x00\n      swap2\n      pop\n      swap1\n      pop\n      sload\n      dup2\n      jump\t// out\n        /* \"TodoList.sol\":930:1211  function toggleTaskCompleted(uint256 _id) public {... */\n    tag_27:\n        /* \"TodoList.sol\":989:1006  Task storage task */\n      0x00\n        /* \"TodoList.sol\":1009:1014  tasks */\n      0x01\n        /* \"TodoList.sol\":1009:1026  tasks[msg.sender] */\n      0x00\n        /* \"TodoList.sol\":1015:1025  msg.sender */\n      caller\n        /* \"TodoList.sol\":1009:1026  tasks[msg.sender] */\n      0xffffffffffffffffffffffffffffffffffffffff\n      and\n      0xffffffffffffffffffffffffffffffffffffffff\n      and\n      dup2\n      mstore\n      0x20\n      add\n      swap1\n      dup2\n      mstore\n      0x20\n      add\n      0x00\n      keccak256\n        /* \"TodoList.sol\":1009:1031  tasks[msg.sender][_id] */\n      0x00\n        /* \"TodoList.sol\":1027:1030  _id */\n      dup4\n        /* \"TodoList.sol\":1009:1031  tasks[msg.sender][_id] */\n      dup2\n      mstore\n      0x20\n      add\n      swap1\n      dup2\n      mstore\n      0x20\n      add\n      0x00\n      keccak256\n        /* \"TodoList.sol\":989:1031  Task storage task = tasks[msg.sender][_id] */\n      swap1\n      pop\n        /* \"TodoList.sol\":1060:1061  0 */\n      0x00\n        /* \"TodoList.sol\":1049:1053  task */\n      dup2\n        /* \"TodoList.sol\":1049:1056  task.id */\n      0x00\n      add\n      sload\n        /* \"TodoList.sol\":1049:1061  task.id != 0 */\n      sub\n        /* \"TodoList.sol\":1041:1080  require(task.id != 0, \"Task not found\") */\n      tag_68\n      jumpi\n      mload(0x40)\n      0x08c379a000000000000000000000000000000000000000000000000000000000\n      dup2\n      mstore\n      0x04\n      add\n      tag_69\n      swap1\n      tag_70\n      jump\t// in\n    tag_69:\n      mload(0x40)\n      dup1\n      swap2\n      sub\n      swap1\n      revert\n    tag_68:\n        /* \"TodoList.sol\":1129:1133  task */\n      dup1\n        /* \"TodoList.sol\":1129:1143  task.completed */\n      0x02\n      add\n      0x00\n      swap1\n      sload\n      swap1\n      0x0100\n      exp\n      swap1\n      div\n      0xff\n      and\n        /* \"TodoList.sol\":1128:1143  !task.completed */\n      iszero\n        /* \"TodoList.sol\":1111:1115  task */\n      dup2\n        /* \"TodoList.sol\":1111:1125  task.completed */\n      0x02\n      add\n      0x00\n        /* \"TodoList.sol\":1111:1143  task.completed = !task.completed */\n      0x0100\n      exp\n      dup2\n      sload\n      dup2\n      0xff\n      mul\n      not\n      and\n      swap1\n      dup4\n      iszero\n      iszero\n      mul\n      or\n      swap1\n      sstore\n      pop\n        /* \"TodoList.sol\":1158:1204  TaskCompleted(msg.sender, _id, task.completed) */\n      0x3621461a70da48fecf8452ce0a2af8773e6f26aff6a39e0504d0d9c51c603206\n        /* \"TodoList.sol\":1172:1182  msg.sender */\n      caller\n        /* \"TodoList.sol\":1184:1187  _id */\n      dup4\n        /* \"TodoList.sol\":1189:1193  task */\n      dup4\n        /* \"TodoList.sol\":1189:1203  task.completed */\n      0x02\n      add\n      0x00\n      swap1\n      sload\n      swap1\n      0x0100\n      exp\n      swap1\n      div\n      0xff\n      and\n        /* \"TodoList.sol\":1158:1204  TaskCompleted(msg.sender, _id, task.completed) */\n      mload(0x40)\n      tag_71\n      swap4\n      swap3\n      swap2\n      swap1\n      tag_72\n      jump\t// in\n    tag_71:\n      mload(0x40)\n      dup1\n      swap2\n      sub\n      swap1\n      log1\n        /* \"TodoList.sol\":979:1211  {... */\n      pop\n        /* \"TodoList.sol\":930:1211  function toggleTaskCompleted(uint256 _id) public {... */\n      pop\n      jump\t// out\n        /* \"TodoList.sol\":257:314  mapping(address => mapping(uint256 => Task)) public tasks */\n    tag_31:\n      mstore(0x20, 0x01)\n      dup2\n      0x00\n      mstore\n      mstore(0x20, keccak256(0x00, 0x40))\n      dup1\n      0x00\n      mstore\n      keccak256(0x00, 0x40)\n      0x00\n      swap2\n      pop\n      swap2\n      pop\n      pop\n      dup1\n      0x00\n      add\n      sload\n      swap1\n      dup1\n      0x01\n      add\n      dup1\n      sload\n      tag_73\n      swap1\n      tag_56\n      jump\t// in\n    tag_73:\n      dup1\n      0x1f\n      add\n      0x20\n      dup1\n      swap2\n      div\n      mul\n      0x20\n      add\n      mload(0x40)\n      swap1\n      dup2\n      add\n      0x40\n      mstore\n      dup1\n      swap3\n      swap2\n      swap1\n      dup2\n      dup2\n      mstore\n      0x20\n      add\n      dup3\n      dup1\n      sload\n      tag_74\n      swap1\n      tag_56\n      jump\t// in\n    tag_74:\n      dup1\n      iszero\n      tag_75\n      jumpi\n      dup1\n      0x1f\n      lt\n      tag_76\n      jumpi\n      0x0100\n      dup1\n      dup4\n      sload\n      div\n      mul\n      dup4\n      mstore\n      swap2\n      0x20\n      add\n      swap2\n      jump(tag_75)\n    tag_76:\n      dup3\n      add\n      swap2\n      swap1\n      0x00\n      mstore\n      keccak256(0x00, 0x20)\n      swap1\n    tag_77:\n      dup2\n      sload\n      dup2\n      mstore\n      swap1\n      0x01\n      add\n      swap1\n      0x20\n      add\n      dup1\n      dup4\n      gt\n      tag_77\n      jumpi\n      dup3\n      swap1\n      sub\n      0x1f\n      and\n      dup3\n      add\n      swap2\n    tag_75:\n      pop\n      pop\n      pop\n      pop\n      pop\n      swap1\n      dup1\n      0x02\n      add\n      0x00\n      swap1\n      sload\n      swap1\n      0x0100\n      exp\n      swap1\n      div\n      0xff\n      and\n      swap1\n      pop\n      dup4\n      jump\t// out\n        /* \"TodoList.sol\":81:109  uint256 public taskCount = 0 */\n    tag_35:\n      sload(0x00)\n      dup2\n      jump\t// out\n    tag_51:\n      mload(0x40)\n      dup1\n      0x60\n      add\n      0x40\n      mstore\n      dup1\n      0x00\n      dup2\n      mstore\n      0x20\n      add\n      0x60\n      dup2\n      mstore\n      0x20\n      add\n      iszero(iszero(0x00))\n      dup2\n      mstore\n      pop\n      swap1\n      jump\t// out\n        /* \"#utility.yul\":7:82   */\n    tag_78:\n        /* \"#utility.yul\":40:46   */\n      0x00\n        /* \"#utility.yul\":73:75   */\n      0x40\n        /* \"#utility.yul\":67:76   */\n      mload\n        /* \"#utility.yul\":57:76   */\n      swap1\n      pop\n        /* \"#utility.yul\":7:82   */\n      swap1\n      jump\t// out\n        /* \"#utility.yul\":88:205   */\n    tag_79:\n        /* \"#utility.yul\":197:198   */\n      0x00\n        /* \"#utility.yul\":194:195   */\n      dup1\n        /* \"#utility.yul\":187:199   */\n      revert\n        /* \"#utility.yul\":211:328   */\n    tag_80:\n        /* \"#utility.yul\":320:321   */\n      0x00\n        /* \"#utility.yul\":317:318   */\n      dup1\n        /* \"#utility.yul\":310:322   */\n      revert\n        /* \"#utility.yul\":334:451   */\n    tag_81:\n        /* \"#utility.yul\":443:444   */\n      0x00\n        /* \"#utility.yul\":440:441   */\n      dup1\n        /* \"#utility.yul\":433:445   */\n      revert\n        /* \"#utility.yul\":457:574   */\n    tag_82:\n        /* \"#utility.yul\":566:567   */\n      0x00\n        /* \"#utility.yul\":563:564   */\n      dup1\n        /* \"#utility.yul\":556:568   */\n      revert\n        /* \"#utility.yul\":580:682   */\n    tag_83:\n        /* \"#utility.yul\":621:627   */\n      0x00\n        /* \"#utility.yul\":672:674   */\n      0x1f\n        /* \"#utility.yul\":668:675   */\n      not\n        /* \"#utility.yul\":663:665   */\n      0x1f\n        /* \"#utility.yul\":656:661   */\n      dup4\n        /* \"#utility.yul\":652:666   */\n      add\n        /* \"#utility.yul\":648:676   */\n      and\n        /* \"#utility.yul\":638:676   */\n      swap1\n      pop\n        /* \"#utility.yul\":580:682   */\n      swap2\n      swap1\n      pop\n      jump\t// out\n        /* \"#utility.yul\":688:868   */\n    tag_47:\n        /* \"#utility.yul\":736:813   */\n      0x4e487b7100000000000000000000000000000000000000000000000000000000\n        /* \"#utility.yul\":733:734   */\n      0x00\n        /* \"#utility.yul\":726:814   */\n      mstore\n        /* \"#utility.yul\":833:837   */\n      0x41\n        /* \"#utility.yul\":830:831   */\n      0x04\n        /* \"#utility.yul\":823:838   */\n      mstore\n        /* \"#utility.yul\":857:861   */\n      0x24\n        /* \"#utility.yul\":854:855   */\n      0x00\n        /* \"#utility.yul\":847:862   */\n      revert\n        /* \"#utility.yul\":874:1155   */\n    tag_84:\n        /* \"#utility.yul\":957:984   */\n      tag_144\n        /* \"#utility.yul\":979:983   */\n      dup3\n        /* \"#utility.yul\":957:984   */\n      tag_83\n      jump\t// in\n    tag_144:\n        /* \"#utility.yul\":949:955   */\n      dup2\n        /* \"#utility.yul\":945:985   */\n      add\n        /* \"#utility.yul\":1087:1093   */\n      dup2\n        /* \"#utility.yul\":1075:1085   */\n      dup2\n        /* \"#utility.yul\":1072:1094   */\n      lt\n        /* \"#utility.yul\":1051:1069   */\n      0xffffffffffffffff\n        /* \"#utility.yul\":1039:1049   */\n      dup3\n        /* \"#utility.yul\":1036:1070   */\n      gt\n        /* \"#utility.yul\":1033:1095   */\n      or\n        /* \"#utility.yul\":1030:1118   */\n      iszero\n      tag_145\n      jumpi\n        /* \"#utility.yul\":1098:1116   */\n      tag_146\n      tag_47\n      jump\t// in\n    tag_146:\n        /* \"#utility.yul\":1030:1118   */\n    tag_145:\n        /* \"#utility.yul\":1138:1148   */\n      dup1\n        /* \"#utility.yul\":1134:1136   */\n      0x40\n        /* \"#utility.yul\":1127:1149   */\n      mstore\n        /* \"#utility.yul\":917:1155   */\n      pop\n        /* \"#utility.yul\":874:1155   */\n      pop\n      pop\n      jump\t// out\n        /* \"#utility.yul\":1161:1290   */\n    tag_85:\n        /* \"#utility.yul\":1195:1201   */\n      0x00\n        /* \"#utility.yul\":1222:1242   */\n      tag_148\n      tag_78\n      jump\t// in\n    tag_148:\n        /* \"#utility.yul\":1212:1242   */\n      swap1\n      pop\n        /* \"#utility.yul\":1251:1284   */\n      tag_149\n        /* \"#utility.yul\":1279:1283   */\n      dup3\n        /* \"#utility.yul\":1271:1277   */\n      dup3\n        /* \"#utility.yul\":1251:1284   */\n      tag_84\n      jump\t// in\n    tag_149:\n        /* \"#utility.yul\":1161:1290   */\n      swap2\n      swap1\n      pop\n      jump\t// out\n        /* \"#utility.yul\":1296:1604   */\n    tag_86:\n        /* \"#utility.yul\":1358:1362   */\n      0x00\n        /* \"#utility.yul\":1448:1466   */\n      0xffffffffffffffff\n        /* \"#utility.yul\":1440:1446   */\n      dup3\n        /* \"#utility.yul\":1437:1467   */\n      gt\n        /* \"#utility.yul\":1434:1490   */\n      iszero\n      tag_151\n      jumpi\n        /* \"#utility.yul\":1470:1488   */\n      tag_152\n      tag_47\n      jump\t// in\n    tag_152:\n        /* \"#utility.yul\":1434:1490   */\n    tag_151:\n        /* \"#utility.yul\":1508:1537   */\n      tag_153\n        /* \"#utility.yul\":1530:1536   */\n      dup3\n        /* \"#utility.yul\":1508:1537   */\n      tag_83\n      jump\t// in\n    tag_153:\n        /* \"#utility.yul\":1500:1537   */\n      swap1\n      pop\n        /* \"#utility.yul\":1592:1596   */\n      0x20\n        /* \"#utility.yul\":1586:1590   */\n      dup2\n        /* \"#utility.yul\":1582:1597   */\n      add\n        /* \"#utility.yul\":1574:1597   */\n      swap1\n      pop\n        /* \"#utility.yul\":1296:1604   */\n      swap2\n      swap1\n      pop\n      jump\t// out\n        /* \"#utility.yul\":1610:1758   */\n    tag_87:\n        /* \"#utility.yul\":1708:1714   */\n      dup3\n        /* \"#utility.yul\":1703:1706   */\n      dup2\n        /* \"#utility.yul\":1698:1701   */\n      dup4\n        /* \"#utility.yul\":1685:1715   */\n      calldatacopy\n        /* \"#utility.yul\":1749:1750   */\n      0x00\n        /* \"#utility.yul\":1740:1746   */\n      dup4\n        /* \"#utility.yul\":1735:1738   */\n      dup4\n        /* \"#utility.yul\":1731:1747   */\n      add\n        /* \"#utility.yul\":1724:1751   */\n      mstore\n        /* \"#utility.yul\":1610:1758   */\n      pop\n      pop\n      pop\n      jump\t// out\n        /* \"#utility.yul\":1764:2189   */\n    tag_88:\n        /* \"#utility.yul\":1842:1847   */\n      0x00\n        /* \"#utility.yul\":1867:1933   */\n      tag_156\n        /* \"#utility.yul\":1883:1932   */\n      tag_157\n        /* \"#utility.yul\":1925:1931   */\n      dup5\n        /* \"#utility.yul\":1883:1932   */\n      tag_86\n      jump\t// in\n    tag_157:\n        /* \"#utility.yul\":1867:1933   */\n      tag_85\n      jump\t// in\n    tag_156:\n        /* \"#utility.yul\":1858:1933   */\n      swap1\n      pop\n        /* \"#utility.yul\":1956:1962   */\n      dup3\n        /* \"#utility.yul\":1949:1954   */\n      dup2\n        /* \"#utility.yul\":1942:1963   */\n      mstore\n        /* \"#utility.yul\":1994:1998   */\n      0x20\n        /* \"#utility.yul\":1987:1992   */\n      dup2\n        /* \"#utility.yul\":1983:1999   */\n      add\n        /* \"#utility.yul\":2032:2035   */\n      dup5\n        /* \"#utility.yul\":2023:2029   */\n      dup5\n        /* \"#utility.yul\":2018:2021   */\n      dup5\n        /* \"#utility.yul\":2014:2030   */\n      add\n        /* \"#utility.yul\":2011:2036   */\n      gt\n        /* \"#utility.yul\":2008:2120   */\n      iszero\n      tag_158\n      jumpi\n        /* \"#utility.yul\":2039:2118   */\n      tag_159\n      tag_82\n      jump\t// in\n    tag_159:\n        /* \"#utility.yul\":2008:2120   */\n    tag_158:\n        /* \"#utility.yul\":2129:2183   */\n      tag_160\n        /* \"#utility.yul\":2176:2182   */\n      dup5\n        /* \"#utility.yul\":2171:2174   */\n      dup3\n        /* \"#utility.yul\":2166:2169   */\n      dup6\n        /* \"#utility.yul\":2129:2183   */\n      tag_87\n      jump\t// in\n    tag_160:\n        /* \"#utility.yul\":1848:2189   */\n      pop\n        /* \"#utility.yul\":1764:2189   */\n      swap4\n      swap3\n      pop\n      pop\n      pop\n      jump\t// out\n        /* \"#utility.yul\":2209:2549   */\n    tag_89:\n        /* \"#utility.yul\":2265:2270   */\n      0x00\n        /* \"#utility.yul\":2314:2317   */\n      dup3\n        /* \"#utility.yul\":2307:2311   */\n      0x1f\n        /* \"#utility.yul\":2299:2305   */\n      dup4\n        /* \"#utility.yul\":2295:2312   */\n      add\n        /* \"#utility.yul\":2291:2318   */\n      slt\n        /* \"#utility.yul\":2281:2403   */\n      tag_162\n      jumpi\n        /* \"#utility.yul\":2322:2401   */\n      tag_163\n      tag_81\n      jump\t// in\n    tag_163:\n        /* \"#utility.yul\":2281:2403   */\n    tag_162:\n        /* \"#utility.yul\":2439:2445   */\n      dup2\n        /* \"#utility.yul\":2426:2446   */\n      calldataload\n        /* \"#utility.yul\":2464:2543   */\n      tag_164\n        /* \"#utility.yul\":2539:2542   */\n      dup5\n        /* \"#utility.yul\":2531:2537   */\n      dup3\n        /* \"#utility.yul\":2524:2528   */\n      0x20\n        /* \"#utility.yul\":2516:2522   */\n      dup7\n        /* \"#utility.yul\":2512:2529   */\n      add\n        /* \"#utility.yul\":2464:2543   */\n      tag_88\n      jump\t// in\n    tag_164:\n        /* \"#utility.yul\":2455:2543   */\n      swap2\n      pop\n        /* \"#utility.yul\":2271:2549   */\n      pop\n        /* \"#utility.yul\":2209:2549   */\n      swap3\n      swap2\n      pop\n      pop\n      jump\t// out\n        /* \"#utility.yul\":2555:3064   */\n    tag_11:\n        /* \"#utility.yul\":2624:2630   */\n      0x00\n        /* \"#utility.yul\":2673:2675   */\n      0x20\n        /* \"#utility.yul\":2661:2670   */\n      dup3\n        /* \"#utility.yul\":2652:2659   */\n      dup5\n        /* \"#utility.yul\":2648:2671   */\n      sub\n        /* \"#utility.yul\":2644:2676   */\n      slt\n        /* \"#utility.yul\":2641:2760   */\n      iszero\n      tag_166\n      jumpi\n        /* \"#utility.yul\":2679:2758   */\n      tag_167\n      tag_79\n      jump\t// in\n    tag_167:\n        /* \"#utility.yul\":2641:2760   */\n    tag_166:\n        /* \"#utility.yul\":2827:2828   */\n      0x00\n        /* \"#utility.yul\":2816:2825   */\n      dup3\n        /* \"#utility.yul\":2812:2829   */\n      add\n        /* \"#utility.yul\":2799:2830   */\n      calldataload\n        /* \"#utility.yul\":2857:2875   */\n      0xffffffffffffffff\n        /* \"#utility.yul\":2849:2855   */\n      dup2\n        /* \"#utility.yul\":2846:2876   */\n      gt\n        /* \"#utility.yul\":2843:2960   */\n      iszero\n      tag_168\n      jumpi\n        /* \"#utility.yul\":2879:2958   */\n      tag_169\n      tag_80\n      jump\t// in\n    tag_169:\n        /* \"#utility.yul\":2843:2960   */\n    tag_168:\n        /* \"#utility.yul\":2984:3047   */\n      tag_170\n        /* \"#utility.yul\":3039:3046   */\n      dup5\n        /* \"#utility.yul\":3030:3036   */\n      dup3\n        /* \"#utility.yul\":3019:3028   */\n      dup6\n        /* \"#utility.yul\":3015:3037   */\n      add\n        /* \"#utility.yul\":2984:3047   */\n      tag_89\n      jump\t// in\n    tag_170:\n        /* \"#utility.yul\":2974:3047   */\n      swap2\n      pop\n        /* \"#utility.yul\":2770:3057   */\n      pop\n        /* \"#utility.yul\":2555:3064   */\n      swap3\n      swap2\n      pop\n      pop\n      jump\t// out\n        /* \"#utility.yul\":3070:3196   */\n    tag_90:\n        /* \"#utility.yul\":3107:3114   */\n      0x00\n        /* \"#utility.yul\":3147:3189   */\n      0xffffffffffffffffffffffffffffffffffffffff\n        /* \"#utility.yul\":3140:3145   */\n      dup3\n        /* \"#utility.yul\":3136:3190   */\n      and\n        /* \"#utility.yul\":3125:3190   */\n      swap1\n      pop\n        /* \"#utility.yul\":3070:3196   */\n      swap2\n      swap1\n      pop\n      jump\t// out\n        /* \"#utility.yul\":3202:3298   */\n    tag_91:\n        /* \"#utility.yul\":3239:3246   */\n      0x00\n        /* \"#utility.yul\":3268:3292   */\n      tag_173\n        /* \"#utility.yul\":3286:3291   */\n      dup3\n        /* \"#utility.yul\":3268:3292   */\n      tag_90\n      jump\t// in\n    tag_173:\n        /* \"#utility.yul\":3257:3292   */\n      swap1\n      pop\n        /* \"#utility.yul\":3202:3298   */\n      swap2\n      swap1\n      pop\n      jump\t// out\n        /* \"#utility.yul\":3304:3426   */\n    tag_92:\n        /* \"#utility.yul\":3377:3401   */\n      tag_175\n        /* \"#utility.yul\":3395:3400   */\n      dup2\n        /* \"#utility.yul\":3377:3401   */\n      tag_91\n      jump\t// in\n    tag_175:\n        /* \"#utility.yul\":3370:3375   */\n      dup2\n        /* \"#utility.yul\":3367:3402   */\n      eq\n        /* \"#utility.yul\":3357:3420   */\n      tag_176\n      jumpi\n        /* \"#utility.yul\":3416:3417   */\n      0x00\n        /* \"#utility.yul\":3413:3414   */\n      dup1\n        /* \"#utility.yul\":3406:3418   */\n      revert\n        /* \"#utility.yul\":3357:3420   */\n    tag_176:\n        /* \"#utility.yul\":3304:3426   */\n      pop\n      jump\t// out\n        /* \"#utility.yul\":3432:3571   */\n    tag_93:\n        /* \"#utility.yul\":3478:3483   */\n      0x00\n        /* \"#utility.yul\":3516:3522   */\n      dup2\n        /* \"#utility.yul\":3503:3523   */\n      calldataload\n        /* \"#utility.yul\":3494:3523   */\n      swap1\n      pop\n        /* \"#utility.yul\":3532:3565   */\n      tag_178\n        /* \"#utility.yul\":3559:3564   */\n      dup2\n        /* \"#utility.yul\":3532:3565   */\n      tag_92\n      jump\t// in\n    tag_178:\n        /* \"#utility.yul\":3432:3571   */\n      swap3\n      swap2\n      pop\n      pop\n      jump\t// out\n        /* \"#utility.yul\":3577:3906   */\n    tag_15:\n        /* \"#utility.yul\":3636:3642   */\n      0x00\n        /* \"#utility.yul\":3685:3687   */\n      0x20\n        /* \"#utility.yul\":3673:3682   */\n      dup3\n        /* \"#utility.yul\":3664:3671   */\n      dup5\n        /* \"#utility.yul\":3660:3683   */\n      sub\n        /* \"#utility.yul\":3656:3688   */\n      slt\n        /* \"#utility.yul\":3653:3772   */\n      iszero\n      tag_180\n      jumpi\n        /* \"#utility.yul\":3691:3770   */\n      tag_181\n      tag_79\n      jump\t// in\n    tag_181:\n        /* \"#utility.yul\":3653:3772   */\n    tag_180:\n        /* \"#utility.yul\":3811:3812   */\n      0x00\n        /* \"#utility.yul\":3836:3889   */\n      tag_182\n        /* \"#utility.yul\":3881:3888   */\n      dup5\n        /* \"#utility.yul\":3872:3878   */\n      dup3\n        /* \"#utility.yul\":3861:3870   */\n      dup6\n        /* \"#utility.yul\":3857:3879   */\n      add\n        /* \"#utility.yul\":3836:3889   */\n      tag_93\n      jump\t// in\n    tag_182:\n        /* \"#utility.yul\":3826:3889   */\n      swap2\n      pop\n        /* \"#utility.yul\":3782:3899   */\n      pop\n        /* \"#utility.yul\":3577:3906   */\n      swap3\n      swap2\n      pop\n      pop\n      jump\t// out\n        /* \"#utility.yul\":3912:4046   */\n    tag_94:\n        /* \"#utility.yul\":3999:4005   */\n      0x00\n        /* \"#utility.yul\":4033:4038   */\n      dup2\n        /* \"#utility.yul\":4027:4039   */\n      mload\n        /* \"#utility.yul\":4017:4039   */\n      swap1\n      pop\n        /* \"#utility.yul\":3912:4046   */\n      swap2\n      swap1\n      pop\n      jump\t// out\n        /* \"#utility.yul\":4052:4256   */\n    tag_95:\n        /* \"#utility.yul\":4171:4182   */\n      0x00\n        /* \"#utility.yul\":4205:4211   */\n      dup3\n        /* \"#utility.yul\":4200:4203   */\n      dup3\n        /* \"#utility.yul\":4193:4212   */\n      mstore\n        /* \"#utility.yul\":4245:4249   */\n      0x20\n        /* \"#utility.yul\":4240:4243   */\n      dup3\n        /* \"#utility.yul\":4236:4250   */\n      add\n        /* \"#utility.yul\":4221:4250   */\n      swap1\n      pop\n        /* \"#utility.yul\":4052:4256   */\n      swap3\n      swap2\n      pop\n      pop\n      jump\t// out\n        /* \"#utility.yul\":4262:4414   */\n    tag_96:\n        /* \"#utility.yul\":4349:4353   */\n      0x00\n        /* \"#utility.yul\":4372:4375   */\n      dup2\n        /* \"#utility.yul\":4364:4375   */\n      swap1\n      pop\n        /* \"#utility.yul\":4402:4406   */\n      0x20\n        /* \"#utility.yul\":4397:4400   */\n      dup3\n        /* \"#utility.yul\":4393:4407   */\n      add\n        /* \"#utility.yul\":4385:4407   */\n      swap1\n      pop\n        /* \"#utility.yul\":4262:4414   */\n      swap2\n      swap1\n      pop\n      jump\t// out\n        /* \"#utility.yul\":4420:4497   */\n    tag_97:\n        /* \"#utility.yul\":4457:4464   */\n      0x00\n        /* \"#utility.yul\":4486:4491   */\n      dup2\n        /* \"#utility.yul\":4475:4491   */\n      swap1\n      pop\n        /* \"#utility.yul\":4420:4497   */\n      swap2\n      swap1\n      pop\n      jump\t// out\n        /* \"#utility.yul\":4503:4611   */\n    tag_98:\n        /* \"#utility.yul\":4580:4604   */\n      tag_188\n        /* \"#utility.yul\":4598:4603   */\n      dup2\n        /* \"#utility.yul\":4580:4604   */\n      tag_97\n      jump\t// in\n    tag_188:\n        /* \"#utility.yul\":4575:4578   */\n      dup3\n        /* \"#utility.yul\":4568:4605   */\n      mstore\n        /* \"#utility.yul\":4503:4611   */\n      pop\n      pop\n      jump\t// out\n        /* \"#utility.yul\":4617:4716   */\n    tag_99:\n        /* \"#utility.yul\":4669:4675   */\n      0x00\n        /* \"#utility.yul\":4703:4708   */\n      dup2\n        /* \"#utility.yul\":4697:4709   */\n      mload\n        /* \"#utility.yul\":4687:4709   */\n      swap1\n      pop\n        /* \"#utility.yul\":4617:4716   */\n      swap2\n      swap1\n      pop\n      jump\t// out\n        /* \"#utility.yul\":4722:4881   */\n    tag_100:\n        /* \"#utility.yul\":4796:4807   */\n      0x00\n        /* \"#utility.yul\":4830:4836   */\n      dup3\n        /* \"#utility.yul\":4825:4828   */\n      dup3\n        /* \"#utility.yul\":4818:4837   */\n      mstore\n        /* \"#utility.yul\":4870:4874   */\n      0x20\n        /* \"#utility.yul\":4865:4868   */\n      dup3\n        /* \"#utility.yul\":4861:4875   */\n      add\n        /* \"#utility.yul\":4846:4875   */\n      swap1\n      pop\n        /* \"#utility.yul\":4722:4881   */\n      swap3\n      swap2\n      pop\n      pop\n      jump\t// out\n        /* \"#utility.yul\":4887:5026   */\n    tag_101:\n        /* \"#utility.yul\":4976:4982   */\n      dup3\n        /* \"#utility.yul\":4971:4974   */\n      dup2\n        /* \"#utility.yul\":4966:4969   */\n      dup4\n        /* \"#utility.yul\":4960:4983   */\n      mcopy\n        /* \"#utility.yul\":5017:5018   */\n      0x00\n        /* \"#utility.yul\":5008:5014   */\n      dup4\n        /* \"#utility.yul\":5003:5006   */\n      dup4\n        /* \"#utility.yul\":4999:5015   */\n      add\n        /* \"#utility.yul\":4992:5019   */\n      mstore\n        /* \"#utility.yul\":4887:5026   */\n      pop\n      pop\n      pop\n      jump\t// out\n        /* \"#utility.yul\":5032:5389   */\n    tag_102:\n        /* \"#utility.yul\":5110:5113   */\n      0x00\n        /* \"#utility.yul\":5138:5177   */\n      tag_193\n        /* \"#utility.yul\":5171:5176   */\n      dup3\n        /* \"#utility.yul\":5138:5177   */\n      tag_99\n      jump\t// in\n    tag_193:\n        /* \"#utility.yul\":5193:5254   */\n      tag_194\n        /* \"#utility.yul\":5247:5253   */\n      dup2\n        /* \"#utility.yul\":5242:5245   */\n      dup6\n        /* \"#utility.yul\":5193:5254   */\n      tag_100\n      jump\t// in\n    tag_194:\n        /* \"#utility.yul\":5186:5254   */\n      swap4\n      pop\n        /* \"#utility.yul\":5263:5328   */\n      tag_195\n        /* \"#utility.yul\":5321:5327   */\n      dup2\n        /* \"#utility.yul\":5316:5319   */\n      dup6\n        /* \"#utility.yul\":5309:5313   */\n      0x20\n        /* \"#utility.yul\":5302:5307   */\n      dup7\n        /* \"#utility.yul\":5298:5314   */\n      add\n        /* \"#utility.yul\":5263:5328   */\n      tag_101\n      jump\t// in\n    tag_195:\n        /* \"#utility.yul\":5353:5382   */\n      tag_196\n        /* \"#utility.yul\":5375:5381   */\n      dup2\n        /* \"#utility.yul\":5353:5382   */\n      tag_83\n      jump\t// in\n    tag_196:\n        /* \"#utility.yul\":5348:5351   */\n      dup5\n        /* \"#utility.yul\":5344:5383   */\n      add\n        /* \"#utility.yul\":5337:5383   */\n      swap2\n      pop\n        /* \"#utility.yul\":5114:5389   */\n      pop\n        /* \"#utility.yul\":5032:5389   */\n      swap3\n      swap2\n      pop\n      pop\n      jump\t// out\n        /* \"#utility.yul\":5395:5485   */\n    tag_103:\n        /* \"#utility.yul\":5429:5436   */\n      0x00\n        /* \"#utility.yul\":5472:5477   */\n      dup2\n        /* \"#utility.yul\":5465:5478   */\n      iszero\n        /* \"#utility.yul\":5458:5479   */\n      iszero\n        /* \"#utility.yul\":5447:5479   */\n      swap1\n      pop\n        /* \"#utility.yul\":5395:5485   */\n      swap2\n      swap1\n      pop\n      jump\t// out\n        /* \"#utility.yul\":5491:5590   */\n    tag_104:\n        /* \"#utility.yul\":5562:5583   */\n      tag_199\n        /* \"#utility.yul\":5577:5582   */\n      dup2\n        /* \"#utility.yul\":5562:5583   */\n      tag_103\n      jump\t// in\n    tag_199:\n        /* \"#utility.yul\":5557:5560   */\n      dup3\n        /* \"#utility.yul\":5550:5584   */\n      mstore\n        /* \"#utility.yul\":5491:5590   */\n      pop\n      pop\n      jump\t// out\n        /* \"#utility.yul\":5648:6408   */\n    tag_105:\n        /* \"#utility.yul\":5747:5750   */\n      0x00\n        /* \"#utility.yul\":5783:5787   */\n      0x60\n        /* \"#utility.yul\":5778:5781   */\n      dup4\n        /* \"#utility.yul\":5774:5788   */\n      add\n        /* \"#utility.yul\":5868:5872   */\n      0x00\n        /* \"#utility.yul\":5861:5866   */\n      dup4\n        /* \"#utility.yul\":5857:5873   */\n      add\n        /* \"#utility.yul\":5851:5874   */\n      mload\n        /* \"#utility.yul\":5887:5950   */\n      tag_201\n        /* \"#utility.yul\":5944:5948   */\n      0x00\n        /* \"#utility.yul\":5939:5942   */\n      dup7\n        /* \"#utility.yul\":5935:5949   */\n      add\n        /* \"#utility.yul\":5921:5933   */\n      dup3\n        /* \"#utility.yul\":5887:5950   */\n      tag_98\n      jump\t// in\n    tag_201:\n        /* \"#utility.yul\":5798:5960   */\n      pop\n        /* \"#utility.yul\":6045:6049   */\n      0x20\n        /* \"#utility.yul\":6038:6043   */\n      dup4\n        /* \"#utility.yul\":6034:6050   */\n      add\n        /* \"#utility.yul\":6028:6051   */\n      mload\n        /* \"#utility.yul\":6098:6101   */\n      dup5\n        /* \"#utility.yul\":6092:6096   */\n      dup3\n        /* \"#utility.yul\":6088:6102   */\n      sub\n        /* \"#utility.yul\":6081:6085   */\n      0x20\n        /* \"#utility.yul\":6076:6079   */\n      dup7\n        /* \"#utility.yul\":6072:6086   */\n      add\n        /* \"#utility.yul\":6065:6103   */\n      mstore\n        /* \"#utility.yul\":6124:6197   */\n      tag_202\n        /* \"#utility.yul\":6192:6196   */\n      dup3\n        /* \"#utility.yul\":6178:6190   */\n      dup3\n        /* \"#utility.yul\":6124:6197   */\n      tag_102\n      jump\t// in\n    tag_202:\n        /* \"#utility.yul\":6116:6197   */\n      swap2\n      pop\n        /* \"#utility.yul\":5970:6208   */\n      pop\n        /* \"#utility.yul\":6295:6299   */\n      0x40\n        /* \"#utility.yul\":6288:6293   */\n      dup4\n        /* \"#utility.yul\":6284:6300   */\n      add\n        /* \"#utility.yul\":6278:6301   */\n      mload\n        /* \"#utility.yul\":6314:6371   */\n      tag_203\n        /* \"#utility.yul\":6365:6369   */\n      0x40\n        /* \"#utility.yul\":6360:6363   */\n      dup7\n        /* \"#utility.yul\":6356:6370   */\n      add\n        /* \"#utility.yul\":6342:6354   */\n      dup3\n        /* \"#utility.yul\":6314:6371   */\n      tag_104\n      jump\t// in\n    tag_203:\n        /* \"#utility.yul\":6218:6381   */\n      pop\n        /* \"#utility.yul\":6398:6402   */\n      dup1\n        /* \"#utility.yul\":6391:6402   */\n      swap2\n      pop\n        /* \"#utility.yul\":5752:6408   */\n      pop\n        /* \"#utility.yul\":5648:6408   */\n      swap3\n      swap2\n      pop\n      pop\n      jump\t// out\n        /* \"#utility.yul\":6414:6650   */\n    tag_106:\n        /* \"#utility.yul\":6523:6533   */\n      0x00\n        /* \"#utility.yul\":6558:6644   */\n      tag_205\n        /* \"#utility.yul\":6640:6643   */\n      dup4\n        /* \"#utility.yul\":6632:6638   */\n      dup4\n        /* \"#utility.yul\":6558:6644   */\n      tag_105\n      jump\t// in\n    tag_205:\n        /* \"#utility.yul\":6544:6644   */\n      swap1\n      pop\n        /* \"#utility.yul\":6414:6650   */\n      swap3\n      swap2\n      pop\n      pop\n      jump\t// out\n        /* \"#utility.yul\":6656:6789   */\n    tag_107:\n        /* \"#utility.yul\":6746:6750   */\n      0x00\n        /* \"#utility.yul\":6778:6782   */\n      0x20\n        /* \"#utility.yul\":6773:6776   */\n      dup3\n        /* \"#utility.yul\":6769:6783   */\n      add\n        /* \"#utility.yul\":6761:6783   */\n      swap1\n      pop\n        /* \"#utility.yul\":6656:6789   */\n      swap2\n      swap1\n      pop\n      jump\t// out\n        /* \"#utility.yul\":6851:7922   */\n    tag_108:\n        /* \"#utility.yul\":7010:7013   */\n      0x00\n        /* \"#utility.yul\":7039:7113   */\n      tag_208\n        /* \"#utility.yul\":7107:7112   */\n      dup3\n        /* \"#utility.yul\":7039:7113   */\n      tag_94\n      jump\t// in\n    tag_208:\n        /* \"#utility.yul\":7129:7235   */\n      tag_209\n        /* \"#utility.yul\":7228:7234   */\n      dup2\n        /* \"#utility.yul\":7223:7226   */\n      dup6\n        /* \"#utility.yul\":7129:7235   */\n      tag_95\n      jump\t// in\n    tag_209:\n        /* \"#utility.yul\":7122:7235   */\n      swap4\n      pop\n        /* \"#utility.yul\":7261:7264   */\n      dup4\n        /* \"#utility.yul\":7306:7310   */\n      0x20\n        /* \"#utility.yul\":7298:7304   */\n      dup3\n        /* \"#utility.yul\":7294:7311   */\n      mul\n        /* \"#utility.yul\":7289:7292   */\n      dup6\n        /* \"#utility.yul\":7285:7312   */\n      add\n        /* \"#utility.yul\":7336:7412   */\n      tag_210\n        /* \"#utility.yul\":7406:7411   */\n      dup6\n        /* \"#utility.yul\":7336:7412   */\n      tag_96\n      jump\t// in\n    tag_210:\n        /* \"#utility.yul\":7435:7442   */\n      dup1\n        /* \"#utility.yul\":7466:7467   */\n      0x00\n        /* \"#utility.yul\":7451:7877   */\n    tag_211:\n        /* \"#utility.yul\":7476:7482   */\n      dup6\n        /* \"#utility.yul\":7473:7474   */\n      dup2\n        /* \"#utility.yul\":7470:7483   */\n      lt\n        /* \"#utility.yul\":7451:7877   */\n      iszero\n      tag_213\n      jumpi\n        /* \"#utility.yul\":7547:7556   */\n      dup5\n        /* \"#utility.yul\":7541:7545   */\n      dup5\n        /* \"#utility.yul\":7537:7557   */\n      sub\n        /* \"#utility.yul\":7532:7535   */\n      dup10\n        /* \"#utility.yul\":7525:7558   */\n      mstore\n        /* \"#utility.yul\":7598:7604   */\n      dup2\n        /* \"#utility.yul\":7592:7605   */\n      mload\n        /* \"#utility.yul\":7626:7730   */\n      tag_214\n        /* \"#utility.yul\":7725:7729   */\n      dup6\n        /* \"#utility.yul\":7710:7723   */\n      dup3\n        /* \"#utility.yul\":7626:7730   */\n      tag_106\n      jump\t// in\n    tag_214:\n        /* \"#utility.yul\":7618:7730   */\n      swap5\n      pop\n        /* \"#utility.yul\":7753:7833   */\n      tag_215\n        /* \"#utility.yul\":7826:7832   */\n      dup4\n        /* \"#utility.yul\":7753:7833   */\n      tag_107\n      jump\t// in\n    tag_215:\n        /* \"#utility.yul\":7743:7833   */\n      swap3\n      pop\n        /* \"#utility.yul\":7862:7866   */\n      0x20\n        /* \"#utility.yul\":7857:7860   */\n      dup11\n        /* \"#utility.yul\":7853:7867   */\n      add\n        /* \"#utility.yul\":7846:7867   */\n      swap10\n      pop\n        /* \"#utility.yul\":7511:7877   */\n      pop\n        /* \"#utility.yul\":7498:7499   */\n      0x01\n        /* \"#utility.yul\":7495:7496   */\n      dup2\n        /* \"#utility.yul\":7491:7500   */\n      add\n        /* \"#utility.yul\":7486:7500   */\n      swap1\n      pop\n        /* \"#utility.yul\":7451:7877   */\n      jump(tag_211)\n    tag_213:\n        /* \"#utility.yul\":7455:7469   */\n      pop\n        /* \"#utility.yul\":7893:7897   */\n      dup3\n        /* \"#utility.yul\":7886:7897   */\n      swap8\n      pop\n        /* \"#utility.yul\":7913:7916   */\n      dup8\n        /* \"#utility.yul\":7906:7916   */\n      swap6\n      pop\n        /* \"#utility.yul\":7015:7922   */\n      pop\n      pop\n      pop\n      pop\n      pop\n        /* \"#utility.yul\":6851:7922   */\n      swap3\n      swap2\n      pop\n      pop\n      jump\t// out\n        /* \"#utility.yul\":7928:8381   */\n    tag_18:\n        /* \"#utility.yul\":8111:8115   */\n      0x00\n        /* \"#utility.yul\":8149:8151   */\n      0x20\n        /* \"#utility.yul\":8138:8147   */\n      dup3\n        /* \"#utility.yul\":8134:8152   */\n      add\n        /* \"#utility.yul\":8126:8152   */\n      swap1\n      pop\n        /* \"#utility.yul\":8198:8207   */\n      dup2\n        /* \"#utility.yul\":8192:8196   */\n      dup2\n        /* \"#utility.yul\":8188:8208   */\n      sub\n        /* \"#utility.yul\":8184:8185   */\n      0x00\n        /* \"#utility.yul\":8173:8182   */\n      dup4\n        /* \"#utility.yul\":8169:8186   */\n      add\n        /* \"#utility.yul\":8162:8209   */\n      mstore\n        /* \"#utility.yul\":8226:8374   */\n      tag_217\n        /* \"#utility.yul\":8369:8373   */\n      dup2\n        /* \"#utility.yul\":8360:8366   */\n      dup5\n        /* \"#utility.yul\":8226:8374   */\n      tag_108\n      jump\t// in\n    tag_217:\n        /* \"#utility.yul\":8218:8374   */\n      swap1\n      pop\n        /* \"#utility.yul\":7928:8381   */\n      swap3\n      swap2\n      pop\n      pop\n      jump\t// out\n        /* \"#utility.yul\":8387:8505   */\n    tag_109:\n        /* \"#utility.yul\":8474:8498   */\n      tag_219\n        /* \"#utility.yul\":8492:8497   */\n      dup2\n        /* \"#utility.yul\":8474:8498   */\n      tag_97\n      jump\t// in\n    tag_219:\n        /* \"#utility.yul\":8469:8472   */\n      dup3\n        /* \"#utility.yul\":8462:8499   */\n      mstore\n        /* \"#utility.yul\":8387:8505   */\n      pop\n      pop\n      jump\t// out\n        /* \"#utility.yul\":8511:8733   */\n    tag_23:\n        /* \"#utility.yul\":8604:8608   */\n      0x00\n        /* \"#utility.yul\":8642:8644   */\n      0x20\n        /* \"#utility.yul\":8631:8640   */\n      dup3\n        /* \"#utility.yul\":8627:8645   */\n      add\n        /* \"#utility.yul\":8619:8645   */\n      swap1\n      pop\n        /* \"#utility.yul\":8655:8726   */\n      tag_221\n        /* \"#utility.yul\":8723:8724   */\n      0x00\n        /* \"#utility.yul\":8712:8721   */\n      dup4\n        /* \"#utility.yul\":8708:8725   */\n      add\n        /* \"#utility.yul\":8699:8705   */\n      dup5\n        /* \"#utility.yul\":8655:8726   */\n      tag_109\n      jump\t// in\n    tag_221:\n        /* \"#utility.yul\":8511:8733   */\n      swap3\n      swap2\n      pop\n      pop\n      jump\t// out\n        /* \"#utility.yul\":8739:8861   */\n    tag_110:\n        /* \"#utility.yul\":8812:8836   */\n      tag_223\n        /* \"#utility.yul\":8830:8835   */\n      dup2\n        /* \"#utility.yul\":8812:8836   */\n      tag_97\n      jump\t// in\n    tag_223:\n        /* \"#utility.yul\":8805:8810   */\n      dup2\n        /* \"#utility.yul\":8802:8837   */\n      eq\n        /* \"#utility.yul\":8792:8855   */\n      tag_224\n      jumpi\n        /* \"#utility.yul\":8851:8852   */\n      0x00\n        /* \"#utility.yul\":8848:8849   */\n      dup1\n        /* \"#utility.yul\":8841:8853   */\n      revert\n        /* \"#utility.yul\":8792:8855   */\n    tag_224:\n        /* \"#utility.yul\":8739:8861   */\n      pop\n      jump\t// out\n        /* \"#utility.yul\":8867:9006   */\n    tag_111:\n        /* \"#utility.yul\":8913:8918   */\n      0x00\n        /* \"#utility.yul\":8951:8957   */\n      dup2\n        /* \"#utility.yul\":8938:8958   */\n      calldataload\n        /* \"#utility.yul\":8929:8958   */\n      swap1\n      pop\n        /* \"#utility.yul\":8967:9000   */\n      tag_226\n        /* \"#utility.yul\":8994:8999   */\n      dup2\n        /* \"#utility.yul\":8967:9000   */\n      tag_110\n      jump\t// in\n    tag_226:\n        /* \"#utility.yul\":8867:9006   */\n      swap3\n      swap2\n      pop\n      pop\n      jump\t// out\n        /* \"#utility.yul\":9012:9341   */\n    tag_26:\n        /* \"#utility.yul\":9071:9077   */\n      0x00\n        /* \"#utility.yul\":9120:9122   */\n      0x20\n        /* \"#utility.yul\":9108:9117   */\n      dup3\n        /* \"#utility.yul\":9099:9106   */\n      dup5\n        /* \"#utility.yul\":9095:9118   */\n      sub\n        /* \"#utility.yul\":9091:9123   */\n      slt\n        /* \"#utility.yul\":9088:9207   */\n      iszero\n      tag_228\n      jumpi\n        /* \"#utility.yul\":9126:9205   */\n      tag_229\n      tag_79\n      jump\t// in\n    tag_229:\n        /* \"#utility.yul\":9088:9207   */\n    tag_228:\n        /* \"#utility.yul\":9246:9247   */\n      0x00\n        /* \"#utility.yul\":9271:9324   */\n      tag_230\n        /* \"#utility.yul\":9316:9323   */\n      dup5\n        /* \"#utility.yul\":9307:9313   */\n      dup3\n        /* \"#utility.yul\":9296:9305   */\n      dup6\n        /* \"#utility.yul\":9292:9314   */\n      add\n        /* \"#utility.yul\":9271:9324   */\n      tag_111\n      jump\t// in\n    tag_230:\n        /* \"#utility.yul\":9261:9324   */\n      swap2\n      pop\n        /* \"#utility.yul\":9217:9334   */\n      pop\n        /* \"#utility.yul\":9012:9341   */\n      swap3\n      swap2\n      pop\n      pop\n      jump\t// out\n        /* \"#utility.yul\":9347:9821   */\n    tag_30:\n        /* \"#utility.yul\":9415:9421   */\n      0x00\n        /* \"#utility.yul\":9423:9429   */\n      dup1\n        /* \"#utility.yul\":9472:9474   */\n      0x40\n        /* \"#utility.yul\":9460:9469   */\n      dup4\n        /* \"#utility.yul\":9451:9458   */\n      dup6\n        /* \"#utility.yul\":9447:9470   */\n      sub\n        /* \"#utility.yul\":9443:9475   */\n      slt\n        /* \"#utility.yul\":9440:9559   */\n      iszero\n      tag_232\n      jumpi\n        /* \"#utility.yul\":9478:9557   */\n      tag_233\n      tag_79\n      jump\t// in\n    tag_233:\n        /* \"#utility.yul\":9440:9559   */\n    tag_232:\n        /* \"#utility.yul\":9598:9599   */\n      0x00\n        /* \"#utility.yul\":9623:9676   */\n      tag_234\n        /* \"#utility.yul\":9668:9675   */\n      dup6\n        /* \"#utility.yul\":9659:9665   */\n      dup3\n        /* \"#utility.yul\":9648:9657   */\n      dup7\n        /* \"#utility.yul\":9644:9666   */\n      add\n        /* \"#utility.yul\":9623:9676   */\n      tag_93\n      jump\t// in\n    tag_234:\n        /* \"#utility.yul\":9613:9676   */\n      swap3\n      pop\n        /* \"#utility.yul\":9569:9686   */\n      pop\n        /* \"#utility.yul\":9725:9727   */\n      0x20\n        /* \"#utility.yul\":9751:9804   */\n      tag_235\n        /* \"#utility.yul\":9796:9803   */\n      dup6\n        /* \"#utility.yul\":9787:9793   */\n      dup3\n        /* \"#utility.yul\":9776:9785   */\n      dup7\n        /* \"#utility.yul\":9772:9794   */\n      add\n        /* \"#utility.yul\":9751:9804   */\n      tag_111\n      jump\t// in\n    tag_235:\n        /* \"#utility.yul\":9741:9804   */\n      swap2\n      pop\n        /* \"#utility.yul\":9696:9814   */\n      pop\n        /* \"#utility.yul\":9347:9821   */\n      swap3\n      pop\n      swap3\n      swap1\n      pop\n      jump\t// out\n        /* \"#utility.yul\":9827:9996   */\n    tag_112:\n        /* \"#utility.yul\":9911:9922   */\n      0x00\n        /* \"#utility.yul\":9945:9951   */\n      dup3\n        /* \"#utility.yul\":9940:9943   */\n      dup3\n        /* \"#utility.yul\":9933:9952   */\n      mstore\n        /* \"#utility.yul\":9985:9989   */\n      0x20\n        /* \"#utility.yul\":9980:9983   */\n      dup3\n        /* \"#utility.yul\":9976:9990   */\n      add\n        /* \"#utility.yul\":9961:9990   */\n      swap1\n      pop\n        /* \"#utility.yul\":9827:9996   */\n      swap3\n      swap2\n      pop\n      pop\n      jump\t// out\n        /* \"#utility.yul\":10002:10379   */\n    tag_113:\n        /* \"#utility.yul\":10090:10093   */\n      0x00\n        /* \"#utility.yul\":10118:10157   */\n      tag_238\n        /* \"#utility.yul\":10151:10156   */\n      dup3\n        /* \"#utility.yul\":10118:10157   */\n      tag_99\n      jump\t// in\n    tag_238:\n        /* \"#utility.yul\":10173:10244   */\n      tag_239\n        /* \"#utility.yul\":10237:10243   */\n      dup2\n        /* \"#utility.yul\":10232:10235   */\n      dup6\n        /* \"#utility.yul\":10173:10244   */\n      tag_112\n      jump\t// in\n    tag_239:\n        /* \"#utility.yul\":10166:10244   */\n      swap4\n      pop\n        /* \"#utility.yul\":10253:10318   */\n      tag_240\n        /* \"#utility.yul\":10311:10317   */\n      dup2\n        /* \"#utility.yul\":10306:10309   */\n      dup6\n        /* \"#utility.yul\":10299:10303   */\n      0x20\n        /* \"#utility.yul\":10292:10297   */\n      dup7\n        /* \"#utility.yul\":10288:10304   */\n      add\n        /* \"#utility.yul\":10253:10318   */\n      tag_101\n      jump\t// in\n    tag_240:\n        /* \"#utility.yul\":10343:10372   */\n      tag_241\n        /* \"#utility.yul\":10365:10371   */\n      dup2\n        /* \"#utility.yul\":10343:10372   */\n      tag_83\n      jump\t// in\n    tag_241:\n        /* \"#utility.yul\":10338:10341   */\n      dup5\n        /* \"#utility.yul\":10334:10373   */\n      add\n        /* \"#utility.yul\":10327:10373   */\n      swap2\n      pop\n        /* \"#utility.yul\":10094:10379   */\n      pop\n        /* \"#utility.yul\":10002:10379   */\n      swap3\n      swap2\n      pop\n      pop\n      jump\t// out\n        /* \"#utility.yul\":10385:10494   */\n    tag_114:\n        /* \"#utility.yul\":10466:10487   */\n      tag_243\n        /* \"#utility.yul\":10481:10486   */\n      dup2\n        /* \"#utility.yul\":10466:10487   */\n      tag_103\n      jump\t// in\n    tag_243:\n        /* \"#utility.yul\":10461:10464   */\n      dup3\n        /* \"#utility.yul\":10454:10488   */\n      mstore\n        /* \"#utility.yul\":10385:10494   */\n      pop\n      pop\n      jump\t// out\n        /* \"#utility.yul\":10500:11021   */\n    tag_33:\n        /* \"#utility.yul\":10663:10667   */\n      0x00\n        /* \"#utility.yul\":10701:10703   */\n      0x60\n        /* \"#utility.yul\":10690:10699   */\n      dup3\n        /* \"#utility.yul\":10686:10704   */\n      add\n        /* \"#utility.yul\":10678:10704   */\n      swap1\n      pop\n        /* \"#utility.yul\":10714:10785   */\n      tag_245\n        /* \"#utility.yul\":10782:10783   */\n      0x00\n        /* \"#utility.yul\":10771:10780   */\n      dup4\n        /* \"#utility.yul\":10767:10784   */\n      add\n        /* \"#utility.yul\":10758:10764   */\n      dup7\n        /* \"#utility.yul\":10714:10785   */\n      tag_109\n      jump\t// in\n    tag_245:\n        /* \"#utility.yul\":10832:10841   */\n      dup2\n        /* \"#utility.yul\":10826:10830   */\n      dup2\n        /* \"#utility.yul\":10822:10842   */\n      sub\n        /* \"#utility.yul\":10817:10819   */\n      0x20\n        /* \"#utility.yul\":10806:10815   */\n      dup4\n        /* \"#utility.yul\":10802:10820   */\n      add\n        /* \"#utility.yul\":10795:10843   */\n      mstore\n        /* \"#utility.yul\":10860:10938   */\n      tag_246\n        /* \"#utility.yul\":10933:10937   */\n      dup2\n        /* \"#utility.yul\":10924:10930   */\n      dup6\n        /* \"#utility.yul\":10860:10938   */\n      tag_113\n      jump\t// in\n    tag_246:\n        /* \"#utility.yul\":10852:10938   */\n      swap1\n      pop\n        /* \"#utility.yul\":10948:11014   */\n      tag_247\n        /* \"#utility.yul\":11010:11012   */\n      0x40\n        /* \"#utility.yul\":10999:11008   */\n      dup4\n        /* \"#utility.yul\":10995:11013   */\n      add\n        /* \"#utility.yul\":10986:10992   */\n      dup5\n        /* \"#utility.yul\":10948:11014   */\n      tag_114\n      jump\t// in\n    tag_247:\n        /* \"#utility.yul\":10500:11021   */\n      swap5\n      swap4\n      pop\n      pop\n      pop\n      pop\n      jump\t// out\n        /* \"#utility.yul\":11027:11207   */\n    tag_115:\n        /* \"#utility.yul\":11075:11152   */\n      0x4e487b7100000000000000000000000000000000000000000000000000000000\n        /* \"#utility.yul\":11072:11073   */\n      0x00\n        /* \"#utility.yul\":11065:11153   */\n      mstore\n        /* \"#utility.yul\":11172:11176   */\n      0x11\n        /* \"#utility.yul\":11169:11170   */\n      0x04\n        /* \"#utility.yul\":11162:11177   */\n      mstore\n        /* \"#utility.yul\":11196:11200   */\n      0x24\n        /* \"#utility.yul\":11193:11194   */\n      0x00\n        /* \"#utility.yul\":11186:11201   */\n      revert\n        /* \"#utility.yul\":11213:11446   */\n    tag_39:\n        /* \"#utility.yul\":11252:11255   */\n      0x00\n        /* \"#utility.yul\":11275:11299   */\n      tag_250\n        /* \"#utility.yul\":11293:11298   */\n      dup3\n        /* \"#utility.yul\":11275:11299   */\n      tag_97\n      jump\t// in\n    tag_250:\n        /* \"#utility.yul\":11266:11299   */\n      swap2\n      pop\n        /* \"#utility.yul\":11321:11387   */\n      0xffffffffffffffffffffffffffffffffffffffffffffffffffffffffffffffff\n        /* \"#utility.yul\":11314:11319   */\n      dup3\n        /* \"#utility.yul\":11311:11388   */\n      sub\n        /* \"#utility.yul\":11308:11411   */\n      tag_251\n      jumpi\n        /* \"#utility.yul\":11391:11409   */\n      tag_252\n      tag_115\n      jump\t// in\n    tag_252:\n        /* \"#utility.yul\":11308:11411   */\n    tag_251:\n        /* \"#utility.yul\":11438:11439   */\n      0x01\n        /* \"#utility.yul\":11431:11436   */\n      dup3\n        /* \"#utility.yul\":11427:11440   */\n      add\n        /* \"#utility.yul\":11420:11440   */\n      swap1\n      pop\n        /* \"#utility.yul\":11213:11446   */\n      swap2\n      swap1\n      pop\n      jump\t// out\n        /* \"#utility.yul\":11452:11632   */\n    tag_116:\n        /* \"#utility.yul\":11500:11577   */\n      0x4e487b7100000000000000000000000000000000000000000000000000000000\n        /* \"#utility.yul\":11497:11498   */\n      0x00\n        /* \"#utility.yul\":11490:11578   */\n      mstore\n        /* \"#utility.yul\":11597:11601   */\n      0x22\n        /* \"#utility.yul\":11594:11595   */\n      0x04\n        /* \"#utility.yul\":11587:11602   */\n      mstore\n        /* \"#utility.yul\":11621:11625   */\n      0x24\n        /* \"#utility.yul\":11618:11619   */\n      0x00\n        /* \"#utility.yul\":11611:11626   */\n      revert\n        /* \"#utility.yul\":11638:11958   */\n    tag_56:\n        /* \"#utility.yul\":11682:11688   */\n      0x00\n        /* \"#utility.yul\":11719:11720   */\n      0x02\n        /* \"#utility.yul\":11713:11717   */\n      dup3\n        /* \"#utility.yul\":11709:11721   */\n      div\n        /* \"#utility.yul\":11699:11721   */\n      swap1\n      pop\n        /* \"#utility.yul\":11766:11767   */\n      0x01\n        /* \"#utility.yul\":11760:11764   */\n      dup3\n        /* \"#utility.yul\":11756:11768   */\n      and\n        /* \"#utility.yul\":11787:11805   */\n      dup1\n        /* \"#utility.yul\":11777:11858   */\n      tag_255\n      jumpi\n        /* \"#utility.yul\":11843:11847   */\n      0x7f\n        /* \"#utility.yul\":11835:11841   */\n      dup3\n        /* \"#utility.yul\":11831:11848   */\n      and\n        /* \"#utility.yul\":11821:11848   */\n      swap2\n      pop\n        /* \"#utility.yul\":11777:11858   */\n    tag_255:\n        /* \"#utility.yul\":11905:11907   */\n      0x20\n        /* \"#utility.yul\":11897:11903   */\n      dup3\n        /* \"#utility.yul\":11894:11908   */\n      lt\n        /* \"#utility.yul\":11874:11892   */\n      dup2\n        /* \"#utility.yul\":11871:11909   */\n      sub\n        /* \"#utility.yul\":11868:11952   */\n      tag_256\n      jumpi\n        /* \"#utility.yul\":11924:11942   */\n      tag_257\n      tag_116\n      jump\t// in\n    tag_257:\n        /* \"#utility.yul\":11868:11952   */\n    tag_256:\n        /* \"#utility.yul\":11689:11958   */\n      pop\n        /* \"#utility.yul\":11638:11958   */\n      swap2\n      swap1\n      pop\n      jump\t// out\n        /* \"#utility.yul\":11964:12105   */\n    tag_117:\n        /* \"#utility.yul\":12013:12017   */\n      0x00\n        /* \"#utility.yul\":12036:12039   */\n      dup2\n        /* \"#utility.yul\":12028:12039   */\n      swap1\n      pop\n        /* \"#utility.yul\":12059:12062   */\n      dup2\n        /* \"#utility.yul\":12056:12057   */\n      0x00\n        /* \"#utility.yul\":12049:12063   */\n      mstore\n        /* \"#utility.yul\":12093:12097   */\n      0x20\n        /* \"#utility.yul\":12090:12091   */\n      0x00\n        /* \"#utility.yul\":12080:12098   */\n      keccak256\n        /* \"#utility.yul\":12072:12098   */\n      swap1\n      pop\n        /* \"#utility.yul\":11964:12105   */\n      swap2\n      swap1\n      pop\n      jump\t// out\n        /* \"#utility.yul\":12111:12204   */\n    tag_118:\n        /* \"#utility.yul\":12148:12154   */\n      0x00\n        /* \"#utility.yul\":12195:12197   */\n      0x20\n        /* \"#utility.yul\":12190:12192   */\n      0x1f\n        /* \"#utility.yul\":12183:12188   */\n      dup4\n        /* \"#utility.yul\":12179:12193   */\n      add\n        /* \"#utility.yul\":12175:12198   */\n      div\n        /* \"#utility.yul\":12165:12198   */\n      swap1\n      pop\n        /* \"#utility.yul\":12111:12204   */\n      swap2\n      swap1\n      pop\n      jump\t// out\n        /* \"#utility.yul\":12210:12317   */\n    tag_119:\n        /* \"#utility.yul\":12254:12262   */\n      0x00\n        /* \"#utility.yul\":12304:12309   */\n      dup3\n        /* \"#utility.yul\":12298:12302   */\n      dup3\n        /* \"#utility.yul\":12294:12310   */\n      shl\n        /* \"#utility.yul\":12273:12310   */\n      swap1\n      pop\n        /* \"#utility.yul\":12210:12317   */\n      swap3\n      swap2\n      pop\n      pop\n      jump\t// out\n        /* \"#utility.yul\":12323:12716   */\n    tag_120:\n        /* \"#utility.yul\":12392:12398   */\n      0x00\n        /* \"#utility.yul\":12442:12443   */\n      0x08\n        /* \"#utility.yul\":12430:12440   */\n      dup4\n        /* \"#utility.yul\":12426:12444   */\n      mul\n        /* \"#utility.yul\":12465:12562   */\n      tag_262\n        /* \"#utility.yul\":12495:12561   */\n      0xffffffffffffffffffffffffffffffffffffffffffffffffffffffffffffffff\n        /* \"#utility.yul\":12484:12493   */\n      dup3\n        /* \"#utility.yul\":12465:12562   */\n      tag_119\n      jump\t// in\n    tag_262:\n        /* \"#utility.yul\":12583:12622   */\n      tag_263\n        /* \"#utility.yul\":12613:12621   */\n      dup7\n        /* \"#utility.yul\":12602:12611   */\n      dup4\n        /* \"#utility.yul\":12583:12622   */\n      tag_119\n      jump\t// in\n    tag_263:\n        /* \"#utility.yul\":12571:12622   */\n      swap6\n      pop\n        /* \"#utility.yul\":12655:12659   */\n      dup1\n        /* \"#utility.yul\":12651:12660   */\n      not\n        /* \"#utility.yul\":12644:12649   */\n      dup5\n        /* \"#utility.yul\":12640:12661   */\n      and\n        /* \"#utility.yul\":12631:12661   */\n      swap4\n      pop\n        /* \"#utility.yul\":12704:12708   */\n      dup1\n        /* \"#utility.yul\":12694:12702   */\n      dup7\n        /* \"#utility.yul\":12690:12709   */\n      and\n        /* \"#utility.yul\":12683:12688   */\n      dup5\n        /* \"#utility.yul\":12680:12710   */\n      or\n        /* \"#utility.yul\":12670:12710   */\n      swap3\n      pop\n        /* \"#utility.yul\":12399:12716   */\n      pop\n      pop\n        /* \"#utility.yul\":12323:12716   */\n      swap4\n      swap3\n      pop\n      pop\n      pop\n      jump\t// out\n        /* \"#utility.yul\":12722:12782   */\n    tag_121:\n        /* \"#utility.yul\":12750:12753   */\n      0x00\n        /* \"#utility.yul\":12771:12776   */\n      dup2\n        /* \"#utility.yul\":12764:12776   */\n      swap1\n      pop\n        /* \"#utility.yul\":12722:12782   */\n      swap2\n      swap1\n      pop\n      jump\t// out\n        /* \"#utility.yul\":12788:12930   */\n    tag_122:\n        /* \"#utility.yul\":12838:12847   */\n      0x00\n        /* \"#utility.yul\":12871:12924   */\n      tag_266\n        /* \"#utility.yul\":12889:12923   */\n      tag_267\n        /* \"#utility.yul\":12898:12922   */\n      tag_268\n        /* \"#utility.yul\":12916:12921   */\n      dup5\n        /* \"#utility.yul\":12898:12922   */\n      tag_97\n      jump\t// in\n    tag_268:\n        /* \"#utility.yul\":12889:12923   */\n      tag_121\n      jump\t// in\n    tag_267:\n        /* \"#utility.yul\":12871:12924   */\n      tag_97\n      jump\t// in\n    tag_266:\n        /* \"#utility.yul\":12858:12924   */\n      swap1\n      pop\n        /* \"#utility.yul\":12788:12930   */\n      swap2\n      swap1\n      pop\n      jump\t// out\n        /* \"#utility.yul\":12936:13011   */\n    tag_123:\n        /* \"#utility.yul\":12979:12982   */\n      0x00\n        /* \"#utility.yul\":13000:13005   */\n      dup2\n        /* \"#utility.yul\":12993:13005   */\n      swap1\n      pop\n        /* \"#utility.yul\":12936:13011   */\n      swap2\n      swap1\n      pop\n      jump\t// out\n        /* \"#utility.yul\":13017:13286   */\n    tag_124:\n        /* \"#utility.yul\":13127:13166   */\n      tag_271\n        /* \"#utility.yul\":13158:13165   */\n      dup4\n        /* \"#utility.yul\":13127:13166   */\n      tag_122\n      jump\t// in\n    tag_271:\n        /* \"#utility.yul\":13188:13279   */\n      tag_272\n        /* \"#utility.yul\":13237:13278   */\n      tag_273\n        /* \"#utility.yul\":13261:13277   */\n      dup3\n        /* \"#utility.yul\":13237:13278   */\n      tag_123\n      jump\t// in\n    tag_273:\n        /* \"#utility.yul\":13229:13235   */\n      dup5\n        /* \"#utility.yul\":13222:13226   */\n      dup5\n        /* \"#utility.yul\":13216:13227   */\n      sload\n        /* \"#utility.yul\":13188:13279   */\n      tag_120\n      jump\t// in\n    tag_272:\n        /* \"#utility.yul\":13182:13186   */\n      dup3\n        /* \"#utility.yul\":13175:13280   */\n      sstore\n        /* \"#utility.yul\":13093:13286   */\n      pop\n        /* \"#utility.yul\":13017:13286   */\n      pop\n      pop\n      pop\n      jump\t// out\n        /* \"#utility.yul\":13292:13365   */\n    tag_125:\n        /* \"#utility.yul\":13337:13340   */\n      0x00\n        /* \"#utility.yul\":13292:13365   */\n      swap1\n      jump\t// out\n        /* \"#utility.yul\":13371:13560   */\n    tag_126:\n        /* \"#utility.yul\":13448:13480   */\n      tag_276\n      tag_125\n      jump\t// in\n    tag_276:\n        /* \"#utility.yul\":13489:13554   */\n      tag_277\n        /* \"#utility.yul\":13547:13553   */\n      dup2\n        /* \"#utility.yul\":13539:13545   */\n      dup5\n        /* \"#utility.yul\":13533:13537   */\n      dup5\n        /* \"#utility.yul\":13489:13554   */\n      tag_124\n      jump\t// in\n    tag_277:\n        /* \"#utility.yul\":13424:13560   */\n      pop\n        /* \"#utility.yul\":13371:13560   */\n      pop\n      pop\n      jump\t// out\n        /* \"#utility.yul\":13566:13752   */\n    tag_127:\n        /* \"#utility.yul\":13626:13746   */\n    tag_279:\n        /* \"#utility.yul\":13643:13646   */\n      dup2\n        /* \"#utility.yul\":13636:13641   */\n      dup2\n        /* \"#utility.yul\":13633:13647   */\n      lt\n        /* \"#utility.yul\":13626:13746   */\n      iszero\n      tag_281\n      jumpi\n        /* \"#utility.yul\":13697:13736   */\n      tag_282\n        /* \"#utility.yul\":13734:13735   */\n      0x00\n        /* \"#utility.yul\":13727:13732   */\n      dup3\n        /* \"#utility.yul\":13697:13736   */\n      tag_126\n      jump\t// in\n    tag_282:\n        /* \"#utility.yul\":13670:13671   */\n      0x01\n        /* \"#utility.yul\":13663:13668   */\n      dup2\n        /* \"#utility.yul\":13659:13672   */\n      add\n        /* \"#utility.yul\":13650:13672   */\n      swap1\n      pop\n        /* \"#utility.yul\":13626:13746   */\n      jump(tag_279)\n    tag_281:\n        /* \"#utility.yul\":13566:13752   */\n      pop\n      pop\n      jump\t// out\n        /* \"#utility.yul\":13758:14301   */\n    tag_128:\n        /* \"#utility.yul\":13859:13861   */\n      0x1f\n        /* \"#utility.yul\":13854:13857   */\n      dup3\n        /* \"#utility.yul\":13851:13862   */\n      gt\n        /* \"#utility.yul\":13848:14294   */\n      iszero\n      tag_284\n      jumpi\n        /* \"#utility.yul\":13893:13931   */\n      tag_285\n        /* \"#utility.yul\":13925:13930   */\n      dup2\n        /* \"#utility.yul\":13893:13931   */\n      tag_117\n      jump\t// in\n    tag_285:\n        /* \"#utility.yul\":13977:14006   */\n      tag_286\n        /* \"#utility.yul\":13995:14005   */\n      dup5\n        /* \"#utility.yul\":13977:14006   */\n      tag_118\n      jump\t// in\n    tag_286:\n        /* \"#utility.yul\":13967:13975   */\n      dup2\n        /* \"#utility.yul\":13963:14007   */\n      add\n        /* \"#utility.yul\":14160:14162   */\n      0x20\n        /* \"#utility.yul\":14148:14158   */\n      dup6\n        /* \"#utility.yul\":14145:14163   */\n      lt\n        /* \"#utility.yul\":14142:14191   */\n      iszero\n      tag_287\n      jumpi\n        /* \"#utility.yul\":14181:14189   */\n      dup2\n        /* \"#utility.yul\":14166:14189   */\n      swap1\n      pop\n        /* \"#utility.yul\":14142:14191   */\n    tag_287:\n        /* \"#utility.yul\":14204:14284   */\n      tag_288\n        /* \"#utility.yul\":14260:14282   */\n      tag_289\n        /* \"#utility.yul\":14278:14281   */\n      dup6\n        /* \"#utility.yul\":14260:14282   */\n      tag_118\n      jump\t// in\n    tag_289:\n        /* \"#utility.yul\":14250:14258   */\n      dup4\n        /* \"#utility.yul\":14246:14283   */\n      add\n        /* \"#utility.yul\":14233:14244   */\n      dup3\n        /* \"#utility.yul\":14204:14284   */\n      tag_127\n      jump\t// in\n    tag_288:\n        /* \"#utility.yul\":13863:14294   */\n      pop\n      pop\n        /* \"#utility.yul\":13848:14294   */\n    tag_284:\n        /* \"#utility.yul\":13758:14301   */\n      pop\n      pop\n      pop\n      jump\t// out\n        /* \"#utility.yul\":14307:14424   */\n    tag_129:\n        /* \"#utility.yul\":14361:14369   */\n      0x00\n        /* \"#utility.yul\":14411:14416   */\n      dup3\n        /* \"#utility.yul\":14405:14409   */\n      dup3\n        /* \"#utility.yul\":14401:14417   */\n      shr\n        /* \"#utility.yul\":14380:14417   */\n      swap1\n      pop\n        /* \"#utility.yul\":14307:14424   */\n      swap3\n      swap2\n      pop\n      pop\n      jump\t// out\n        /* \"#utility.yul\":14430:14599   */\n    tag_130:\n        /* \"#utility.yul\":14474:14480   */\n      0x00\n        /* \"#utility.yul\":14507:14558   */\n      tag_292\n        /* \"#utility.yul\":14555:14556   */\n      0x00\n        /* \"#utility.yul\":14551:14557   */\n      not\n        /* \"#utility.yul\":14543:14548   */\n      dup5\n        /* \"#utility.yul\":14540:14541   */\n      0x08\n        /* \"#utility.yul\":14536:14549   */\n      mul\n        /* \"#utility.yul\":14507:14558   */\n      tag_129\n      jump\t// in\n    tag_292:\n        /* \"#utility.yul\":14503:14559   */\n      not\n        /* \"#utility.yul\":14588:14592   */\n      dup1\n        /* \"#utility.yul\":14582:14586   */\n      dup4\n        /* \"#utility.yul\":14578:14593   */\n      and\n        /* \"#utility.yul\":14568:14593   */\n      swap2\n      pop\n        /* \"#utility.yul\":14481:14599   */\n      pop\n        /* \"#utility.yul\":14430:14599   */\n      swap3\n      swap2\n      pop\n      pop\n      jump\t// out\n        /* \"#utility.yul\":14604:14899   */\n    tag_131:\n        /* \"#utility.yul\":14680:14684   */\n      0x00\n        /* \"#utility.yul\":14826:14855   */\n      tag_294\n        /* \"#utility.yul\":14851:14854   */\n      dup4\n        /* \"#utility.yul\":14845:14849   */\n      dup4\n        /* \"#utility.yul\":14826:14855   */\n      tag_130\n      jump\t// in\n    tag_294:\n        /* \"#utility.yul\":14818:14855   */\n      swap2\n      pop\n        /* \"#utility.yul\":14888:14891   */\n      dup3\n        /* \"#utility.yul\":14885:14886   */\n      0x02\n        /* \"#utility.yul\":14881:14892   */\n      mul\n        /* \"#utility.yul\":14875:14879   */\n      dup3\n        /* \"#utility.yul\":14872:14893   */\n      or\n        /* \"#utility.yul\":14864:14893   */\n      swap1\n      pop\n        /* \"#utility.yul\":14604:14899   */\n      swap3\n      swap2\n      pop\n      pop\n      jump\t// out\n        /* \"#utility.yul\":14904:16299   */\n    tag_41:\n        /* \"#utility.yul\":15021:15058   */\n      tag_296\n        /* \"#utility.yul\":15054:15057   */\n      dup3\n        /* \"#utility.yul\":15021:15058   */\n      tag_99\n      jump\t// in\n    tag_296:\n        /* \"#utility.yul\":15123:15141   */\n      0xffffffffffffffff\n        /* \"#utility.yul\":15115:15121   */\n      dup2\n        /* \"#utility.yul\":15112:15142   */\n      gt\n        /* \"#utility.yul\":15109:15165   */\n      iszero\n      tag_297\n      jumpi\n        /* \"#utility.yul\":15145:15163   */\n      tag_298\n      tag_47\n      jump\t// in\n    tag_298:\n        /* \"#utility.yul\":15109:15165   */\n    tag_297:\n        /* \"#utility.yul\":15189:15227   */\n      tag_299\n        /* \"#utility.yul\":15221:15225   */\n      dup3\n        /* \"#utility.yul\":15215:15226   */\n      sload\n        /* \"#utility.yul\":15189:15227   */\n      tag_56\n      jump\t// in\n    tag_299:\n        /* \"#utility.yul\":15274:15341   */\n      tag_300\n        /* \"#utility.yul\":15334:15340   */\n      dup3\n        /* \"#utility.yul\":15326:15332   */\n      dup3\n        /* \"#utility.yul\":15320:15324   */\n      dup6\n        /* \"#utility.yul\":15274:15341   */\n      tag_128\n      jump\t// in\n    tag_300:\n        /* \"#utility.yul\":15368:15369   */\n      0x00\n        /* \"#utility.yul\":15392:15396   */\n      0x20\n        /* \"#utility.yul\":15379:15396   */\n      swap1\n      pop\n        /* \"#utility.yul\":15424:15426   */\n      0x1f\n        /* \"#utility.yul\":15416:15422   */\n      dup4\n        /* \"#utility.yul\":15413:15427   */\n      gt\n        /* \"#utility.yul\":15441:15442   */\n      0x01\n        /* \"#utility.yul\":15436:16054   */\n      dup2\n      eq\n      tag_302\n      jumpi\n        /* \"#utility.yul\":16098:16099   */\n      0x00\n        /* \"#utility.yul\":16115:16121   */\n      dup5\n        /* \"#utility.yul\":16112:16189   */\n      iszero\n      tag_303\n      jumpi\n        /* \"#utility.yul\":16164:16173   */\n      dup3\n        /* \"#utility.yul\":16159:16162   */\n      dup8\n        /* \"#utility.yul\":16155:16174   */\n      add\n        /* \"#utility.yul\":16149:16175   */\n      mload\n        /* \"#utility.yul\":16140:16175   */\n      swap1\n      pop\n        /* \"#utility.yul\":16112:16189   */\n    tag_303:\n        /* \"#utility.yul\":16215:16282   */\n      tag_304\n        /* \"#utility.yul\":16275:16281   */\n      dup6\n        /* \"#utility.yul\":16268:16273   */\n      dup3\n        /* \"#utility.yul\":16215:16282   */\n      tag_131\n      jump\t// in\n    tag_304:\n        /* \"#utility.yul\":16209:16213   */\n      dup7\n        /* \"#utility.yul\":16202:16283   */\n      sstore\n        /* \"#utility.yul\":16071:16293   */\n      pop\n        /* \"#utility.yul\":15406:16293   */\n      jump(tag_301)\n        /* \"#utility.yul\":15436:16054   */\n    tag_302:\n        /* \"#utility.yul\":15488:15492   */\n      0x1f\n        /* \"#utility.yul\":15484:15493   */\n      not\n        /* \"#utility.yul\":15476:15482   */\n      dup5\n        /* \"#utility.yul\":15472:15494   */\n      and\n        /* \"#utility.yul\":15522:15559   */\n      tag_305\n        /* \"#utility.yul\":15554:15558   */\n      dup7\n        /* \"#utility.yul\":15522:15559   */\n      tag_117\n      jump\t// in\n    tag_305:\n        /* \"#utility.yul\":15581:15582   */\n      0x00\n        /* \"#utility.yul\":15595:15803   */\n    tag_306:\n        /* \"#utility.yul\":15609:15616   */\n      dup3\n        /* \"#utility.yul\":15606:15607   */\n      dup2\n        /* \"#utility.yul\":15603:15617   */\n      lt\n        /* \"#utility.yul\":15595:15803   */\n      iszero\n      tag_308\n      jumpi\n        /* \"#utility.yul\":15688:15697   */\n      dup5\n        /* \"#utility.yul\":15683:15686   */\n      dup10\n        /* \"#utility.yul\":15679:15698   */\n      add\n        /* \"#utility.yul\":15673:15699   */\n      mload\n        /* \"#utility.yul\":15665:15671   */\n      dup3\n        /* \"#utility.yul\":15658:15700   */\n      sstore\n        /* \"#utility.yul\":15739:15740   */\n      0x01\n        /* \"#utility.yul\":15731:15737   */\n      dup3\n        /* \"#utility.yul\":15727:15741   */\n      add\n        /* \"#utility.yul\":15717:15741   */\n      swap2\n      pop\n        /* \"#utility.yul\":15786:15788   */\n      0x20\n        /* \"#utility.yul\":15775:15784   */\n      dup6\n        /* \"#utility.yul\":15771:15789   */\n      add\n        /* \"#utility.yul\":15758:15789   */\n      swap5\n      pop\n        /* \"#utility.yul\":15632:15636   */\n      0x20\n        /* \"#utility.yul\":15629:15630   */\n      dup2\n        /* \"#utility.yul\":15625:15637   */\n      add\n        /* \"#utility.yul\":15620:15637   */\n      swap1\n      pop\n        /* \"#utility.yul\":15595:15803   */\n      jump(tag_306)\n    tag_308:\n        /* \"#utility.yul\":15831:15837   */\n      dup7\n        /* \"#utility.yul\":15822:15829   */\n      dup4\n        /* \"#utility.yul\":15819:15838   */\n      lt\n        /* \"#utility.yul\":15816:15995   */\n      iszero\n      tag_309\n      jumpi\n        /* \"#utility.yul\":15889:15898   */\n      dup5\n        /* \"#utility.yul\":15884:15887   */\n      dup10\n        /* \"#utility.yul\":15880:15899   */\n      add\n        /* \"#utility.yul\":15874:15900   */\n      mload\n        /* \"#utility.yul\":15932:15980   */\n      tag_310\n        /* \"#utility.yul\":15974:15978   */\n      0x1f\n        /* \"#utility.yul\":15966:15972   */\n      dup10\n        /* \"#utility.yul\":15962:15979   */\n      and\n        /* \"#utility.yul\":15951:15960   */\n      dup3\n        /* \"#utility.yul\":15932:15980   */\n      tag_130\n      jump\t// in\n    tag_310:\n        /* \"#utility.yul\":15924:15930   */\n      dup4\n        /* \"#utility.yul\":15917:15981   */\n      sstore\n        /* \"#utility.yul\":15839:15995   */\n      pop\n        /* \"#utility.yul\":15816:15995   */\n    tag_309:\n        /* \"#utility.yul\":16041:16042   */\n      0x01\n        /* \"#utility.yul\":16037:16038   */\n      0x02\n        /* \"#utility.yul\":16029:16035   */\n      dup9\n        /* \"#utility.yul\":16025:16039   */\n      mul\n        /* \"#utility.yul\":16021:16043   */\n      add\n        /* \"#utility.yul\":16015:16019   */\n      dup9\n        /* \"#utility.yul\":16008:16044   */\n      sstore\n        /* \"#utility.yul\":15443:16054   */\n      pop\n      pop\n      pop\n        /* \"#utility.yul\":15406:16293   */\n    tag_301:\n      pop\n        /* \"#utility.yul\":14996:16299   */\n      pop\n      pop\n      pop\n        /* \"#utility.yul\":14904:16299   */\n      pop\n      pop\n      jump\t// out\n        /* \"#utility.yul\":16305:16423   */\n    tag_132:\n        /* \"#utility.yul\":16392:16416   */\n      tag_312\n        /* \"#utility.yul\":16410:16415   */\n      dup2\n        /* \"#utility.yul\":16392:16416   */\n      tag_91\n      jump\t// in\n    tag_312:\n        /* \"#utility.yul\":16387:16390   */\n      dup3\n        /* \"#utility.yul\":16380:16417   */\n      mstore\n        /* \"#utility.yul\":16305:16423   */\n      pop\n      pop\n      jump\t// out\n        /* \"#utility.yul\":16429:17061   */\n    tag_43:\n        /* \"#utility.yul\":16620:16624   */\n      0x00\n        /* \"#utility.yul\":16658:16661   */\n      0x80\n        /* \"#utility.yul\":16647:16656   */\n      dup3\n        /* \"#utility.yul\":16643:16662   */\n      add\n        /* \"#utility.yul\":16635:16662   */\n      swap1\n      pop\n        /* \"#utility.yul\":16672:16743   */\n      tag_314\n        /* \"#utility.yul\":16740:16741   */\n      0x00\n        /* \"#utility.yul\":16729:16738   */\n      dup4\n        /* \"#utility.yul\":16725:16742   */\n      add\n        /* \"#utility.yul\":16716:16722   */\n      dup8\n        /* \"#utility.yul\":16672:16743   */\n      tag_132\n      jump\t// in\n    tag_314:\n        /* \"#utility.yul\":16753:16825   */\n      tag_315\n        /* \"#utility.yul\":16821:16823   */\n      0x20\n        /* \"#utility.yul\":16810:16819   */\n      dup4\n        /* \"#utility.yul\":16806:16824   */\n      add\n        /* \"#utility.yul\":16797:16803   */\n      dup7\n        /* \"#utility.yul\":16753:16825   */\n      tag_109\n      jump\t// in\n    tag_315:\n        /* \"#utility.yul\":16872:16881   */\n      dup2\n        /* \"#utility.yul\":16866:16870   */\n      dup2\n        /* \"#utility.yul\":16862:16882   */\n      sub\n        /* \"#utility.yul\":16857:16859   */\n      0x40\n        /* \"#utility.yul\":16846:16855   */\n      dup4\n        /* \"#utility.yul\":16842:16860   */\n      add\n        /* \"#utility.yul\":16835:16883   */\n      mstore\n        /* \"#utility.yul\":16900:16978   */\n      tag_316\n        /* \"#utility.yul\":16973:16977   */\n      dup2\n        /* \"#utility.yul\":16964:16970   */\n      dup6\n        /* \"#utility.yul\":16900:16978   */\n      tag_113\n      jump\t// in\n    tag_316:\n        /* \"#utility.yul\":16892:16978   */\n      swap1\n      pop\n        /* \"#utility.yul\":16988:17054   */\n      tag_317\n        /* \"#utility.yul\":17050:17052   */\n      0x60\n        /* \"#utility.yul\":17039:17048   */\n      dup4\n        /* \"#utility.yul\":17035:17053   */\n      add\n        /* \"#utility.yul\":17026:17032   */\n      dup5\n        /* \"#utility.yul\":16988:17054   */\n      tag_114\n      jump\t// in\n    tag_317:\n        /* \"#utility.yul\":16429:17061   */\n      swap6\n      swap5\n      pop\n      pop\n      pop\n      pop\n      pop\n      jump\t// out\n        /* \"#utility.yul\":17067:17261   */\n    tag_62:\n        /* \"#utility.yul\":17107:17111   */\n      0x00\n        /* \"#utility.yul\":17127:17147   */\n      tag_319\n        /* \"#utility.yul\":17145:17146   */\n      dup3\n        /* \"#utility.yul\":17127:17147   */\n      tag_97\n      jump\t// in\n    tag_319:\n        /* \"#utility.yul\":17122:17147   */\n      swap2\n      pop\n        /* \"#utility.yul\":17161:17181   */\n      tag_320\n        /* \"#utility.yul\":17179:17180   */\n      dup4\n        /* \"#utility.yul\":17161:17181   */\n      tag_97\n      jump\t// in\n    tag_320:\n        /* \"#utility.yul\":17156:17181   */\n      swap3\n      pop\n        /* \"#utility.yul\":17205:17206   */\n      dup3\n        /* \"#utility.yul\":17202:17203   */\n      dup3\n        /* \"#utility.yul\":17198:17207   */\n      sub\n        /* \"#utility.yul\":17190:17207   */\n      swap1\n      pop\n        /* \"#utility.yul\":17229:17230   */\n      dup2\n        /* \"#utility.yul\":17223:17227   */\n      dup2\n        /* \"#utility.yul\":17220:17231   */\n      gt\n        /* \"#utility.yul\":17217:17254   */\n      iszero\n      tag_321\n      jumpi\n        /* \"#utility.yul\":17234:17252   */\n      tag_322\n      tag_115\n      jump\t// in\n    tag_322:\n        /* \"#utility.yul\":17217:17254   */\n    tag_321:\n        /* \"#utility.yul\":17067:17261   */\n      swap3\n      swap2\n      pop\n      pop\n      jump\t// out\n        /* \"#utility.yul\":17267:17447   */\n    tag_65:\n        /* \"#utility.yul\":17315:17392   */\n      0x4e487b7100000000000000000000000000000000000000000000000000000000\n        /* \"#utility.yul\":17312:17313   */\n      0x00\n        /* \"#utility.yul\":17305:17393   */\n      mstore\n        /* \"#utility.yul\":17412:17416   */\n      0x32\n        /* \"#utility.yul\":17409:17410   */\n      0x04\n        /* \"#utility.yul\":17402:17417   */\n      mstore\n        /* \"#utility.yul\":17436:17440   */\n      0x24\n        /* \"#utility.yul\":17433:17434   */\n      0x00\n        /* \"#utility.yul\":17426:17441   */\n      revert\n        /* \"#utility.yul\":17453:17617   */\n    tag_133:\n        /* \"#utility.yul\":17593:17609   */\n      0x5461736b206e6f7420666f756e64000000000000000000000000000000000000\n        /* \"#utility.yul\":17589:17590   */\n      0x00\n        /* \"#utility.yul\":17581:17587   */\n      dup3\n        /* \"#utility.yul\":17577:17591   */\n      add\n        /* \"#utility.yul\":17570:17610   */\n      mstore\n        /* \"#utility.yul\":17453:17617   */\n      pop\n      jump\t// out\n        /* \"#utility.yul\":17623:17989   */\n    tag_134:\n        /* \"#utility.yul\":17765:17768   */\n      0x00\n        /* \"#utility.yul\":17786:17853   */\n      tag_326\n        /* \"#utility.yul\":17850:17852   */\n      0x0e\n        /* \"#utility.yul\":17845:17848   */\n      dup4\n        /* \"#utility.yul\":17786:17853   */\n      tag_112\n      jump\t// in\n    tag_326:\n        /* \"#utility.yul\":17779:17853   */\n      swap2\n      pop\n        /* \"#utility.yul\":17862:17955   */\n      tag_327\n        /* \"#utility.yul\":17951:17954   */\n      dup3\n        /* \"#utility.yul\":17862:17955   */\n      tag_133\n      jump\t// in\n    tag_327:\n        /* \"#utility.yul\":17980:17982   */\n      0x20\n        /* \"#utility.yul\":17975:17978   */\n      dup3\n        /* \"#utility.yul\":17971:17983   */\n      add\n        /* \"#utility.yul\":17964:17983   */\n      swap1\n      pop\n        /* \"#utility.yul\":17623:17989   */\n      swap2\n      swap1\n      pop\n      jump\t// out\n        /* \"#utility.yul\":17995:18414   */\n    tag_70:\n        /* \"#utility.yul\":18161:18165   */\n      0x00\n        /* \"#utility.yul\":18199:18201   */\n      0x20\n        /* \"#utility.yul\":18188:18197   */\n      dup3\n        /* \"#utility.yul\":18184:18202   */\n      add\n        /* \"#utility.yul\":18176:18202   */\n      swap1\n      pop\n        /* \"#utility.yul\":18248:18257   */\n      dup2\n        /* \"#utility.yul\":18242:18246   */\n      dup2\n        /* \"#utility.yul\":18238:18258   */\n      sub\n        /* \"#utility.yul\":18234:18235   */\n      0x00\n        /* \"#utility.yul\":18223:18232   */\n      dup4\n        /* \"#utility.yul\":18219:18236   */\n      add\n        /* \"#utility.yul\":18212:18259   */\n      mstore\n        /* \"#utility.yul\":18276:18407   */\n      tag_329\n        /* \"#utility.yul\":18402:18406   */\n      dup2\n        /* \"#utility.yul\":18276:18407   */\n      tag_134\n      jump\t// in\n    tag_329:\n        /* \"#utility.yul\":18268:18407   */\n      swap1\n      pop\n        /* \"#utility.yul\":17995:18414   */\n      swap2\n      swap1\n      pop\n      jump\t// out\n        /* \"#utility.yul\":18420:18850   */\n    tag_72:\n        /* \"#utility.yul\":18563:18567   */\n      0x00\n        /* \"#utility.yul\":18601:18603   */\n      0x60\n        /* \"#utility.yul\":18590:18599   */\n      dup3\n        /* \"#utility.yul\":18586:18604   */\n      add\n        /* \"#utility.yul\":18578:18604   */\n      swap1\n      pop\n        /* \"#utility.yul\":18614:18685   */\n      tag_331\n        /* \"#utility.yul\":18682:18683   */\n      0x00\n        /* \"#utility.yul\":18671:18680   */\n      dup4\n        /* \"#utility.yul\":18667:18684   */\n      add\n        /* \"#utility.yul\":18658:18664   */\n      dup7\n        /* \"#utility.yul\":18614:18685   */\n      tag_132\n      jump\t// in\n    tag_331:\n        /* \"#utility.yul\":18695:18767   */\n      tag_332\n        /* \"#utility.yul\":18763:18765   */\n      0x20\n        /* \"#utility.yul\":18752:18761   */\n      dup4\n        /* \"#utility.yul\":18748:18766   */\n      add\n        /* \"#utility.yul\":18739:18745   */\n      dup6\n        /* \"#utility.yul\":18695:18767   */\n      tag_109\n      jump\t// in\n    tag_332:\n        /* \"#utility.yul\":18777:18843   */\n      tag_333\n        /* \"#utility.yul\":18839:18841   */\n      0x40\n        /* \"#utility.yul\":18828:18837   */\n      dup4\n        /* \"#utility.yul\":18824:18842   */\n      add\n        /* \"#utility.yul\":18815:18821   */\n      dup5\n        /* \"#utility.yul\":18777:18843   */\n      tag_114\n      jump\t// in\n    tag_333:\n        /* \"#utility.yul\":18420:18850   */\n      swap5\n      swap4\n      pop\n      pop\n      pop\n      pop\n      jump\t// out\n\n    auxdata: 0xa264697066735822122042dfdd17dabe3c4e98544c9b4404a167dace2df8fa82e8e4d5dcdffbf73143af64736f6c634300081a0033\n}\n",
				"bytecode": {
					"linkReferences": {},
					"object": "60806040525f80553480156011575f80fd5b506110be8061001f5f395ff3fe608060405234801561000f575f80fd5b5060043610610060575f3560e01c8063111002aa146100645780631ed618c51461008057806358f9e741146100b05780636140dd60146100e05780637149d2e4146100fc578063b6cb58a51461012e575b5f80fd5b61007e60048036038101906100799190610821565b61014c565b005b61009a600480360381019061009591906108c2565b6102c9565b6040516100a79190610a87565b60405180910390f35b6100ca60048036038101906100c591906108c2565b6104c7565b6040516100d79190610ab6565b60405180910390f35b6100fa60048036038101906100f59190610af9565b6104dc565b005b61011660048036038101906101119190610b24565b6105eb565b60405161012593929190610bb9565b60405180910390f35b6101366106ae565b6040516101439190610ab6565b60405180910390f35b60025f3373ffffffffffffffffffffffffffffffffffffffff1673ffffffffffffffffffffffffffffffffffffffff1681526020019081526020015f205f81548092919061019990610c22565b91905055505f60025f3373ffffffffffffffffffffffffffffffffffffffff1673ffffffffffffffffffffffffffffffffffffffff1681526020019081526020015f2054905060405180606001604052808281526020018381526020015f151581525060015f3373ffffffffffffffffffffffffffffffffffffffff1673ffffffffffffffffffffffffffffffffffffffff1681526020019081526020015f205f8381526020019081526020015f205f820151815f015560208201518160010190816102659190610e63565b506040820151816002015f6101000a81548160ff0219169083151502179055509050507f75c843b034b367a7ce9e041b36cf7856dba0d7e8eb42159baf7dce38313e19ef3382845f6040516102bd9493929190610f41565b60405180910390a15050565b60605f60025f8473ffffffffffffffffffffffffffffffffffffffff1673ffffffffffffffffffffffffffffffffffffffff1681526020019081526020015f205490505f8167ffffffffffffffff811115610327576103266106fd565b5b60405190808252806020026020018201604052801561036057816020015b61034d6106b3565b8152602001906001900390816103455790505b5090505f600190505b8281116104bc575f60015f8773ffffffffffffffffffffffffffffffffffffffff1673ffffffffffffffffffffffffffffffffffffffff1681526020019081526020015f205f8381526020019081526020015f206040518060600160405290815f82015481526020016001820180546103e190610c96565b80601f016020809104026020016040519081016040528092919081815260200182805461040d90610c96565b80156104585780601f1061042f57610100808354040283529160200191610458565b820191905f5260205f20905b81548152906001019060200180831161043b57829003601f168201915b50505050508152602001600282015f9054906101000a900460ff1615151515815250509050808360018461048c9190610f8b565b8151811061049d5761049c610fbe565b5b60200260200101819052505080806104b490610c22565b915050610369565b508092505050919050565b6002602052805f5260405f205f915090505481565b5f60015f3373ffffffffffffffffffffffffffffffffffffffff1673ffffffffffffffffffffffffffffffffffffffff1681526020019081526020015f205f8381526020019081526020015f2090505f815f015403610570576040517f08c379a000000000000000000000000000000000000000000000000000000000815260040161056790611035565b60405180910390fd5b806002015f9054906101000a900460ff1615816002015f6101000a81548160ff0219169083151502179055507f3621461a70da48fecf8452ce0a2af8773e6f26aff6a39e0504d0d9c51c6032063383836002015f9054906101000a900460ff166040516105df93929190611053565b60405180910390a15050565b6001602052815f5260405f20602052805f5260405f205f9150915050805f01549080600101805461061b90610c96565b80601f016020809104026020016040519081016040528092919081815260200182805461064790610c96565b80156106925780601f1061066957610100808354040283529160200191610692565b820191905f5260205f20905b81548152906001019060200180831161067557829003601f168201915b505050505090806002015f9054906101000a900460ff16905083565b5f5481565b60405180606001604052805f8152602001606081526020015f151581525090565b5f604051905090565b5f80fd5b5f80fd5b5f80fd5b5f80fd5b5f601f19601f8301169050919050565b7f4e487b71000000000000000000000000000000000000000000000000000000005f52604160045260245ffd5b610733826106ed565b810181811067ffffffffffffffff82111715610752576107516106fd565b5b80604052505050565b5f6107646106d4565b9050610770828261072a565b919050565b5f67ffffffffffffffff82111561078f5761078e6106fd565b5b610798826106ed565b9050602081019050919050565b828183375f83830152505050565b5f6107c56107c084610775565b61075b565b9050828152602081018484840111156107e1576107e06106e9565b5b6107ec8482856107a5565b509392505050565b5f82601f830112610808576108076106e5565b5b81356108188482602086016107b3565b91505092915050565b5f60208284031215610836576108356106dd565b5b5f82013567ffffffffffffffff811115610853576108526106e1565b5b61085f848285016107f4565b91505092915050565b5f73ffffffffffffffffffffffffffffffffffffffff82169050919050565b5f61089182610868565b9050919050565b6108a181610887565b81146108ab575f80fd5b50565b5f813590506108bc81610898565b92915050565b5f602082840312156108d7576108d66106dd565b5b5f6108e4848285016108ae565b91505092915050565b5f81519050919050565b5f82825260208201905092915050565b5f819050602082019050919050565b5f819050919050565b61092881610916565b82525050565b5f81519050919050565b5f82825260208201905092915050565b8281835e5f83830152505050565b5f6109608261092e565b61096a8185610938565b935061097a818560208601610948565b610983816106ed565b840191505092915050565b5f8115159050919050565b6109a28161098e565b82525050565b5f606083015f8301516109bd5f86018261091f565b50602083015184820360208601526109d58282610956565b91505060408301516109ea6040860182610999565b508091505092915050565b5f610a0083836109a8565b905092915050565b5f602082019050919050565b5f610a1e826108ed565b610a2881856108f7565b935083602082028501610a3a85610907565b805f5b85811015610a755784840389528151610a5685826109f5565b9450610a6183610a08565b925060208a01995050600181019050610a3d565b50829750879550505050505092915050565b5f6020820190508181035f830152610a9f8184610a14565b905092915050565b610ab081610916565b82525050565b5f602082019050610ac95f830184610aa7565b92915050565b610ad881610916565b8114610ae2575f80fd5b50565b5f81359050610af381610acf565b92915050565b5f60208284031215610b0e57610b0d6106dd565b5b5f610b1b84828501610ae5565b91505092915050565b5f8060408385031215610b3a57610b396106dd565b5b5f610b47858286016108ae565b9250506020610b5885828601610ae5565b9150509250929050565b5f82825260208201905092915050565b5f610b7c8261092e565b610b868185610b62565b9350610b96818560208601610948565b610b9f816106ed565b840191505092915050565b610bb38161098e565b82525050565b5f606082019050610bcc5f830186610aa7565b8181036020830152610bde8185610b72565b9050610bed6040830184610baa565b949350505050565b7f4e487b71000000000000000000000000000000000000000000000000000000005f52601160045260245ffd5b5f610c2c82610916565b91507fffffffffffffffffffffffffffffffffffffffffffffffffffffffffffffffff8203610c5e57610c5d610bf5565b5b600182019050919050565b7f4e487b71000000000000000000000000000000000000000000000000000000005f52602260045260245ffd5b5f6002820490506001821680610cad57607f821691505b602082108103610cc057610cbf610c69565b5b50919050565b5f819050815f5260205f209050919050565b5f6020601f8301049050919050565b5f82821b905092915050565b5f60088302610d227fffffffffffffffffffffffffffffffffffffffffffffffffffffffffffffffff82610ce7565b610d2c8683610ce7565b95508019841693508086168417925050509392505050565b5f819050919050565b5f610d67610d62610d5d84610916565b610d44565b610916565b9050919050565b5f819050919050565b610d8083610d4d565b610d94610d8c82610d6e565b848454610cf3565b825550505050565b5f90565b610da8610d9c565b610db3818484610d77565b505050565b5b81811015610dd657610dcb5f82610da0565b600181019050610db9565b5050565b601f821115610e1b57610dec81610cc6565b610df584610cd8565b81016020851015610e04578190505b610e18610e1085610cd8565b830182610db8565b50505b505050565b5f82821c905092915050565b5f610e3b5f1984600802610e20565b1980831691505092915050565b5f610e538383610e2c565b9150826002028217905092915050565b610e6c8261092e565b67ffffffffffffffff811115610e8557610e846106fd565b5b610e8f8254610c96565b610e9a828285610dda565b5f60209050601f831160018114610ecb575f8415610eb9578287015190505b610ec38582610e48565b865550610f2a565b601f198416610ed986610cc6565b5f5b82811015610f0057848901518255600182019150602085019450602081019050610edb565b86831015610f1d5784890151610f19601f891682610e2c565b8355505b6001600288020188555050505b505050505050565b610f3b81610887565b82525050565b5f608082019050610f545f830187610f32565b610f616020830186610aa7565b8181036040830152610f738185610b72565b9050610f826060830184610baa565b95945050505050565b5f610f9582610916565b9150610fa083610916565b9250828203905081811115610fb857610fb7610bf5565b5b92915050565b7f4e487b71000000000000000000000000000000000000000000000000000000005f52603260045260245ffd5b7f5461736b206e6f7420666f756e640000000000000000000000000000000000005f82015250565b5f61101f600e83610b62565b915061102a82610feb565b602082019050919050565b5f6020820190508181035f83015261104c81611013565b9050919050565b5f6060820190506110665f830186610f32565b6110736020830185610aa7565b6110806040830184610baa565b94935050505056fea264697066735822122042dfdd17dabe3c4e98544c9b4404a167dace2df8fa82e8e4d5dcdffbf73143af64736f6c634300081a0033",
					"opcodes": "PUSH1 0x80 PUSH1 0x40 MSTORE PUSH0 DUP1 SSTORE CALLVALUE DUP1 ISZERO PUSH1 0x11 JUMPI PUSH0 DUP1 REVERT JUMPDEST POP PUSH2 0x10BE DUP1 PUSH2 0x1F PUSH0 CODECOPY PUSH0 RETURN INVALID PUSH1 0x80 PUSH1 0x40 MSTORE CALLVALUE DUP1 ISZERO PUSH2 0xF JUMPI PUSH0 DUP1 REVERT JUMPDEST POP PUSH1 0x4 CALLDATASIZE LT PUSH2 0x60 JUMPI PUSH0 CALLDATALOAD PUSH1 0xE0 SHR DUP1 PUSH4 0x111002AA EQ PUSH2 0x64 JUMPI DUP1 PUSH4 0x1ED618C5 EQ PUSH2 0x80 JUMPI DUP1 PUSH4 0x58F9E741 EQ PUSH2 0xB0 JUMPI DUP1 PUSH4 0x6140DD60 EQ PUSH2 0xE0 JUMPI DUP1 PUSH4 0x7149D2E4 EQ PUSH2 0xFC JUMPI DUP1 PUSH4 0xB6CB58A5 EQ PUSH2 0x12E JUMPI JUMPDEST PUSH0 DUP1 REVERT JUMPDEST PUSH2 0x7E PUSH1 0x4 DUP1 CALLDATASIZE SUB DUP2 ADD SWAP1 PUSH2 0x79 SWAP2 SWAP1 PUSH2 0x821 JUMP JUMPDEST PUSH2 0x14C JUMP JUMPDEST STOP JUMPDEST PUSH2 0x9A PUSH1 0x4 DUP1 CALLDATASIZE SUB DUP2 ADD SWAP1 PUSH2 0x95 SWAP2 SWAP1 PUSH2 0x8C2 JUMP JUMPDEST PUSH2 0x2C9 JUMP JUMPDEST PUSH1 0x40 MLOAD PUSH2 0xA7 SWAP2 SWAP1 PUSH2 0xA87 JUMP JUMPDEST PUSH1 0x40 MLOAD DUP1 SWAP2 SUB SWAP1 RETURN JUMPDEST PUSH2 0xCA PUSH1 0x4 DUP1 CALLDATASIZE SUB DUP2 ADD SWAP1 PUSH2 0xC5 SWAP2 SWAP1 PUSH2 0x8C2 JUMP JUMPDEST PUSH2 0x4C7 JUMP JUMPDEST PUSH1 0x40 MLOAD PUSH2 0xD7 SWAP2 SWAP1 PUSH2 0xAB6 JUMP JUMPDEST PUSH1 0x40 MLOAD DUP1 SWAP2 SUB SWAP1 RETURN JUMPDEST PUSH2 0xFA PUSH1 0x4 DUP1 CALLDATASIZE SUB DUP2 ADD SWAP1 PUSH2 0xF5 SWAP2 SWAP1 PUSH2 0xAF9 JUMP JUMPDEST PUSH2 0x4DC JUMP JUMPDEST STOP JUMPDEST PUSH2 0x116 PUSH1 0x4 DUP1 CALLDATASIZE SUB DUP2 ADD SWAP1 PUSH2 0x111 SWAP2 SWAP1 PUSH2 0xB24 JUMP JUMPDEST PUSH2 0x5EB JUMP JUMPDEST PUSH1 0x40 MLOAD PUSH2 0x125 SWAP4 SWAP3 SWAP2 SWAP1 PUSH2 0xBB9 JUMP JUMPDEST PUSH1 0x40 MLOAD DUP1 SWAP2 SUB SWAP1 RETURN JUMPDEST PUSH2 0x136 PUSH2 0x6AE JUMP JUMPDEST PUSH1 0x40 MLOAD PUSH2 0x143 SWAP2 SWAP1 PUSH2 0xAB6 JUMP JUMPDEST PUSH1 0x40 MLOAD DUP1 SWAP2 SUB SWAP1 RETURN JUMPDEST PUSH1 0x2 PUSH0 CALLER PUSH20 0xFFFFFFFFFFFFFFFFFFFFFFFFFFFFFFFFFFFFFFFF AND PUSH20 0xFFFFFFFFFFFFFFFFFFFFFFFFFFFFFFFFFFFFFFFF AND DUP2 MSTORE PUSH1 0x20 ADD SWAP1 DUP2 MSTORE PUSH1 0x20 ADD PUSH0 KECCAK256 PUSH0 DUP2 SLOAD DUP1 SWAP3 SWAP2 SWAP1 PUSH2 0x199 SWAP1 PUSH2 0xC22 JUMP JUMPDEST SWAP2 SWAP1 POP SSTORE POP PUSH0 PUSH1 0x2 PUSH0 CALLER PUSH20 0xFFFFFFFFFFFFFFFFFFFFFFFFFFFFFFFFFFFFFFFF AND PUSH20 0xFFFFFFFFFFFFFFFFFFFFFFFFFFFFFFFFFFFFFFFF AND DUP2 MSTORE PUSH1 0x20 ADD SWAP1 DUP2 MSTORE PUSH1 0x20 ADD PUSH0 KECCAK256 SLOAD SWAP1 POP PUSH1 0x40 MLOAD DUP1 PUSH1 0x60 ADD PUSH1 0x40 MSTORE DUP1 DUP3 DUP2 MSTORE PUSH1 0x20 ADD DUP4 DUP2 MSTORE PUSH1 0x20 ADD PUSH0 ISZERO ISZERO DUP2 MSTORE POP PUSH1 0x1 PUSH0 CALLER PUSH20 0xFFFFFFFFFFFFFFFFFFFFFFFFFFFFFFFFFFFFFFFF AND PUSH20 0xFFFFFFFFFFFFFFFFFFFFFFFFFFFFFFFFFFFFFFFF AND DUP2 MSTORE PUSH1 0x20 ADD SWAP1 DUP2 MSTORE PUSH1 0x20 ADD PUSH0 KECCAK256 PUSH0 DUP4 DUP2 MSTORE PUSH1 0x20 ADD SWAP1 DUP2 MSTORE PUSH1 0x20 ADD PUSH0 KECCAK256 PUSH0 DUP3 ADD MLOAD DUP2 PUSH0 ADD SSTORE PUSH1 0x20 DUP3 ADD MLOAD DUP2 PUSH1 0x1 ADD SWAP1 DUP2 PUSH2 0x265 SWAP2 SWAP1 PUSH2 0xE63 JUMP JUMPDEST POP PUSH1 0x40 DUP3 ADD MLOAD DUP2 PUSH1 0x2 ADD PUSH0 PUSH2 0x100 EXP DUP2 SLOAD DUP2 PUSH1 0xFF MUL NOT AND SWAP1 DUP4 ISZERO ISZERO MUL OR SWAP1 SSTORE POP SWAP1 POP POP PUSH32 0x75C843B034B367A7CE9E041B36CF7856DBA0D7E8EB42159BAF7DCE38313E19EF CALLER DUP3 DUP5 PUSH0 PUSH1 0x40 MLOAD PUSH2 0x2BD SWAP5 SWAP4 SWAP3 SWAP2 SWAP1 PUSH2 0xF41 JUMP JUMPDEST PUSH1 0x40 MLOAD DUP1 SWAP2 SUB SWAP1 LOG1 POP POP JUMP JUMPDEST PUSH1 0x60 PUSH0 PUSH1 0x2 PUSH0 DUP5 PUSH20 0xFFFFFFFFFFFFFFFFFFFFFFFFFFFFFFFFFFFFFFFF AND PUSH20 0xFFFFFFFFFFFFFFFFFFFFFFFFFFFFFFFFFFFFFFFF AND DUP2 MSTORE PUSH1 0x20 ADD SWAP1 DUP2 MSTORE PUSH1 0x20 ADD PUSH0 KECCAK256 SLOAD SWAP1 POP PUSH0 DUP2 PUSH8 0xFFFFFFFFFFFFFFFF DUP2 GT ISZERO PUSH2 0x327 JUMPI PUSH2 0x326 PUSH2 0x6FD JUMP JUMPDEST JUMPDEST PUSH1 0x40 MLOAD SWAP1 DUP1 DUP3 MSTORE DUP1 PUSH1 0x20 MUL PUSH1 0x20 ADD DUP3 ADD PUSH1 0x40 MSTORE DUP1 ISZERO PUSH2 0x360 JUMPI DUP2 PUSH1 0x20 ADD JUMPDEST PUSH2 0x34D PUSH2 0x6B3 JUMP JUMPDEST DUP2 MSTORE PUSH1 0x20 ADD SWAP1 PUSH1 0x1 SWAP1 SUB SWAP1 DUP2 PUSH2 0x345 JUMPI SWAP1 POP JUMPDEST POP SWAP1 POP PUSH0 PUSH1 0x1 SWAP1 POP JUMPDEST DUP3 DUP2 GT PUSH2 0x4BC JUMPI PUSH0 PUSH1 0x1 PUSH0 DUP8 PUSH20 0xFFFFFFFFFFFFFFFFFFFFFFFFFFFFFFFFFFFFFFFF AND PUSH20 0xFFFFFFFFFFFFFFFFFFFFFFFFFFFFFFFFFFFFFFFF AND DUP2 MSTORE PUSH1 0x20 ADD SWAP1 DUP2 MSTORE PUSH1 0x20 ADD PUSH0 KECCAK256 PUSH0 DUP4 DUP2 MSTORE PUSH1 0x20 ADD SWAP1 DUP2 MSTORE PUSH1 0x20 ADD PUSH0 KECCAK256 PUSH1 0x40 MLOAD DUP1 PUSH1 0x60 ADD PUSH1 0x40 MSTORE SWAP1 DUP2 PUSH0 DUP3 ADD SLOAD DUP2 MSTORE PUSH1 0x20 ADD PUSH1 0x1 DUP3 ADD DUP1 SLOAD PUSH2 0x3E1 SWAP1 PUSH2 0xC96 JUMP JUMPDEST DUP1 PUSH1 0x1F ADD PUSH1 0x20 DUP1 SWAP2 DIV MUL PUSH1 0x20 ADD PUSH1 0x40 MLOAD SWAP1 DUP2 ADD PUSH1 0x40 MSTORE DUP1 SWAP3 SWAP2 SWAP1 DUP2 DUP2 MSTORE PUSH1 0x20 ADD DUP3 DUP1 SLOAD PUSH2 0x40D SWAP1 PUSH2 0xC96 JUMP JUMPDEST DUP1 ISZERO PUSH2 0x458 JUMPI DUP1 PUSH1 0x1F LT PUSH2 0x42F JUMPI PUSH2 0x100 DUP1 DUP4 SLOAD DIV MUL DUP4 MSTORE SWAP2 PUSH1 0x20 ADD SWAP2 PUSH2 0x458 JUMP JUMPDEST DUP3 ADD SWAP2 SWAP1 PUSH0 MSTORE PUSH1 0x20 PUSH0 KECCAK256 SWAP1 JUMPDEST DUP2 SLOAD DUP2 MSTORE SWAP1 PUSH1 0x1 ADD SWAP1 PUSH1 0x20 ADD DUP1 DUP4 GT PUSH2 0x43B JUMPI DUP3 SWAP1 SUB PUSH1 0x1F AND DUP3 ADD SWAP2 JUMPDEST POP POP POP POP POP DUP2 MSTORE PUSH1 0x20 ADD PUSH1 0x2 DUP3 ADD PUSH0 SWAP1 SLOAD SWAP1 PUSH2 0x100 EXP SWAP1 DIV PUSH1 0xFF AND ISZERO ISZERO ISZERO ISZERO DUP2 MSTORE POP POP SWAP1 POP DUP1 DUP4 PUSH1 0x1 DUP5 PUSH2 0x48C SWAP2 SWAP1 PUSH2 0xF8B JUMP JUMPDEST DUP2 MLOAD DUP2 LT PUSH2 0x49D JUMPI PUSH2 0x49C PUSH2 0xFBE JUMP JUMPDEST JUMPDEST PUSH1 0x20 MUL PUSH1 0x20 ADD ADD DUP2 SWAP1 MSTORE POP POP DUP1 DUP1 PUSH2 0x4B4 SWAP1 PUSH2 0xC22 JUMP JUMPDEST SWAP2 POP POP PUSH2 0x369 JUMP JUMPDEST POP DUP1 SWAP3 POP POP POP SWAP2 SWAP1 POP JUMP JUMPDEST PUSH1 0x2 PUSH1 0x20 MSTORE DUP1 PUSH0 MSTORE PUSH1 0x40 PUSH0 KECCAK256 PUSH0 SWAP2 POP SWAP1 POP SLOAD DUP2 JUMP JUMPDEST PUSH0 PUSH1 0x1 PUSH0 CALLER PUSH20 0xFFFFFFFFFFFFFFFFFFFFFFFFFFFFFFFFFFFFFFFF AND PUSH20 0xFFFFFFFFFFFFFFFFFFFFFFFFFFFFFFFFFFFFFFFF AND DUP2 MSTORE PUSH1 0x20 ADD SWAP1 DUP2 MSTORE PUSH1 0x20 ADD PUSH0 KECCAK256 PUSH0 DUP4 DUP2 MSTORE PUSH1 0x20 ADD SWAP1 DUP2 MSTORE PUSH1 0x20 ADD PUSH0 KECCAK256 SWAP1 POP PUSH0 DUP2 PUSH0 ADD SLOAD SUB PUSH2 0x570 JUMPI PUSH1 0x40 MLOAD PUSH32 0x8C379A000000000000000000000000000000000000000000000000000000000 DUP2 MSTORE PUSH1 0x4 ADD PUSH2 0x567 SWAP1 PUSH2 0x1035 JUMP JUMPDEST PUSH1 0x40 MLOAD DUP1 SWAP2 SUB SWAP1 REVERT JUMPDEST DUP1 PUSH1 0x2 ADD PUSH0 SWAP1 SLOAD SWAP1 PUSH2 0x100 EXP SWAP1 DIV PUSH1 0xFF AND ISZERO DUP2 PUSH1 0x2 ADD PUSH0 PUSH2 0x100 EXP DUP2 SLOAD DUP2 PUSH1 0xFF MUL NOT AND SWAP1 DUP4 ISZERO ISZERO MUL OR SWAP1 SSTORE POP PUSH32 0x3621461A70DA48FECF8452CE0A2AF8773E6F26AFF6A39E0504D0D9C51C603206 CALLER DUP4 DUP4 PUSH1 0x2 ADD PUSH0 SWAP1 SLOAD SWAP1 PUSH2 0x100 EXP SWAP1 DIV PUSH1 0xFF AND PUSH1 0x40 MLOAD PUSH2 0x5DF SWAP4 SWAP3 SWAP2 SWAP1 PUSH2 0x1053 JUMP JUMPDEST PUSH1 0x40 MLOAD DUP1 SWAP2 SUB SWAP1 LOG1 POP POP JUMP JUMPDEST PUSH1 0x1 PUSH1 0x20 MSTORE DUP2 PUSH0 MSTORE PUSH1 0x40 PUSH0 KECCAK256 PUSH1 0x20 MSTORE DUP1 PUSH0 MSTORE PUSH1 0x40 PUSH0 KECCAK256 PUSH0 SWAP2 POP SWAP2 POP POP DUP1 PUSH0 ADD SLOAD SWAP1 DUP1 PUSH1 0x1 ADD DUP1 SLOAD PUSH2 0x61B SWAP1 PUSH2 0xC96 JUMP JUMPDEST DUP1 PUSH1 0x1F ADD PUSH1 0x20 DUP1 SWAP2 DIV MUL PUSH1 0x20 ADD PUSH1 0x40 MLOAD SWAP1 DUP2 ADD PUSH1 0x40 MSTORE DUP1 SWAP3 SWAP2 SWAP1 DUP2 DUP2 MSTORE PUSH1 0x20 ADD DUP3 DUP1 SLOAD PUSH2 0x647 SWAP1 PUSH2 0xC96 JUMP JUMPDEST DUP1 ISZERO PUSH2 0x692 JUMPI DUP1 PUSH1 0x1F LT PUSH2 0x669 JUMPI PUSH2 0x100 DUP1 DUP4 SLOAD DIV MUL DUP4 MSTORE SWAP2 PUSH1 0x20 ADD SWAP2 PUSH2 0x692 JUMP JUMPDEST DUP3 ADD SWAP2 SWAP1 PUSH0 MSTORE PUSH1 0x20 PUSH0 KECCAK256 SWAP1 JUMPDEST DUP2 SLOAD DUP2 MSTORE SWAP1 PUSH1 0x1 ADD SWAP1 PUSH1 0x20 ADD DUP1 DUP4 GT PUSH2 0x675 JUMPI DUP3 SWAP1 SUB PUSH1 0x1F AND DUP3 ADD SWAP2 JUMPDEST POP POP POP POP POP SWAP1 DUP1 PUSH1 0x2 ADD PUSH0 SWAP1 SLOAD SWAP1 PUSH2 0x100 EXP SWAP1 DIV PUSH1 0xFF AND SWAP1 POP DUP4 JUMP JUMPDEST PUSH0 SLOAD DUP2 JUMP JUMPDEST PUSH1 0x40 MLOAD DUP1 PUSH1 0x60 ADD PUSH1 0x40 MSTORE DUP1 PUSH0 DUP2 MSTORE PUSH1 0x20 ADD PUSH1 0x60 DUP2 MSTORE PUSH1 0x20 ADD PUSH0 ISZERO ISZERO DUP2 MSTORE POP SWAP1 JUMP JUMPDEST PUSH0 PUSH1 0x40 MLOAD SWAP1 POP SWAP1 JUMP JUMPDEST PUSH0 DUP1 REVERT JUMPDEST PUSH0 DUP1 REVERT JUMPDEST PUSH0 DUP1 REVERT JUMPDEST PUSH0 DUP1 REVERT JUMPDEST PUSH0 PUSH1 0x1F NOT PUSH1 0x1F DUP4 ADD AND SWAP1 POP SWAP2 SWAP1 POP JUMP JUMPDEST PUSH32 0x4E487B7100000000000000000000000000000000000000000000000000000000 PUSH0 MSTORE PUSH1 0x41 PUSH1 0x4 MSTORE PUSH1 0x24 PUSH0 REVERT JUMPDEST PUSH2 0x733 DUP3 PUSH2 0x6ED JUMP JUMPDEST DUP2 ADD DUP2 DUP2 LT PUSH8 0xFFFFFFFFFFFFFFFF DUP3 GT OR ISZERO PUSH2 0x752 JUMPI PUSH2 0x751 PUSH2 0x6FD JUMP JUMPDEST JUMPDEST DUP1 PUSH1 0x40 MSTORE POP POP POP JUMP JUMPDEST PUSH0 PUSH2 0x764 PUSH2 0x6D4 JUMP JUMPDEST SWAP1 POP PUSH2 0x770 DUP3 DUP3 PUSH2 0x72A JUMP JUMPDEST SWAP2 SWAP1 POP JUMP JUMPDEST PUSH0 PUSH8 0xFFFFFFFFFFFFFFFF DUP3 GT ISZERO PUSH2 0x78F JUMPI PUSH2 0x78E PUSH2 0x6FD JUMP JUMPDEST JUMPDEST PUSH2 0x798 DUP3 PUSH2 0x6ED JUMP JUMPDEST SWAP1 POP PUSH1 0x20 DUP2 ADD SWAP1 POP SWAP2 SWAP1 POP JUMP JUMPDEST DUP3 DUP2 DUP4 CALLDATACOPY PUSH0 DUP4 DUP4 ADD MSTORE POP POP POP JUMP JUMPDEST PUSH0 PUSH2 0x7C5 PUSH2 0x7C0 DUP5 PUSH2 0x775 JUMP JUMPDEST PUSH2 0x75B JUMP JUMPDEST SWAP1 POP DUP3 DUP2 MSTORE PUSH1 0x20 DUP2 ADD DUP5 DUP5 DUP5 ADD GT ISZERO PUSH2 0x7E1 JUMPI PUSH2 0x7E0 PUSH2 0x6E9 JUMP JUMPDEST JUMPDEST PUSH2 0x7EC DUP5 DUP3 DUP6 PUSH2 0x7A5 JUMP JUMPDEST POP SWAP4 SWAP3 POP POP POP JUMP JUMPDEST PUSH0 DUP3 PUSH1 0x1F DUP4 ADD SLT PUSH2 0x808 JUMPI PUSH2 0x807 PUSH2 0x6E5 JUMP JUMPDEST JUMPDEST DUP2 CALLDATALOAD PUSH2 0x818 DUP5 DUP3 PUSH1 0x20 DUP7 ADD PUSH2 0x7B3 JUMP JUMPDEST SWAP2 POP POP SWAP3 SWAP2 POP POP JUMP JUMPDEST PUSH0 PUSH1 0x20 DUP3 DUP5 SUB SLT ISZERO PUSH2 0x836 JUMPI PUSH2 0x835 PUSH2 0x6DD JUMP JUMPDEST JUMPDEST PUSH0 DUP3 ADD CALLDATALOAD PUSH8 0xFFFFFFFFFFFFFFFF DUP2 GT ISZERO PUSH2 0x853 JUMPI PUSH2 0x852 PUSH2 0x6E1 JUMP JUMPDEST JUMPDEST PUSH2 0x85F DUP5 DUP3 DUP6 ADD PUSH2 0x7F4 JUMP JUMPDEST SWAP2 POP POP SWAP3 SWAP2 POP POP JUMP JUMPDEST PUSH0 PUSH20 0xFFFFFFFFFFFFFFFFFFFFFFFFFFFFFFFFFFFFFFFF DUP3 AND SWAP1 POP SWAP2 SWAP1 POP JUMP JUMPDEST PUSH0 PUSH2 0x891 DUP3 PUSH2 0x868 JUMP JUMPDEST SWAP1 POP SWAP2 SWAP1 POP JUMP JUMPDEST PUSH2 0x8A1 DUP2 PUSH2 0x887 JUMP JUMPDEST DUP2 EQ PUSH2 0x8AB JUMPI PUSH0 DUP1 REVERT JUMPDEST POP JUMP JUMPDEST PUSH0 DUP2 CALLDATALOAD SWAP1 POP PUSH2 0x8BC DUP2 PUSH2 0x898 JUMP JUMPDEST SWAP3 SWAP2 POP POP JUMP JUMPDEST PUSH0 PUSH1 0x20 DUP3 DUP5 SUB SLT ISZERO PUSH2 0x8D7 JUMPI PUSH2 0x8D6 PUSH2 0x6DD JUMP JUMPDEST JUMPDEST PUSH0 PUSH2 0x8E4 DUP5 DUP3 DUP6 ADD PUSH2 0x8AE JUMP JUMPDEST SWAP2 POP POP SWAP3 SWAP2 POP POP JUMP JUMPDEST PUSH0 DUP2 MLOAD SWAP1 POP SWAP2 SWAP1 POP JUMP JUMPDEST PUSH0 DUP3 DUP3 MSTORE PUSH1 0x20 DUP3 ADD SWAP1 POP SWAP3 SWAP2 POP POP JUMP JUMPDEST PUSH0 DUP2 SWAP1 POP PUSH1 0x20 DUP3 ADD SWAP1 POP SWAP2 SWAP1 POP JUMP JUMPDEST PUSH0 DUP2 SWAP1 POP SWAP2 SWAP1 POP JUMP JUMPDEST PUSH2 0x928 DUP2 PUSH2 0x916 JUMP JUMPDEST DUP3 MSTORE POP POP JUMP JUMPDEST PUSH0 DUP2 MLOAD SWAP1 POP SWAP2 SWAP1 POP JUMP JUMPDEST PUSH0 DUP3 DUP3 MSTORE PUSH1 0x20 DUP3 ADD SWAP1 POP SWAP3 SWAP2 POP POP JUMP JUMPDEST DUP3 DUP2 DUP4 MCOPY PUSH0 DUP4 DUP4 ADD MSTORE POP POP POP JUMP JUMPDEST PUSH0 PUSH2 0x960 DUP3 PUSH2 0x92E JUMP JUMPDEST PUSH2 0x96A DUP2 DUP6 PUSH2 0x938 JUMP JUMPDEST SWAP4 POP PUSH2 0x97A DUP2 DUP6 PUSH1 0x20 DUP7 ADD PUSH2 0x948 JUMP JUMPDEST PUSH2 0x983 DUP2 PUSH2 0x6ED JUMP JUMPDEST DUP5 ADD SWAP2 POP POP SWAP3 SWAP2 POP POP JUMP JUMPDEST PUSH0 DUP2 ISZERO ISZERO SWAP1 POP SWAP2 SWAP1 POP JUMP JUMPDEST PUSH2 0x9A2 DUP2 PUSH2 0x98E JUMP JUMPDEST DUP3 MSTORE POP POP JUMP JUMPDEST PUSH0 PUSH1 0x60 DUP4 ADD PUSH0 DUP4 ADD MLOAD PUSH2 0x9BD PUSH0 DUP7 ADD DUP3 PUSH2 0x91F JUMP JUMPDEST POP PUSH1 0x20 DUP4 ADD MLOAD DUP5 DUP3 SUB PUSH1 0x20 DUP7 ADD MSTORE PUSH2 0x9D5 DUP3 DUP3 PUSH2 0x956 JUMP JUMPDEST SWAP2 POP POP PUSH1 0x40 DUP4 ADD MLOAD PUSH2 0x9EA PUSH1 0x40 DUP7 ADD DUP3 PUSH2 0x999 JUMP JUMPDEST POP DUP1 SWAP2 POP POP SWAP3 SWAP2 POP POP JUMP JUMPDEST PUSH0 PUSH2 0xA00 DUP4 DUP4 PUSH2 0x9A8 JUMP JUMPDEST SWAP1 POP SWAP3 SWAP2 POP POP JUMP JUMPDEST PUSH0 PUSH1 0x20 DUP3 ADD SWAP1 POP SWAP2 SWAP1 POP JUMP JUMPDEST PUSH0 PUSH2 0xA1E DUP3 PUSH2 0x8ED JUMP JUMPDEST PUSH2 0xA28 DUP2 DUP6 PUSH2 0x8F7 JUMP JUMPDEST SWAP4 POP DUP4 PUSH1 0x20 DUP3 MUL DUP6 ADD PUSH2 0xA3A DUP6 PUSH2 0x907 JUMP JUMPDEST DUP1 PUSH0 JUMPDEST DUP6 DUP2 LT ISZERO PUSH2 0xA75 JUMPI DUP5 DUP5 SUB DUP10 MSTORE DUP2 MLOAD PUSH2 0xA56 DUP6 DUP3 PUSH2 0x9F5 JUMP JUMPDEST SWAP5 POP PUSH2 0xA61 DUP4 PUSH2 0xA08 JUMP JUMPDEST SWAP3 POP PUSH1 0x20 DUP11 ADD SWAP10 POP POP PUSH1 0x1 DUP2 ADD SWAP1 POP PUSH2 0xA3D JUMP JUMPDEST POP DUP3 SWAP8 POP DUP8 SWAP6 POP POP POP POP POP POP SWAP3 SWAP2 POP POP JUMP JUMPDEST PUSH0 PUSH1 0x20 DUP3 ADD SWAP1 POP DUP2 DUP2 SUB PUSH0 DUP4 ADD MSTORE PUSH2 0xA9F DUP2 DUP5 PUSH2 0xA14 JUMP JUMPDEST SWAP1 POP SWAP3 SWAP2 POP POP JUMP JUMPDEST PUSH2 0xAB0 DUP2 PUSH2 0x916 JUMP JUMPDEST DUP3 MSTORE POP POP JUMP JUMPDEST PUSH0 PUSH1 0x20 DUP3 ADD SWAP1 POP PUSH2 0xAC9 PUSH0 DUP4 ADD DUP5 PUSH2 0xAA7 JUMP JUMPDEST SWAP3 SWAP2 POP POP JUMP JUMPDEST PUSH2 0xAD8 DUP2 PUSH2 0x916 JUMP JUMPDEST DUP2 EQ PUSH2 0xAE2 JUMPI PUSH0 DUP1 REVERT JUMPDEST POP JUMP JUMPDEST PUSH0 DUP2 CALLDATALOAD SWAP1 POP PUSH2 0xAF3 DUP2 PUSH2 0xACF JUMP JUMPDEST SWAP3 SWAP2 POP POP JUMP JUMPDEST PUSH0 PUSH1 0x20 DUP3 DUP5 SUB SLT ISZERO PUSH2 0xB0E JUMPI PUSH2 0xB0D PUSH2 0x6DD JUMP JUMPDEST JUMPDEST PUSH0 PUSH2 0xB1B DUP5 DUP3 DUP6 ADD PUSH2 0xAE5 JUMP JUMPDEST SWAP2 POP POP SWAP3 SWAP2 POP POP JUMP JUMPDEST PUSH0 DUP1 PUSH1 0x40 DUP4 DUP6 SUB SLT ISZERO PUSH2 0xB3A JUMPI PUSH2 0xB39 PUSH2 0x6DD JUMP JUMPDEST JUMPDEST PUSH0 PUSH2 0xB47 DUP6 DUP3 DUP7 ADD PUSH2 0x8AE JUMP JUMPDEST SWAP3 POP POP PUSH1 0x20 PUSH2 0xB58 DUP6 DUP3 DUP7 ADD PUSH2 0xAE5 JUMP JUMPDEST SWAP2 POP POP SWAP3 POP SWAP3 SWAP1 POP JUMP JUMPDEST PUSH0 DUP3 DUP3 MSTORE PUSH1 0x20 DUP3 ADD SWAP1 POP SWAP3 SWAP2 POP POP JUMP JUMPDEST PUSH0 PUSH2 0xB7C DUP3 PUSH2 0x92E JUMP JUMPDEST PUSH2 0xB86 DUP2 DUP6 PUSH2 0xB62 JUMP JUMPDEST SWAP4 POP PUSH2 0xB96 DUP2 DUP6 PUSH1 0x20 DUP7 ADD PUSH2 0x948 JUMP JUMPDEST PUSH2 0xB9F DUP2 PUSH2 0x6ED JUMP JUMPDEST DUP5 ADD SWAP2 POP POP SWAP3 SWAP2 POP POP JUMP JUMPDEST PUSH2 0xBB3 DUP2 PUSH2 0x98E JUMP JUMPDEST DUP3 MSTORE POP POP JUMP JUMPDEST PUSH0 PUSH1 0x60 DUP3 ADD SWAP1 POP PUSH2 0xBCC PUSH0 DUP4 ADD DUP7 PUSH2 0xAA7 JUMP JUMPDEST DUP2 DUP2 SUB PUSH1 0x20 DUP4 ADD MSTORE PUSH2 0xBDE DUP2 DUP6 PUSH2 0xB72 JUMP JUMPDEST SWAP1 POP PUSH2 0xBED PUSH1 0x40 DUP4 ADD DUP5 PUSH2 0xBAA JUMP JUMPDEST SWAP5 SWAP4 POP POP POP POP JUMP JUMPDEST PUSH32 0x4E487B7100000000000000000000000000000000000000000000000000000000 PUSH0 MSTORE PUSH1 0x11 PUSH1 0x4 MSTORE PUSH1 0x24 PUSH0 REVERT JUMPDEST PUSH0 PUSH2 0xC2C DUP3 PUSH2 0x916 JUMP JUMPDEST SWAP2 POP PUSH32 0xFFFFFFFFFFFFFFFFFFFFFFFFFFFFFFFFFFFFFFFFFFFFFFFFFFFFFFFFFFFFFFFF DUP3 SUB PUSH2 0xC5E JUMPI PUSH2 0xC5D PUSH2 0xBF5 JUMP JUMPDEST JUMPDEST PUSH1 0x1 DUP3 ADD SWAP1 POP SWAP2 SWAP1 POP JUMP JUMPDEST PUSH32 0x4E487B7100000000000000000000000000000000000000000000000000000000 PUSH0 MSTORE PUSH1 0x22 PUSH1 0x4 MSTORE PUSH1 0x24 PUSH0 REVERT JUMPDEST PUSH0 PUSH1 0x2 DUP3 DIV SWAP1 POP PUSH1 0x1 DUP3 AND DUP1 PUSH2 0xCAD JUMPI PUSH1 0x7F DUP3 AND SWAP2 POP JUMPDEST PUSH1 0x20 DUP3 LT DUP2 SUB PUSH2 0xCC0 JUMPI PUSH2 0xCBF PUSH2 0xC69 JUMP JUMPDEST JUMPDEST POP SWAP2 SWAP1 POP JUMP JUMPDEST PUSH0 DUP2 SWAP1 POP DUP2 PUSH0 MSTORE PUSH1 0x20 PUSH0 KECCAK256 SWAP1 POP SWAP2 SWAP1 POP JUMP JUMPDEST PUSH0 PUSH1 0x20 PUSH1 0x1F DUP4 ADD DIV SWAP1 POP SWAP2 SWAP1 POP JUMP JUMPDEST PUSH0 DUP3 DUP3 SHL SWAP1 POP SWAP3 SWAP2 POP POP JUMP JUMPDEST PUSH0 PUSH1 0x8 DUP4 MUL PUSH2 0xD22 PUSH32 0xFFFFFFFFFFFFFFFFFFFFFFFFFFFFFFFFFFFFFFFFFFFFFFFFFFFFFFFFFFFFFFFF DUP3 PUSH2 0xCE7 JUMP JUMPDEST PUSH2 0xD2C DUP7 DUP4 PUSH2 0xCE7 JUMP JUMPDEST SWAP6 POP DUP1 NOT DUP5 AND SWAP4 POP DUP1 DUP7 AND DUP5 OR SWAP3 POP POP POP SWAP4 SWAP3 POP POP POP JUMP JUMPDEST PUSH0 DUP2 SWAP1 POP SWAP2 SWAP1 POP JUMP JUMPDEST PUSH0 PUSH2 0xD67 PUSH2 0xD62 PUSH2 0xD5D DUP5 PUSH2 0x916 JUMP JUMPDEST PUSH2 0xD44 JUMP JUMPDEST PUSH2 0x916 JUMP JUMPDEST SWAP1 POP SWAP2 SWAP1 POP JUMP JUMPDEST PUSH0 DUP2 SWAP1 POP SWAP2 SWAP1 POP JUMP JUMPDEST PUSH2 0xD80 DUP4 PUSH2 0xD4D JUMP JUMPDEST PUSH2 0xD94 PUSH2 0xD8C DUP3 PUSH2 0xD6E JUMP JUMPDEST DUP5 DUP5 SLOAD PUSH2 0xCF3 JUMP JUMPDEST DUP3 SSTORE POP POP POP POP JUMP JUMPDEST PUSH0 SWAP1 JUMP JUMPDEST PUSH2 0xDA8 PUSH2 0xD9C JUMP JUMPDEST PUSH2 0xDB3 DUP2 DUP5 DUP5 PUSH2 0xD77 JUMP JUMPDEST POP POP POP JUMP JUMPDEST JUMPDEST DUP2 DUP2 LT ISZERO PUSH2 0xDD6 JUMPI PUSH2 0xDCB PUSH0 DUP3 PUSH2 0xDA0 JUMP JUMPDEST PUSH1 0x1 DUP2 ADD SWAP1 POP PUSH2 0xDB9 JUMP JUMPDEST POP POP JUMP JUMPDEST PUSH1 0x1F DUP3 GT ISZERO PUSH2 0xE1B JUMPI PUSH2 0xDEC DUP2 PUSH2 0xCC6 JUMP JUMPDEST PUSH2 0xDF5 DUP5 PUSH2 0xCD8 JUMP JUMPDEST DUP2 ADD PUSH1 0x20 DUP6 LT ISZERO PUSH2 0xE04 JUMPI DUP2 SWAP1 POP JUMPDEST PUSH2 0xE18 PUSH2 0xE10 DUP6 PUSH2 0xCD8 JUMP JUMPDEST DUP4 ADD DUP3 PUSH2 0xDB8 JUMP JUMPDEST POP POP JUMPDEST POP POP POP JUMP JUMPDEST PUSH0 DUP3 DUP3 SHR SWAP1 POP SWAP3 SWAP2 POP POP JUMP JUMPDEST PUSH0 PUSH2 0xE3B PUSH0 NOT DUP5 PUSH1 0x8 MUL PUSH2 0xE20 JUMP JUMPDEST NOT DUP1 DUP4 AND SWAP2 POP POP SWAP3 SWAP2 POP POP JUMP JUMPDEST PUSH0 PUSH2 0xE53 DUP4 DUP4 PUSH2 0xE2C JUMP JUMPDEST SWAP2 POP DUP3 PUSH1 0x2 MUL DUP3 OR SWAP1 POP SWAP3 SWAP2 POP POP JUMP JUMPDEST PUSH2 0xE6C DUP3 PUSH2 0x92E JUMP JUMPDEST PUSH8 0xFFFFFFFFFFFFFFFF DUP2 GT ISZERO PUSH2 0xE85 JUMPI PUSH2 0xE84 PUSH2 0x6FD JUMP JUMPDEST JUMPDEST PUSH2 0xE8F DUP3 SLOAD PUSH2 0xC96 JUMP JUMPDEST PUSH2 0xE9A DUP3 DUP3 DUP6 PUSH2 0xDDA JUMP JUMPDEST PUSH0 PUSH1 0x20 SWAP1 POP PUSH1 0x1F DUP4 GT PUSH1 0x1 DUP2 EQ PUSH2 0xECB JUMPI PUSH0 DUP5 ISZERO PUSH2 0xEB9 JUMPI DUP3 DUP8 ADD MLOAD SWAP1 POP JUMPDEST PUSH2 0xEC3 DUP6 DUP3 PUSH2 0xE48 JUMP JUMPDEST DUP7 SSTORE POP PUSH2 0xF2A JUMP JUMPDEST PUSH1 0x1F NOT DUP5 AND PUSH2 0xED9 DUP7 PUSH2 0xCC6 JUMP JUMPDEST PUSH0 JUMPDEST DUP3 DUP2 LT ISZERO PUSH2 0xF00 JUMPI DUP5 DUP10 ADD MLOAD DUP3 SSTORE PUSH1 0x1 DUP3 ADD SWAP2 POP PUSH1 0x20 DUP6 ADD SWAP5 POP PUSH1 0x20 DUP2 ADD SWAP1 POP PUSH2 0xEDB JUMP JUMPDEST DUP7 DUP4 LT ISZERO PUSH2 0xF1D JUMPI DUP5 DUP10 ADD MLOAD PUSH2 0xF19 PUSH1 0x1F DUP10 AND DUP3 PUSH2 0xE2C JUMP JUMPDEST DUP4 SSTORE POP JUMPDEST PUSH1 0x1 PUSH1 0x2 DUP9 MUL ADD DUP9 SSTORE POP POP POP JUMPDEST POP POP POP POP POP POP JUMP JUMPDEST PUSH2 0xF3B DUP2 PUSH2 0x887 JUMP JUMPDEST DUP3 MSTORE POP POP JUMP JUMPDEST PUSH0 PUSH1 0x80 DUP3 ADD SWAP1 POP PUSH2 0xF54 PUSH0 DUP4 ADD DUP8 PUSH2 0xF32 JUMP JUMPDEST PUSH2 0xF61 PUSH1 0x20 DUP4 ADD DUP7 PUSH2 0xAA7 JUMP JUMPDEST DUP2 DUP2 SUB PUSH1 0x40 DUP4 ADD MSTORE PUSH2 0xF73 DUP2 DUP6 PUSH2 0xB72 JUMP JUMPDEST SWAP1 POP PUSH2 0xF82 PUSH1 0x60 DUP4 ADD DUP5 PUSH2 0xBAA JUMP JUMPDEST SWAP6 SWAP5 POP POP POP POP POP JUMP JUMPDEST PUSH0 PUSH2 0xF95 DUP3 PUSH2 0x916 JUMP JUMPDEST SWAP2 POP PUSH2 0xFA0 DUP4 PUSH2 0x916 JUMP JUMPDEST SWAP3 POP DUP3 DUP3 SUB SWAP1 POP DUP2 DUP2 GT ISZERO PUSH2 0xFB8 JUMPI PUSH2 0xFB7 PUSH2 0xBF5 JUMP JUMPDEST JUMPDEST SWAP3 SWAP2 POP POP JUMP JUMPDEST PUSH32 0x4E487B7100000000000000000000000000000000000000000000000000000000 PUSH0 MSTORE PUSH1 0x32 PUSH1 0x4 MSTORE PUSH1 0x24 PUSH0 REVERT JUMPDEST PUSH32 0x5461736B206E6F7420666F756E64000000000000000000000000000000000000 PUSH0 DUP3 ADD MSTORE POP JUMP JUMPDEST PUSH0 PUSH2 0x101F PUSH1 0xE DUP4 PUSH2 0xB62 JUMP JUMPDEST SWAP2 POP PUSH2 0x102A DUP3 PUSH2 0xFEB JUMP JUMPDEST PUSH1 0x20 DUP3 ADD SWAP1 POP SWAP2 SWAP1 POP JUMP JUMPDEST PUSH0 PUSH1 0x20 DUP3 ADD SWAP1 POP DUP2 DUP2 SUB PUSH0 DUP4 ADD MSTORE PUSH2 0x104C DUP2 PUSH2 0x1013 JUMP JUMPDEST SWAP1 POP SWAP2 SWAP1 POP JUMP JUMPDEST PUSH0 PUSH1 0x60 DUP3 ADD SWAP1 POP PUSH2 0x1066 PUSH0 DUP4 ADD DUP7 PUSH2 0xF32 JUMP JUMPDEST PUSH2 0x1073 PUSH1 0x20 DUP4 ADD DUP6 PUSH2 0xAA7 JUMP JUMPDEST PUSH2 0x1080 PUSH1 0x40 DUP4 ADD DUP5 PUSH2 0xBAA JUMP JUMPDEST SWAP5 SWAP4 POP POP POP POP JUMP INVALID LOG2 PUSH5 0x6970667358 0x22 SLT KECCAK256 TIMESTAMP 0xDF 0xDD OR 0xDA 0xBE EXTCODECOPY 0x4E SWAP9 SLOAD 0x4C SWAP12 PREVRANDAO DIV LOG1 PUSH8 0xDACE2DF8FA82E8E4 0xD5 0xDC 0xDF 0xFB 0xF7 BALANCE NUMBER 0xAF PUSH5 0x736F6C6343 STOP ADDMOD BYTE STOP CALLER "
				},
				"gasEstimates": {
					"creation": {
						"codeDepositCost": "857200",
						"executionCost": "5893",
						"totalCost": "863093"
					},
					"external": {
						"createTask(string)": "infinite",
						"getAllTasksByUser(address)": "infinite",
						"taskCount()": "2512",
						"tasks(address,uint256)": "infinite",
						"toggleTaskCompleted(uint256)": "infinite",
						"userTaskCount(address)": "2824"
					}
				},
				"methodIdentifiers": {
					"createTask(string)": "111002aa",
					"getAllTasksByUser(address)": "1ed618c5",
					"taskCount()": "b6cb58a5",
					"tasks(address,uint256)": "7149d2e4",
					"toggleTaskCompleted(uint256)": "6140dd60",
					"userTaskCount(address)": "58f9e741"
				}
			},
			"storageLayout": {
				"storage": [
					{
						"astId": 4,
						"contract": "TodoList.sol:TodoList",
						"label": "taskCount",
						"offset": 0,
						"slot": "0",
						"type": "t_uint256"
					},
					{
						"astId": 18,
						"contract": "TodoList.sol:TodoList",
						"label": "tasks",
						"offset": 0,
						"slot": "1",
						"type": "t_mapping(t_address,t_mapping(t_uint256,t_struct(Task)11_storage))"
					},
					{
						"astId": 22,
						"contract": "TodoList.sol:TodoList",
						"label": "userTaskCount",
						"offset": 0,
						"slot": "2",
						"type": "t_mapping(t_address,t_uint256)"
					}
				],
				"types": {
					"t_address": {
						"encoding": "inplace",
						"label": "address",
						"numberOfBytes": "20"
					},
					"t_bool": {
						"encoding": "inplace",
						"label": "bool",
						"numberOfBytes": "1"
					},
					"t_mapping(t_address,t_mapping(t_uint256,t_struct(Task)11_storage))": {
						"encoding": "mapping",
						"key": "t_address",
						"label": "mapping(address => mapping(uint256 => struct TodoList.Task))",
						"numberOfBytes": "32",
						"value": "t_mapping(t_uint256,t_struct(Task)11_storage)"
					},
					"t_mapping(t_address,t_uint256)": {
						"encoding": "mapping",
						"key": "t_address",
						"label": "mapping(address => uint256)",
						"numberOfBytes": "32",
						"value": "t_uint256"
					},
					"t_mapping(t_uint256,t_struct(Task)11_storage)": {
						"encoding": "mapping",
						"key": "t_uint256",
						"label": "mapping(uint256 => struct TodoList.Task)",
						"numberOfBytes": "32",
						"value": "t_struct(Task)11_storage"
					},
					"t_string_storage": {
						"encoding": "bytes",
						"label": "string",
						"numberOfBytes": "32"
					},
					"t_struct(Task)11_storage": {
						"encoding": "inplace",
						"label": "struct TodoList.Task",
						"members": [
							{
								"astId": 6,
								"contract": "TodoList.sol:TodoList",
								"label": "id",
								"offset": 0,
								"slot": "0",
								"type": "t_uint256"
							},
							{
								"astId": 8,
								"contract": "TodoList.sol:TodoList",
								"label": "content",
								"offset": 0,
								"slot": "1",
								"type": "t_string_storage"
							},
							{
								"astId": 10,
								"contract": "TodoList.sol:TodoList",
								"label": "completed",
								"offset": 0,
								"slot": "2",
								"type": "t_bool"
							}
						],
						"numberOfBytes": "96"
					},
					"t_uint256": {
						"encoding": "inplace",
						"label": "uint256",
						"numberOfBytes": "32"
					}
				}
			},
			"userdoc": {
				"kind": "user",
				"methods": {},
				"version": 1
			}
		}
	}
}